Archive member included because of file (symbol)

C:\Users\Haris\AppData\Local\Temp\VMBuilds\Main_Siemens_Automation_824MSPe\haeger_haeger_samd_haeger_mcu1\Debug/core.a(cortex_handlers.c.o)
                              (Reset_Handler)
C:\Users\Haris\AppData\Local\Temp\VMBuilds\Main_Siemens_Automation_824MSPe\haeger_haeger_samd_haeger_mcu1\Debug/core.a(delay.c.o)
                              C:\Users\Haris\AppData\Local\Temp\VMBuilds\Main_Siemens_Automation_824MSPe\haeger_haeger_samd_haeger_mcu1\Debug\Main_Siemens_Automation_824MSPe.cpp.o (millis)
C:\Users\Haris\AppData\Local\Temp\VMBuilds\Main_Siemens_Automation_824MSPe\haeger_haeger_samd_haeger_mcu1\Debug/core.a(hooks.c.o)
                              C:\Users\Haris\AppData\Local\Temp\VMBuilds\Main_Siemens_Automation_824MSPe\haeger_haeger_samd_haeger_mcu1\Debug/core.a(delay.c.o) (yield)
C:\Users\Haris\AppData\Local\Temp\VMBuilds\Main_Siemens_Automation_824MSPe\haeger_haeger_samd_haeger_mcu1\Debug/core.a(startup.c.o)
                              C:\Users\Haris\AppData\Local\Temp\VMBuilds\Main_Siemens_Automation_824MSPe\haeger_haeger_samd_haeger_mcu1\Debug/core.a(cortex_handlers.c.o) (SystemInit)
C:\Users\Haris\AppData\Local\Temp\VMBuilds\Main_Siemens_Automation_824MSPe\haeger_haeger_samd_haeger_mcu1\Debug/core.a(wiring_analog.c.o)
                              C:\Users\Haris\AppData\Local\Temp\VMBuilds\Main_Siemens_Automation_824MSPe\haeger_haeger_samd_haeger_mcu1\Debug\Main_Siemens_Automation_824MSPe.cpp.o (analogReadResolution)
C:\Users\Haris\AppData\Local\Temp\VMBuilds\Main_Siemens_Automation_824MSPe\haeger_haeger_samd_haeger_mcu1\Debug/core.a(wiring_digital.c.o)
                              C:\Users\Haris\AppData\Local\Temp\VMBuilds\Main_Siemens_Automation_824MSPe\haeger_haeger_samd_haeger_mcu1\Debug\Main_Siemens_Automation_824MSPe.cpp.o (pinMode)
C:\Users\Haris\AppData\Local\Temp\VMBuilds\Main_Siemens_Automation_824MSPe\haeger_haeger_samd_haeger_mcu1\Debug/core.a(wiring_private.c.o)
                              C:\Users\Haris\AppData\Local\Temp\VMBuilds\Main_Siemens_Automation_824MSPe\haeger_haeger_samd_haeger_mcu1\Debug\SPI\SPI.cpp.o (pinPeripheral)
C:\Users\Haris\AppData\Local\Temp\VMBuilds\Main_Siemens_Automation_824MSPe\haeger_haeger_samd_haeger_mcu1\Debug/core.a(main.cpp.o)
                              c:/users/haris/appdata/local/arduino15/packages/arduino/tools/arm-none-eabi-gcc/4.8.3-2014q1/bin/../lib/gcc/arm-none-eabi/4.8.3/../../../../arm-none-eabi/lib/armv7e-m/fpu/crt0.o (main)
C:\Users\Haris\AppData\Local\Temp\VMBuilds\Main_Siemens_Automation_824MSPe\haeger_haeger_samd_haeger_mcu1\Debug/core.a(Reset.cpp.o)
                              C:\Users\Haris\AppData\Local\Temp\VMBuilds\Main_Siemens_Automation_824MSPe\haeger_haeger_samd_haeger_mcu1\Debug/core.a(delay.c.o) (tickReset)
C:\Users\Haris\AppData\Local\Temp\VMBuilds\Main_Siemens_Automation_824MSPe\haeger_haeger_samd_haeger_mcu1\Debug/core.a(SERCOM.cpp.o)
                              C:\Users\Haris\AppData\Local\Temp\VMBCore\visualmicro\276ac5ba6e45f5143b737d9f0d9df4e9\variant\variant.cpp.o (SERCOM::SERCOM(Sercom*))
C:\Users\Haris\AppData\Local\Temp\VMBuilds\Main_Siemens_Automation_824MSPe\haeger_haeger_samd_haeger_mcu1\Debug/core.a(WMath.cpp.o)
                              C:\Users\Haris\AppData\Local\Temp\VMBuilds\Main_Siemens_Automation_824MSPe\haeger_haeger_samd_haeger_mcu1\Debug\Main_Siemens_Automation_824MSPe.cpp.o (makeWord(unsigned char, unsigned char))
C:\Users\Haris\AppData\Local\Temp\VMBuilds\Main_Siemens_Automation_824MSPe\haeger_haeger_samd_haeger_mcu1\Debug/core.a(CDC.cpp.o)
                              C:\Users\Haris\AppData\Local\Temp\VMBuilds\Main_Siemens_Automation_824MSPe\haeger_haeger_samd_haeger_mcu1\Debug\Main_Siemens_Automation_824MSPe.cpp.o (Serial_::begin(unsigned long))
C:\Users\Haris\AppData\Local\Temp\VMBuilds\Main_Siemens_Automation_824MSPe\haeger_haeger_samd_haeger_mcu1\Debug/core.a(USBCore.cpp.o)
                              C:\Users\Haris\AppData\Local\Temp\VMBuilds\Main_Siemens_Automation_824MSPe\haeger_haeger_samd_haeger_mcu1\Debug/core.a(main.cpp.o) (USBDeviceClass::init())
C:\Users\Haris\AppData\Local\Temp\VMBuilds\Main_Siemens_Automation_824MSPe\haeger_haeger_samd_haeger_mcu1\Debug/core.a(wiring.c.o)
                              C:\Users\Haris\AppData\Local\Temp\VMBuilds\Main_Siemens_Automation_824MSPe\haeger_haeger_samd_haeger_mcu1\Debug/core.a(main.cpp.o) (init)
C:\Users\Haris\AppData\Local\Temp\VMBuilds\Main_Siemens_Automation_824MSPe\haeger_haeger_samd_haeger_mcu1\Debug/core.a(abi.cpp.o)
                              C:\Users\Haris\AppData\Local\Temp\VMBuilds\Main_Siemens_Automation_824MSPe\haeger_haeger_samd_haeger_mcu1\Debug/core.a(USBCore.cpp.o) (__cxa_pure_virtual)
C:\Users\Haris\AppData\Local\Temp\VMBuilds\Main_Siemens_Automation_824MSPe\haeger_haeger_samd_haeger_mcu1\Debug/core.a(new.cpp.o)
                              C:\Users\Haris\AppData\Local\Temp\VMBuilds\Main_Siemens_Automation_824MSPe\haeger_haeger_samd_haeger_mcu1\Debug/core.a(USBCore.cpp.o) (operator new(unsigned int))
C:\Users\Haris\AppData\Local\Temp\VMBuilds\Main_Siemens_Automation_824MSPe\haeger_haeger_samd_haeger_mcu1\Debug/core.a(PluggableUSB.cpp.o)
                              C:\Users\Haris\AppData\Local\Temp\VMBuilds\Main_Siemens_Automation_824MSPe\haeger_haeger_samd_haeger_mcu1\Debug/core.a(USBCore.cpp.o) (PluggableUSB_::getInterface(unsigned char*))
C:\Users\Haris\AppData\Local\Temp\VMBuilds\Main_Siemens_Automation_824MSPe\haeger_haeger_samd_haeger_mcu1\Debug/core.a(SAMD21_USBDevice.cpp.o)
                              C:\Users\Haris\AppData\Local\Temp\VMBuilds\Main_Siemens_Automation_824MSPe\haeger_haeger_samd_haeger_mcu1\Debug/core.a(USBCore.cpp.o) (USBDevice_SAMD21G18x::reset())
c:/users/haris/appdata/local/arduino15/packages/arduino/tools/arm-none-eabi-gcc/4.8.3-2014q1/bin/../lib/gcc/arm-none-eabi/4.8.3/armv7e-m/fpu\libgcc.a(_arm_addsubdf3.o)
                              C:\Users\Haris\AppData\Local\Temp\VMBuilds\Main_Siemens_Automation_824MSPe\haeger_haeger_samd_haeger_mcu1\Debug\ResponsiveAnalogRead\ResponsiveAnalogRead.cpp.o (__aeabi_dsub)
c:/users/haris/appdata/local/arduino15/packages/arduino/tools/arm-none-eabi-gcc/4.8.3-2014q1/bin/../lib/gcc/arm-none-eabi/4.8.3/armv7e-m/fpu\libgcc.a(_arm_muldivdf3.o)
                              C:\Users\Haris\AppData\Local\Temp\VMBuilds\Main_Siemens_Automation_824MSPe\haeger_haeger_samd_haeger_mcu1\Debug\ResponsiveAnalogRead\ResponsiveAnalogRead.cpp.o (__aeabi_dmul)
c:/users/haris/appdata/local/arduino15/packages/arduino/tools/arm-none-eabi-gcc/4.8.3-2014q1/bin/../lib/gcc/arm-none-eabi/4.8.3/armv7e-m/fpu\libgcc.a(_arm_truncdfsf2.o)
                              C:\Users\Haris\AppData\Local\Temp\VMBuilds\Main_Siemens_Automation_824MSPe\haeger_haeger_samd_haeger_mcu1\Debug\ResponsiveAnalogRead\ResponsiveAnalogRead.cpp.o (__aeabi_d2f)
c:/users/haris/appdata/local/arduino15/packages/arduino/tools/arm-none-eabi-gcc/4.8.3-2014q1/bin/../lib/gcc/arm-none-eabi/4.8.3/../../../../arm-none-eabi/lib/armv7e-m/fpu\libc_s.a(lib_a-assert.o)
                              C:\Users\Haris\AppData\Local\Temp\VMBuilds\Main_Siemens_Automation_824MSPe\haeger_haeger_samd_haeger_mcu1\Debug\SPI\SPI.cpp.o (__assert_func)
c:/users/haris/appdata/local/arduino15/packages/arduino/tools/arm-none-eabi-gcc/4.8.3-2014q1/bin/../lib/gcc/arm-none-eabi/4.8.3/../../../../arm-none-eabi/lib/armv7e-m/fpu\libc_s.a(lib_a-exit.o)
                              c:/users/haris/appdata/local/arduino15/packages/arduino/tools/arm-none-eabi-gcc/4.8.3-2014q1/bin/../lib/gcc/arm-none-eabi/4.8.3/../../../../arm-none-eabi/lib/armv7e-m/fpu/crt0.o (exit)
c:/users/haris/appdata/local/arduino15/packages/arduino/tools/arm-none-eabi-gcc/4.8.3-2014q1/bin/../lib/gcc/arm-none-eabi/4.8.3/../../../../arm-none-eabi/lib/armv7e-m/fpu\libc_s.a(lib_a-fprintf.o)
                              c:/users/haris/appdata/local/arduino15/packages/arduino/tools/arm-none-eabi-gcc/4.8.3-2014q1/bin/../lib/gcc/arm-none-eabi/4.8.3/../../../../arm-none-eabi/lib/armv7e-m/fpu\libc_s.a(lib_a-assert.o) (fiprintf)
c:/users/haris/appdata/local/arduino15/packages/arduino/tools/arm-none-eabi-gcc/4.8.3-2014q1/bin/../lib/gcc/arm-none-eabi/4.8.3/../../../../arm-none-eabi/lib/armv7e-m/fpu\libc_s.a(lib_a-impure.o)
                              c:/users/haris/appdata/local/arduino15/packages/arduino/tools/arm-none-eabi-gcc/4.8.3-2014q1/bin/../lib/gcc/arm-none-eabi/4.8.3/../../../../arm-none-eabi/lib/armv7e-m/fpu\libc_s.a(lib_a-exit.o) (_global_impure_ptr)
c:/users/haris/appdata/local/arduino15/packages/arduino/tools/arm-none-eabi-gcc/4.8.3-2014q1/bin/../lib/gcc/arm-none-eabi/4.8.3/../../../../arm-none-eabi/lib/armv7e-m/fpu\libc_s.a(lib_a-init.o)
                              c:/users/haris/appdata/local/arduino15/packages/arduino/tools/arm-none-eabi-gcc/4.8.3-2014q1/bin/../lib/gcc/arm-none-eabi/4.8.3/../../../../arm-none-eabi/lib/armv7e-m/fpu/crt0.o (__libc_init_array)
c:/users/haris/appdata/local/arduino15/packages/arduino/tools/arm-none-eabi-gcc/4.8.3-2014q1/bin/../lib/gcc/arm-none-eabi/4.8.3/../../../../arm-none-eabi/lib/armv7e-m/fpu\libc_s.a(lib_a-malloc.o)
                              C:\Users\Haris\AppData\Local\Temp\VMBuilds\Main_Siemens_Automation_824MSPe\haeger_haeger_samd_haeger_mcu1\Debug/core.a(USBCore.cpp.o) (malloc)
c:/users/haris/appdata/local/arduino15/packages/arduino/tools/arm-none-eabi-gcc/4.8.3-2014q1/bin/../lib/gcc/arm-none-eabi/4.8.3/../../../../arm-none-eabi/lib/armv7e-m/fpu\libc_s.a(lib_a-memcpy-stub.o)
                              C:\Users\Haris\AppData\Local\Temp\VMBuilds\Main_Siemens_Automation_824MSPe\haeger_haeger_samd_haeger_mcu1\Debug/core.a(USBCore.cpp.o) (memcpy)
c:/users/haris/appdata/local/arduino15/packages/arduino/tools/arm-none-eabi-gcc/4.8.3-2014q1/bin/../lib/gcc/arm-none-eabi/4.8.3/../../../../arm-none-eabi/lib/armv7e-m/fpu\libc_s.a(lib_a-memset.o)
                              c:/users/haris/appdata/local/arduino15/packages/arduino/tools/arm-none-eabi-gcc/4.8.3-2014q1/bin/../lib/gcc/arm-none-eabi/4.8.3/../../../../arm-none-eabi/lib/armv7e-m/fpu/crt0.o (memset)
c:/users/haris/appdata/local/arduino15/packages/arduino/tools/arm-none-eabi-gcc/4.8.3-2014q1/bin/../lib/gcc/arm-none-eabi/4.8.3/../../../../arm-none-eabi/lib/armv7e-m/fpu\libc_s.a(lib_a-nano-freer.o)
                              c:/users/haris/appdata/local/arduino15/packages/arduino/tools/arm-none-eabi-gcc/4.8.3-2014q1/bin/../lib/gcc/arm-none-eabi/4.8.3/../../../../arm-none-eabi/lib/armv7e-m/fpu\libc_s.a(lib_a-malloc.o) (_free_r)
c:/users/haris/appdata/local/arduino15/packages/arduino/tools/arm-none-eabi-gcc/4.8.3-2014q1/bin/../lib/gcc/arm-none-eabi/4.8.3/../../../../arm-none-eabi/lib/armv7e-m/fpu\libc_s.a(lib_a-nano-mallocr.o)
                              c:/users/haris/appdata/local/arduino15/packages/arduino/tools/arm-none-eabi-gcc/4.8.3-2014q1/bin/../lib/gcc/arm-none-eabi/4.8.3/../../../../arm-none-eabi/lib/armv7e-m/fpu\libc_s.a(lib_a-malloc.o) (_malloc_r)
c:/users/haris/appdata/local/arduino15/packages/arduino/tools/arm-none-eabi-gcc/4.8.3-2014q1/bin/../lib/gcc/arm-none-eabi/4.8.3/../../../../arm-none-eabi/lib/armv7e-m/fpu\libc_s.a(lib_a-rand.o)
                              C:\Users\Haris\AppData\Local\Temp\VMBuilds\Main_Siemens_Automation_824MSPe\haeger_haeger_samd_haeger_mcu1\Debug/core.a(WMath.cpp.o) (srand)
c:/users/haris/appdata/local/arduino15/packages/arduino/tools/arm-none-eabi-gcc/4.8.3-2014q1/bin/../lib/gcc/arm-none-eabi/4.8.3/../../../../arm-none-eabi/lib/armv7e-m/fpu\libc_s.a(lib_a-sbrkr.o)
                              c:/users/haris/appdata/local/arduino15/packages/arduino/tools/arm-none-eabi-gcc/4.8.3-2014q1/bin/../lib/gcc/arm-none-eabi/4.8.3/../../../../arm-none-eabi/lib/armv7e-m/fpu\libc_s.a(lib_a-nano-mallocr.o) (_sbrk_r)
c:/users/haris/appdata/local/arduino15/packages/arduino/tools/arm-none-eabi-gcc/4.8.3-2014q1/bin/../lib/gcc/arm-none-eabi/4.8.3/../../../../arm-none-eabi/lib/armv7e-m/fpu\libc_s.a(lib_a-strlen.o)
                              C:\Users\Haris\AppData\Local\Temp\VMBuilds\Main_Siemens_Automation_824MSPe\haeger_haeger_samd_haeger_mcu1\Debug/core.a(USBCore.cpp.o) (strlen)
c:/users/haris/appdata/local/arduino15/packages/arduino/tools/arm-none-eabi-gcc/4.8.3-2014q1/bin/../lib/gcc/arm-none-eabi/4.8.3/../../../../arm-none-eabi/lib/armv7e-m/fpu\libc_s.a(lib_a-vfprintf.o)
                              c:/users/haris/appdata/local/arduino15/packages/arduino/tools/arm-none-eabi-gcc/4.8.3-2014q1/bin/../lib/gcc/arm-none-eabi/4.8.3/../../../../arm-none-eabi/lib/armv7e-m/fpu\libc_s.a(lib_a-fprintf.o) (_vfprintf_r)
c:/users/haris/appdata/local/arduino15/packages/arduino/tools/arm-none-eabi-gcc/4.8.3-2014q1/bin/../lib/gcc/arm-none-eabi/4.8.3/../../../../arm-none-eabi/lib/armv7e-m/fpu\libc_s.a(lib_a-vfprintf_i.o)
                              c:/users/haris/appdata/local/arduino15/packages/arduino/tools/arm-none-eabi-gcc/4.8.3-2014q1/bin/../lib/gcc/arm-none-eabi/4.8.3/../../../../arm-none-eabi/lib/armv7e-m/fpu\libc_s.a(lib_a-vfprintf.o) (_printf_i)
c:/users/haris/appdata/local/arduino15/packages/arduino/tools/arm-none-eabi-gcc/4.8.3-2014q1/bin/../lib/gcc/arm-none-eabi/4.8.3/../../../../arm-none-eabi/lib/armv7e-m/fpu\libc_s.a(lib_a-wbuf.o)
                              c:/users/haris/appdata/local/arduino15/packages/arduino/tools/arm-none-eabi-gcc/4.8.3-2014q1/bin/../lib/gcc/arm-none-eabi/4.8.3/../../../../arm-none-eabi/lib/armv7e-m/fpu\libc_s.a(lib_a-vfprintf.o) (__swbuf_r)
c:/users/haris/appdata/local/arduino15/packages/arduino/tools/arm-none-eabi-gcc/4.8.3-2014q1/bin/../lib/gcc/arm-none-eabi/4.8.3/../../../../arm-none-eabi/lib/armv7e-m/fpu\libc_s.a(lib_a-wsetup.o)
                              c:/users/haris/appdata/local/arduino15/packages/arduino/tools/arm-none-eabi-gcc/4.8.3-2014q1/bin/../lib/gcc/arm-none-eabi/4.8.3/../../../../arm-none-eabi/lib/armv7e-m/fpu\libc_s.a(lib_a-vfprintf.o) (__swsetup_r)
c:/users/haris/appdata/local/arduino15/packages/arduino/tools/arm-none-eabi-gcc/4.8.3-2014q1/bin/../lib/gcc/arm-none-eabi/4.8.3/../../../../arm-none-eabi/lib/armv7e-m/fpu\libc_s.a(lib_a-abort.o)
                              c:/users/haris/appdata/local/arduino15/packages/arduino/tools/arm-none-eabi-gcc/4.8.3-2014q1/bin/../lib/gcc/arm-none-eabi/4.8.3/../../../../arm-none-eabi/lib/armv7e-m/fpu\libc_s.a(lib_a-assert.o) (abort)
c:/users/haris/appdata/local/arduino15/packages/arduino/tools/arm-none-eabi-gcc/4.8.3-2014q1/bin/../lib/gcc/arm-none-eabi/4.8.3/../../../../arm-none-eabi/lib/armv7e-m/fpu\libc_s.a(lib_a-fflush.o)
                              c:/users/haris/appdata/local/arduino15/packages/arduino/tools/arm-none-eabi-gcc/4.8.3-2014q1/bin/../lib/gcc/arm-none-eabi/4.8.3/../../../../arm-none-eabi/lib/armv7e-m/fpu\libc_s.a(lib_a-wbuf.o) (_fflush_r)
c:/users/haris/appdata/local/arduino15/packages/arduino/tools/arm-none-eabi-gcc/4.8.3-2014q1/bin/../lib/gcc/arm-none-eabi/4.8.3/../../../../arm-none-eabi/lib/armv7e-m/fpu\libc_s.a(lib_a-findfp.o)
                              c:/users/haris/appdata/local/arduino15/packages/arduino/tools/arm-none-eabi-gcc/4.8.3-2014q1/bin/../lib/gcc/arm-none-eabi/4.8.3/../../../../arm-none-eabi/lib/armv7e-m/fpu\libc_s.a(lib_a-vfprintf.o) (__sinit)
c:/users/haris/appdata/local/arduino15/packages/arduino/tools/arm-none-eabi-gcc/4.8.3-2014q1/bin/../lib/gcc/arm-none-eabi/4.8.3/../../../../arm-none-eabi/lib/armv7e-m/fpu\libc_s.a(lib_a-fvwrite.o)
                              c:/users/haris/appdata/local/arduino15/packages/arduino/tools/arm-none-eabi-gcc/4.8.3-2014q1/bin/../lib/gcc/arm-none-eabi/4.8.3/../../../../arm-none-eabi/lib/armv7e-m/fpu\libc_s.a(lib_a-vfprintf.o) (__sfvwrite_r)
c:/users/haris/appdata/local/arduino15/packages/arduino/tools/arm-none-eabi-gcc/4.8.3-2014q1/bin/../lib/gcc/arm-none-eabi/4.8.3/../../../../arm-none-eabi/lib/armv7e-m/fpu\libc_s.a(lib_a-fwalk.o)
                              c:/users/haris/appdata/local/arduino15/packages/arduino/tools/arm-none-eabi-gcc/4.8.3-2014q1/bin/../lib/gcc/arm-none-eabi/4.8.3/../../../../arm-none-eabi/lib/armv7e-m/fpu\libc_s.a(lib_a-findfp.o) (_fwalk)
c:/users/haris/appdata/local/arduino15/packages/arduino/tools/arm-none-eabi-gcc/4.8.3-2014q1/bin/../lib/gcc/arm-none-eabi/4.8.3/../../../../arm-none-eabi/lib/armv7e-m/fpu\libc_s.a(lib_a-makebuf.o)
                              c:/users/haris/appdata/local/arduino15/packages/arduino/tools/arm-none-eabi-gcc/4.8.3-2014q1/bin/../lib/gcc/arm-none-eabi/4.8.3/../../../../arm-none-eabi/lib/armv7e-m/fpu\libc_s.a(lib_a-wsetup.o) (__smakebuf_r)
c:/users/haris/appdata/local/arduino15/packages/arduino/tools/arm-none-eabi-gcc/4.8.3-2014q1/bin/../lib/gcc/arm-none-eabi/4.8.3/../../../../arm-none-eabi/lib/armv7e-m/fpu\libc_s.a(lib_a-memchr-stub.o)
                              c:/users/haris/appdata/local/arduino15/packages/arduino/tools/arm-none-eabi-gcc/4.8.3-2014q1/bin/../lib/gcc/arm-none-eabi/4.8.3/../../../../arm-none-eabi/lib/armv7e-m/fpu\libc_s.a(lib_a-vfprintf.o) (memchr)
c:/users/haris/appdata/local/arduino15/packages/arduino/tools/arm-none-eabi-gcc/4.8.3-2014q1/bin/../lib/gcc/arm-none-eabi/4.8.3/../../../../arm-none-eabi/lib/armv7e-m/fpu\libc_s.a(lib_a-memmove.o)
                              c:/users/haris/appdata/local/arduino15/packages/arduino/tools/arm-none-eabi-gcc/4.8.3-2014q1/bin/../lib/gcc/arm-none-eabi/4.8.3/../../../../arm-none-eabi/lib/armv7e-m/fpu\libc_s.a(lib_a-fvwrite.o) (memmove)
c:/users/haris/appdata/local/arduino15/packages/arduino/tools/arm-none-eabi-gcc/4.8.3-2014q1/bin/../lib/gcc/arm-none-eabi/4.8.3/../../../../arm-none-eabi/lib/armv7e-m/fpu\libc_s.a(lib_a-nano-reallocr.o)
                              c:/users/haris/appdata/local/arduino15/packages/arduino/tools/arm-none-eabi-gcc/4.8.3-2014q1/bin/../lib/gcc/arm-none-eabi/4.8.3/../../../../arm-none-eabi/lib/armv7e-m/fpu\libc_s.a(lib_a-fvwrite.o) (_realloc_r)
c:/users/haris/appdata/local/arduino15/packages/arduino/tools/arm-none-eabi-gcc/4.8.3-2014q1/bin/../lib/gcc/arm-none-eabi/4.8.3/../../../../arm-none-eabi/lib/armv7e-m/fpu\libc_s.a(lib_a-reent.o)
                              c:/users/haris/appdata/local/arduino15/packages/arduino/tools/arm-none-eabi-gcc/4.8.3-2014q1/bin/../lib/gcc/arm-none-eabi/4.8.3/../../../../arm-none-eabi/lib/armv7e-m/fpu\libc_s.a(lib_a-sbrkr.o) (errno)
c:/users/haris/appdata/local/arduino15/packages/arduino/tools/arm-none-eabi-gcc/4.8.3-2014q1/bin/../lib/gcc/arm-none-eabi/4.8.3/../../../../arm-none-eabi/lib/armv7e-m/fpu\libc_s.a(lib_a-signal.o)
                              c:/users/haris/appdata/local/arduino15/packages/arduino/tools/arm-none-eabi-gcc/4.8.3-2014q1/bin/../lib/gcc/arm-none-eabi/4.8.3/../../../../arm-none-eabi/lib/armv7e-m/fpu\libc_s.a(lib_a-abort.o) (raise)
c:/users/haris/appdata/local/arduino15/packages/arduino/tools/arm-none-eabi-gcc/4.8.3-2014q1/bin/../lib/gcc/arm-none-eabi/4.8.3/../../../../arm-none-eabi/lib/armv7e-m/fpu\libc_s.a(lib_a-signalr.o)
                              c:/users/haris/appdata/local/arduino15/packages/arduino/tools/arm-none-eabi-gcc/4.8.3-2014q1/bin/../lib/gcc/arm-none-eabi/4.8.3/../../../../arm-none-eabi/lib/armv7e-m/fpu\libc_s.a(lib_a-signal.o) (_kill_r)
c:/users/haris/appdata/local/arduino15/packages/arduino/tools/arm-none-eabi-gcc/4.8.3-2014q1/bin/../lib/gcc/arm-none-eabi/4.8.3/../../../../arm-none-eabi/lib/armv7e-m/fpu\libc_s.a(lib_a-stdio.o)
                              c:/users/haris/appdata/local/arduino15/packages/arduino/tools/arm-none-eabi-gcc/4.8.3-2014q1/bin/../lib/gcc/arm-none-eabi/4.8.3/../../../../arm-none-eabi/lib/armv7e-m/fpu\libc_s.a(lib_a-findfp.o) (__sread)
c:/users/haris/appdata/local/arduino15/packages/arduino/tools/arm-none-eabi-gcc/4.8.3-2014q1/bin/../lib/gcc/arm-none-eabi/4.8.3/../../../../arm-none-eabi/lib/armv7e-m/fpu\libc_s.a(lib_a-writer.o)
                              c:/users/haris/appdata/local/arduino15/packages/arduino/tools/arm-none-eabi-gcc/4.8.3-2014q1/bin/../lib/gcc/arm-none-eabi/4.8.3/../../../../arm-none-eabi/lib/armv7e-m/fpu\libc_s.a(lib_a-stdio.o) (_write_r)
c:/users/haris/appdata/local/arduino15/packages/arduino/tools/arm-none-eabi-gcc/4.8.3-2014q1/bin/../lib/gcc/arm-none-eabi/4.8.3/../../../../arm-none-eabi/lib/armv7e-m/fpu\libc_s.a(lib_a-closer.o)
                              c:/users/haris/appdata/local/arduino15/packages/arduino/tools/arm-none-eabi-gcc/4.8.3-2014q1/bin/../lib/gcc/arm-none-eabi/4.8.3/../../../../arm-none-eabi/lib/armv7e-m/fpu\libc_s.a(lib_a-stdio.o) (_close_r)
c:/users/haris/appdata/local/arduino15/packages/arduino/tools/arm-none-eabi-gcc/4.8.3-2014q1/bin/../lib/gcc/arm-none-eabi/4.8.3/../../../../arm-none-eabi/lib/armv7e-m/fpu\libc_s.a(lib_a-fstatr.o)
                              c:/users/haris/appdata/local/arduino15/packages/arduino/tools/arm-none-eabi-gcc/4.8.3-2014q1/bin/../lib/gcc/arm-none-eabi/4.8.3/../../../../arm-none-eabi/lib/armv7e-m/fpu\libc_s.a(lib_a-makebuf.o) (_fstat_r)
c:/users/haris/appdata/local/arduino15/packages/arduino/tools/arm-none-eabi-gcc/4.8.3-2014q1/bin/../lib/gcc/arm-none-eabi/4.8.3/../../../../arm-none-eabi/lib/armv7e-m/fpu\libc_s.a(lib_a-isattyr.o)
                              c:/users/haris/appdata/local/arduino15/packages/arduino/tools/arm-none-eabi-gcc/4.8.3-2014q1/bin/../lib/gcc/arm-none-eabi/4.8.3/../../../../arm-none-eabi/lib/armv7e-m/fpu\libc_s.a(lib_a-makebuf.o) (_isatty_r)
c:/users/haris/appdata/local/arduino15/packages/arduino/tools/arm-none-eabi-gcc/4.8.3-2014q1/bin/../lib/gcc/arm-none-eabi/4.8.3/../../../../arm-none-eabi/lib/armv7e-m/fpu\libc_s.a(lib_a-lseekr.o)
                              c:/users/haris/appdata/local/arduino15/packages/arduino/tools/arm-none-eabi-gcc/4.8.3-2014q1/bin/../lib/gcc/arm-none-eabi/4.8.3/../../../../arm-none-eabi/lib/armv7e-m/fpu\libc_s.a(lib_a-stdio.o) (_lseek_r)
c:/users/haris/appdata/local/arduino15/packages/arduino/tools/arm-none-eabi-gcc/4.8.3-2014q1/bin/../lib/gcc/arm-none-eabi/4.8.3/../../../../arm-none-eabi/lib/armv7e-m/fpu\libc_s.a(lib_a-nano-msizer.o)
                              c:/users/haris/appdata/local/arduino15/packages/arduino/tools/arm-none-eabi-gcc/4.8.3-2014q1/bin/../lib/gcc/arm-none-eabi/4.8.3/../../../../arm-none-eabi/lib/armv7e-m/fpu\libc_s.a(lib_a-nano-reallocr.o) (_malloc_usable_size_r)
c:/users/haris/appdata/local/arduino15/packages/arduino/tools/arm-none-eabi-gcc/4.8.3-2014q1/bin/../lib/gcc/arm-none-eabi/4.8.3/../../../../arm-none-eabi/lib/armv7e-m/fpu\libc_s.a(lib_a-readr.o)
                              c:/users/haris/appdata/local/arduino15/packages/arduino/tools/arm-none-eabi-gcc/4.8.3-2014q1/bin/../lib/gcc/arm-none-eabi/4.8.3/../../../../arm-none-eabi/lib/armv7e-m/fpu\libc_s.a(lib_a-stdio.o) (_read_r)
c:/users/haris/appdata/local/arduino15/packages/arduino/tools/arm-none-eabi-gcc/4.8.3-2014q1/bin/../lib/gcc/arm-none-eabi/4.8.3/../../../../arm-none-eabi/lib/armv7e-m/fpu\libnosys.a(close.o)
                              c:/users/haris/appdata/local/arduino15/packages/arduino/tools/arm-none-eabi-gcc/4.8.3-2014q1/bin/../lib/gcc/arm-none-eabi/4.8.3/../../../../arm-none-eabi/lib/armv7e-m/fpu\libc_s.a(lib_a-closer.o) (_close)
c:/users/haris/appdata/local/arduino15/packages/arduino/tools/arm-none-eabi-gcc/4.8.3-2014q1/bin/../lib/gcc/arm-none-eabi/4.8.3/../../../../arm-none-eabi/lib/armv7e-m/fpu\libnosys.a(fstat.o)
                              c:/users/haris/appdata/local/arduino15/packages/arduino/tools/arm-none-eabi-gcc/4.8.3-2014q1/bin/../lib/gcc/arm-none-eabi/4.8.3/../../../../arm-none-eabi/lib/armv7e-m/fpu\libc_s.a(lib_a-fstatr.o) (_fstat)
c:/users/haris/appdata/local/arduino15/packages/arduino/tools/arm-none-eabi-gcc/4.8.3-2014q1/bin/../lib/gcc/arm-none-eabi/4.8.3/../../../../arm-none-eabi/lib/armv7e-m/fpu\libnosys.a(getpid.o)
                              c:/users/haris/appdata/local/arduino15/packages/arduino/tools/arm-none-eabi-gcc/4.8.3-2014q1/bin/../lib/gcc/arm-none-eabi/4.8.3/../../../../arm-none-eabi/lib/armv7e-m/fpu\libc_s.a(lib_a-signalr.o) (_getpid)
c:/users/haris/appdata/local/arduino15/packages/arduino/tools/arm-none-eabi-gcc/4.8.3-2014q1/bin/../lib/gcc/arm-none-eabi/4.8.3/../../../../arm-none-eabi/lib/armv7e-m/fpu\libnosys.a(isatty.o)
                              c:/users/haris/appdata/local/arduino15/packages/arduino/tools/arm-none-eabi-gcc/4.8.3-2014q1/bin/../lib/gcc/arm-none-eabi/4.8.3/../../../../arm-none-eabi/lib/armv7e-m/fpu\libc_s.a(lib_a-isattyr.o) (_isatty)
c:/users/haris/appdata/local/arduino15/packages/arduino/tools/arm-none-eabi-gcc/4.8.3-2014q1/bin/../lib/gcc/arm-none-eabi/4.8.3/../../../../arm-none-eabi/lib/armv7e-m/fpu\libnosys.a(kill.o)
                              c:/users/haris/appdata/local/arduino15/packages/arduino/tools/arm-none-eabi-gcc/4.8.3-2014q1/bin/../lib/gcc/arm-none-eabi/4.8.3/../../../../arm-none-eabi/lib/armv7e-m/fpu\libc_s.a(lib_a-signalr.o) (_kill)
c:/users/haris/appdata/local/arduino15/packages/arduino/tools/arm-none-eabi-gcc/4.8.3-2014q1/bin/../lib/gcc/arm-none-eabi/4.8.3/../../../../arm-none-eabi/lib/armv7e-m/fpu\libnosys.a(lseek.o)
                              c:/users/haris/appdata/local/arduino15/packages/arduino/tools/arm-none-eabi-gcc/4.8.3-2014q1/bin/../lib/gcc/arm-none-eabi/4.8.3/../../../../arm-none-eabi/lib/armv7e-m/fpu\libc_s.a(lib_a-lseekr.o) (_lseek)
c:/users/haris/appdata/local/arduino15/packages/arduino/tools/arm-none-eabi-gcc/4.8.3-2014q1/bin/../lib/gcc/arm-none-eabi/4.8.3/../../../../arm-none-eabi/lib/armv7e-m/fpu\libnosys.a(read.o)
                              c:/users/haris/appdata/local/arduino15/packages/arduino/tools/arm-none-eabi-gcc/4.8.3-2014q1/bin/../lib/gcc/arm-none-eabi/4.8.3/../../../../arm-none-eabi/lib/armv7e-m/fpu\libc_s.a(lib_a-readr.o) (_read)
c:/users/haris/appdata/local/arduino15/packages/arduino/tools/arm-none-eabi-gcc/4.8.3-2014q1/bin/../lib/gcc/arm-none-eabi/4.8.3/../../../../arm-none-eabi/lib/armv7e-m/fpu\libnosys.a(sbrk.o)
                              c:/users/haris/appdata/local/arduino15/packages/arduino/tools/arm-none-eabi-gcc/4.8.3-2014q1/bin/../lib/gcc/arm-none-eabi/4.8.3/../../../../arm-none-eabi/lib/armv7e-m/fpu\libc_s.a(lib_a-sbrkr.o) (_sbrk)
c:/users/haris/appdata/local/arduino15/packages/arduino/tools/arm-none-eabi-gcc/4.8.3-2014q1/bin/../lib/gcc/arm-none-eabi/4.8.3/../../../../arm-none-eabi/lib/armv7e-m/fpu\libnosys.a(write.o)
                              c:/users/haris/appdata/local/arduino15/packages/arduino/tools/arm-none-eabi-gcc/4.8.3-2014q1/bin/../lib/gcc/arm-none-eabi/4.8.3/../../../../arm-none-eabi/lib/armv7e-m/fpu\libc_s.a(lib_a-writer.o) (_write)
c:/users/haris/appdata/local/arduino15/packages/arduino/tools/arm-none-eabi-gcc/4.8.3-2014q1/bin/../lib/gcc/arm-none-eabi/4.8.3/../../../../arm-none-eabi/lib/armv7e-m/fpu\libnosys.a(_exit.o)
                              c:/users/haris/appdata/local/arduino15/packages/arduino/tools/arm-none-eabi-gcc/4.8.3-2014q1/bin/../lib/gcc/arm-none-eabi/4.8.3/../../../../arm-none-eabi/lib/armv7e-m/fpu\libc_s.a(lib_a-exit.o) (_exit)

Allocating common symbols
Common symbol       size              file

errno               0x4               c:/users/haris/appdata/local/arduino15/packages/arduino/tools/arm-none-eabi-gcc/4.8.3-2014q1/bin/../lib/gcc/arm-none-eabi/4.8.3/../../../../arm-none-eabi/lib/armv7e-m/fpu\libc_s.a(lib_a-reent.o)

Discarded input sections

 .text          0x00000000        0x0 c:/users/haris/appdata/local/arduino15/packages/arduino/tools/arm-none-eabi-gcc/4.8.3-2014q1/bin/../lib/gcc/arm-none-eabi/4.8.3/armv7e-m/fpu/crti.o
 .data          0x00000000        0x0 c:/users/haris/appdata/local/arduino15/packages/arduino/tools/arm-none-eabi-gcc/4.8.3-2014q1/bin/../lib/gcc/arm-none-eabi/4.8.3/armv7e-m/fpu/crti.o
 .bss           0x00000000        0x0 c:/users/haris/appdata/local/arduino15/packages/arduino/tools/arm-none-eabi-gcc/4.8.3-2014q1/bin/../lib/gcc/arm-none-eabi/4.8.3/armv7e-m/fpu/crti.o
 .data          0x00000000        0x4 c:/users/haris/appdata/local/arduino15/packages/arduino/tools/arm-none-eabi-gcc/4.8.3-2014q1/bin/../lib/gcc/arm-none-eabi/4.8.3/armv7e-m/fpu/crtbegin.o
 .text          0x00000000       0x74 c:/users/haris/appdata/local/arduino15/packages/arduino/tools/arm-none-eabi-gcc/4.8.3-2014q1/bin/../lib/gcc/arm-none-eabi/4.8.3/../../../../arm-none-eabi/lib/armv7e-m/fpu/crt0.o
 .data          0x00000000        0x0 c:/users/haris/appdata/local/arduino15/packages/arduino/tools/arm-none-eabi-gcc/4.8.3-2014q1/bin/../lib/gcc/arm-none-eabi/4.8.3/../../../../arm-none-eabi/lib/armv7e-m/fpu/crt0.o
 .bss           0x00000000        0x0 c:/users/haris/appdata/local/arduino15/packages/arduino/tools/arm-none-eabi-gcc/4.8.3-2014q1/bin/../lib/gcc/arm-none-eabi/4.8.3/../../../../arm-none-eabi/lib/armv7e-m/fpu/crt0.o
 .ARM.extab     0x00000000        0x0 c:/users/haris/appdata/local/arduino15/packages/arduino/tools/arm-none-eabi-gcc/4.8.3-2014q1/bin/../lib/gcc/arm-none-eabi/4.8.3/../../../../arm-none-eabi/lib/armv7e-m/fpu/crt0.o
 .ARM.exidx     0x00000000        0x8 c:/users/haris/appdata/local/arduino15/packages/arduino/tools/arm-none-eabi-gcc/4.8.3-2014q1/bin/../lib/gcc/arm-none-eabi/4.8.3/../../../../arm-none-eabi/lib/armv7e-m/fpu/crt0.o
 .ARM.attributes
                0x00000000       0x20 c:/users/haris/appdata/local/arduino15/packages/arduino/tools/arm-none-eabi-gcc/4.8.3-2014q1/bin/../lib/gcc/arm-none-eabi/4.8.3/../../../../arm-none-eabi/lib/armv7e-m/fpu/crt0.o
 .group         0x00000000        0x8 C:\Users\Haris\AppData\Local\Temp\VMBuilds\Main_Siemens_Automation_824MSPe\haeger_haeger_samd_haeger_mcu1\Debug\Main_Siemens_Automation_824MSPe.cpp.o
 .group         0x00000000        0x8 C:\Users\Haris\AppData\Local\Temp\VMBuilds\Main_Siemens_Automation_824MSPe\haeger_haeger_samd_haeger_mcu1\Debug\Main_Siemens_Automation_824MSPe.cpp.o
 .group         0x00000000        0x8 C:\Users\Haris\AppData\Local\Temp\VMBuilds\Main_Siemens_Automation_824MSPe\haeger_haeger_samd_haeger_mcu1\Debug\Main_Siemens_Automation_824MSPe.cpp.o
 .group         0x00000000        0x8 C:\Users\Haris\AppData\Local\Temp\VMBuilds\Main_Siemens_Automation_824MSPe\haeger_haeger_samd_haeger_mcu1\Debug\Main_Siemens_Automation_824MSPe.cpp.o
 .group         0x00000000        0x8 C:\Users\Haris\AppData\Local\Temp\VMBuilds\Main_Siemens_Automation_824MSPe\haeger_haeger_samd_haeger_mcu1\Debug\Main_Siemens_Automation_824MSPe.cpp.o
 .group         0x00000000        0x8 C:\Users\Haris\AppData\Local\Temp\VMBuilds\Main_Siemens_Automation_824MSPe\haeger_haeger_samd_haeger_mcu1\Debug\Main_Siemens_Automation_824MSPe.cpp.o
 .group         0x00000000        0x8 C:\Users\Haris\AppData\Local\Temp\VMBuilds\Main_Siemens_Automation_824MSPe\haeger_haeger_samd_haeger_mcu1\Debug\Main_Siemens_Automation_824MSPe.cpp.o
Memory Configuration

Name             Origin             Length             Attributes
FLASH            0x00004000         0x0007c000         xr
RAM              0x20000000         0x00030000         xrw
*default*        0x00000000         0xffffffff

Linker script and memory map

LOAD c:/users/haris/appdata/local/arduino15/packages/arduino/tools/arm-none-eabi-gcc/4.8.3-2014q1/bin/../lib/gcc/arm-none-eabi/4.8.3/armv7e-m/fpu/crti.o
LOAD c:/users/haris/appdata/local/arduino15/packages/arduino/tools/arm-none-eabi-gcc/4.8.3-2014q1/bin/../lib/gcc/arm-none-eabi/4.8.3/armv7e-m/fpu/crtbegin.o
LOAD c:/users/haris/appdata/local/arduino15/packages/arduino/tools/arm-none-eabi-gcc/4.8.3-2014q1/bin/../lib/gcc/arm-none-eabi/4.8.3/../../../../arm-none-eabi/lib/armv7e-m/fpu/crt0.o
LOAD C:\Users\Haris\AppData\Local\Temp\VMBuilds\Main_Siemens_Automation_824MSPe\haeger_haeger_samd_haeger_mcu1\Debug\Main_Siemens_Automation_824MSPe.cpp.o
LOAD C:\Users\Haris\AppData\Local\Temp\VMBuilds\Main_Siemens_Automation_824MSPe\haeger_haeger_samd_haeger_mcu1\Debug\Alarm_Function.cpp.o
LOAD C:\Users\Haris\AppData\Local\Temp\VMBuilds\Main_Siemens_Automation_824MSPe\haeger_haeger_samd_haeger_mcu1\Debug\Buzzer_Function.cpp.o
LOAD C:\Users\Haris\AppData\Local\Temp\VMBuilds\Main_Siemens_Automation_824MSPe\haeger_haeger_samd_haeger_mcu1\Debug\Bypass_Function.cpp.o
LOAD C:\Users\Haris\AppData\Local\Temp\VMBuilds\Main_Siemens_Automation_824MSPe\haeger_haeger_samd_haeger_mcu1\Debug\Conductive_Mode_Function.cpp.o
LOAD C:\Users\Haris\AppData\Local\Temp\VMBuilds\Main_Siemens_Automation_824MSPe\haeger_haeger_samd_haeger_mcu1\Debug\Footpedal_Function.cpp.o
LOAD C:\Users\Haris\AppData\Local\Temp\VMBuilds\Main_Siemens_Automation_824MSPe\haeger_haeger_samd_haeger_mcu1\Debug\Force_Function.cpp.o
LOAD C:\Users\Haris\AppData\Local\Temp\VMBuilds\Main_Siemens_Automation_824MSPe\haeger_haeger_samd_haeger_mcu1\Debug\Hydraulic_Cylinder_Function.cpp.o
LOAD C:\Users\Haris\AppData\Local\Temp\VMBuilds\Main_Siemens_Automation_824MSPe\haeger_haeger_samd_haeger_mcu1\Debug\Hydraulic_Start_Function.cpp.o
LOAD C:\Users\Haris\AppData\Local\Temp\VMBuilds\Main_Siemens_Automation_824MSPe\haeger_haeger_samd_haeger_mcu1\Debug\Initialization_Function.cpp.o
LOAD C:\Users\Haris\AppData\Local\Temp\VMBuilds\Main_Siemens_Automation_824MSPe\haeger_haeger_samd_haeger_mcu1\Debug\Laser_Light_Function.cpp.o
LOAD C:\Users\Haris\AppData\Local\Temp\VMBuilds\Main_Siemens_Automation_824MSPe\haeger_haeger_samd_haeger_mcu1\Debug\Machine_State_Function.cpp.o
LOAD C:\Users\Haris\AppData\Local\Temp\VMBuilds\Main_Siemens_Automation_824MSPe\haeger_haeger_samd_haeger_mcu1\Debug\MCU_Version_Function.cpp.o
LOAD C:\Users\Haris\AppData\Local\Temp\VMBuilds\Main_Siemens_Automation_824MSPe\haeger_haeger_samd_haeger_mcu1\Debug\Non_Conductive_Mode_Function.cpp.o
LOAD C:\Users\Haris\AppData\Local\Temp\VMBuilds\Main_Siemens_Automation_824MSPe\haeger_haeger_samd_haeger_mcu1\Debug\Robot_Communication_Function.cpp.o
LOAD C:\Users\Haris\AppData\Local\Temp\VMBuilds\Main_Siemens_Automation_824MSPe\haeger_haeger_samd_haeger_mcu1\Debug\Robot_Lower_Tool_Pin_Function.cpp.o
LOAD C:\Users\Haris\AppData\Local\Temp\VMBuilds\Main_Siemens_Automation_824MSPe\haeger_haeger_samd_haeger_mcu1\Debug\Safety_Block_Function.cpp.o
LOAD C:\Users\Haris\AppData\Local\Temp\VMBuilds\Main_Siemens_Automation_824MSPe\haeger_haeger_samd_haeger_mcu1\Debug\Safety_Sensor_State_Function.cpp.o
LOAD C:\Users\Haris\AppData\Local\Temp\VMBuilds\Main_Siemens_Automation_824MSPe\haeger_haeger_samd_haeger_mcu1\Debug\Timer_Function.cpp.o
LOAD C:\Users\Haris\AppData\Local\Temp\VMBuilds\Main_Siemens_Automation_824MSPe\haeger_haeger_samd_haeger_mcu1\Debug\Tooling_Protection_Sytem_Function.cpp.o
LOAD C:\Users\Haris\AppData\Local\Temp\VMBuilds\Main_Siemens_Automation_824MSPe\haeger_haeger_samd_haeger_mcu1\Debug\Toolingcontact_Function.cpp.o
LOAD C:\Users\Haris\AppData\Local\Temp\VMBuilds\Main_Siemens_Automation_824MSPe\haeger_haeger_samd_haeger_mcu1\Debug\Top_Of_Stroke_Function.cpp.o
LOAD C:\Users\Haris\AppData\Local\Temp\VMBuilds\Main_Siemens_Automation_824MSPe\haeger_haeger_samd_haeger_mcu1\Debug\Work_Light_Function.cpp.o
LOAD C:\Users\Haris\AppData\Local\Temp\VMBuilds\Main_Siemens_Automation_824MSPe\haeger_haeger_samd_haeger_mcu1\Debug\ResponsiveAnalogRead\ResponsiveAnalogRead.cpp.o
LOAD C:\Users\Haris\AppData\Local\Temp\VMBuilds\Main_Siemens_Automation_824MSPe\haeger_haeger_samd_haeger_mcu1\Debug\MCP23S17-master\MCP23S17.cpp.o
LOAD C:\Users\Haris\AppData\Local\Temp\VMBuilds\Main_Siemens_Automation_824MSPe\haeger_haeger_samd_haeger_mcu1\Debug\SPI\SPI.cpp.o
LOAD C:\Users\Haris\AppData\Local\Temp\VMBCore\visualmicro\276ac5ba6e45f5143b737d9f0d9df4e9\variant\variant.cpp.o
START GROUP
LOAD C:\Users\Haris\Documents\Arduino\hardware\haeger\samd\variants\haeger_mcu1\libarm_cortexM4lf_math.a
LOAD c:/users/haris/appdata/local/arduino15/packages/arduino/tools/arm-none-eabi-gcc/4.8.3-2014q1/bin/../lib/gcc/arm-none-eabi/4.8.3/../../../../arm-none-eabi/lib/armv7e-m/fpu\libm.a
LOAD C:\Users\Haris\AppData\Local\Temp\VMBuilds\Main_Siemens_Automation_824MSPe\haeger_haeger_samd_haeger_mcu1\Debug/core.a
END GROUP
START GROUP
LOAD c:/users/haris/appdata/local/arduino15/packages/arduino/tools/arm-none-eabi-gcc/4.8.3-2014q1/bin/../lib/gcc/arm-none-eabi/4.8.3/armv7e-m/fpu\libgcc.a
LOAD c:/users/haris/appdata/local/arduino15/packages/arduino/tools/arm-none-eabi-gcc/4.8.3-2014q1/bin/../lib/gcc/arm-none-eabi/4.8.3/../../../../arm-none-eabi/lib/armv7e-m/fpu\libc_s.a
END GROUP
START GROUP
LOAD c:/users/haris/appdata/local/arduino15/packages/arduino/tools/arm-none-eabi-gcc/4.8.3-2014q1/bin/../lib/gcc/arm-none-eabi/4.8.3/armv7e-m/fpu\libgcc.a
LOAD c:/users/haris/appdata/local/arduino15/packages/arduino/tools/arm-none-eabi-gcc/4.8.3-2014q1/bin/../lib/gcc/arm-none-eabi/4.8.3/../../../../arm-none-eabi/lib/armv7e-m/fpu\libc_s.a
LOAD c:/users/haris/appdata/local/arduino15/packages/arduino/tools/arm-none-eabi-gcc/4.8.3-2014q1/bin/../lib/gcc/arm-none-eabi/4.8.3/../../../../arm-none-eabi/lib/armv7e-m/fpu\libnosys.a
END GROUP
START GROUP
LOAD c:/users/haris/appdata/local/arduino15/packages/arduino/tools/arm-none-eabi-gcc/4.8.3-2014q1/bin/../lib/gcc/arm-none-eabi/4.8.3/armv7e-m/fpu\libgcc.a
LOAD c:/users/haris/appdata/local/arduino15/packages/arduino/tools/arm-none-eabi-gcc/4.8.3-2014q1/bin/../lib/gcc/arm-none-eabi/4.8.3/../../../../arm-none-eabi/lib/armv7e-m/fpu\libc_s.a
LOAD c:/users/haris/appdata/local/arduino15/packages/arduino/tools/arm-none-eabi-gcc/4.8.3-2014q1/bin/../lib/gcc/arm-none-eabi/4.8.3/../../../../arm-none-eabi/lib/armv7e-m/fpu\libnosys.a
END GROUP
LOAD c:/users/haris/appdata/local/arduino15/packages/arduino/tools/arm-none-eabi-gcc/4.8.3-2014q1/bin/../lib/gcc/arm-none-eabi/4.8.3/armv7e-m/fpu/crtend.o
LOAD c:/users/haris/appdata/local/arduino15/packages/arduino/tools/arm-none-eabi-gcc/4.8.3-2014q1/bin/../lib/gcc/arm-none-eabi/4.8.3/armv7e-m/fpu/crtn.o

.text           0x00004000     0x50a4
                0x00004000                __text_start__ = .
 *(.sketch_boot)
                0x00004000                . = ALIGN (0x4000)
 *(.isr_vector)
 .isr_vector    0x00004000      0x264 C:\Users\Haris\AppData\Local\Temp\VMBuilds\Main_Siemens_Automation_824MSPe\haeger_haeger_samd_haeger_mcu1\Debug/core.a(cortex_handlers.c.o)
                0x00004000                exception_table
 *(.text*)
 .text          0x00004264       0x54 c:/users/haris/appdata/local/arduino15/packages/arduino/tools/arm-none-eabi-gcc/4.8.3-2014q1/bin/../lib/gcc/arm-none-eabi/4.8.3/armv7e-m/fpu/crtbegin.o
 .text._ZNK10ModbusPort9drainReadEv
                0x000042b8       0x12 C:\Users\Haris\AppData\Local\Temp\VMBuilds\Main_Siemens_Automation_824MSPe\haeger_haeger_samd_haeger_mcu1\Debug\Main_Siemens_Automation_824MSPe.cpp.o
                0x000042b8                ModbusPort::drainRead() const
 .text._ZNK10ModbusPort5flushEv
                0x000042ca        0xa C:\Users\Haris\AppData\Local\Temp\VMBuilds\Main_Siemens_Automation_824MSPe\haeger_haeger_samd_haeger_mcu1\Debug\Main_Siemens_Automation_824MSPe.cpp.o
                0x000042ca                ModbusPort::flush() const
 .text._ZNK12ModbusSerialI7Serial_E9availableEv
                0x000042d4        0xc C:\Users\Haris\AppData\Local\Temp\VMBuilds\Main_Siemens_Automation_824MSPe\haeger_haeger_samd_haeger_mcu1\Debug\Main_Siemens_Automation_824MSPe.cpp.o
                0x000042d4                ModbusSerial<Serial_>::available() const
 .text._ZNK12ModbusSerialI7Serial_E4readEv
                0x000042e0        0xc C:\Users\Haris\AppData\Local\Temp\VMBuilds\Main_Siemens_Automation_824MSPe\haeger_haeger_samd_haeger_mcu1\Debug\Main_Siemens_Automation_824MSPe.cpp.o
                0x000042e0                ModbusSerial<Serial_>::read() const
 .text._ZNK12ModbusSerialI7Serial_E5writeEPKhj
                0x000042ec        0xc C:\Users\Haris\AppData\Local\Temp\VMBuilds\Main_Siemens_Automation_824MSPe\haeger_haeger_samd_haeger_mcu1\Debug\Main_Siemens_Automation_824MSPe.cpp.o
                0x000042ec                ModbusSerial<Serial_>::write(unsigned char const*, unsigned int) const
 .text._ZNK12ModbusSerialI7Serial_E10drainWriteEv
                0x000042f8        0xc C:\Users\Haris\AppData\Local\Temp\VMBuilds\Main_Siemens_Automation_824MSPe\haeger_haeger_samd_haeger_mcu1\Debug\Main_Siemens_Automation_824MSPe.cpp.o
                0x000042f8                ModbusSerial<Serial_>::drainWrite() const
 .text._ZNK12ModbusSerialI7Serial_E5beginEm
                0x00004304        0x6 C:\Users\Haris\AppData\Local\Temp\VMBuilds\Main_Siemens_Automation_824MSPe\haeger_haeger_samd_haeger_mcu1\Debug\Main_Siemens_Automation_824MSPe.cpp.o
                0x00004304                ModbusSerial<Serial_>::begin(unsigned long) const
 .text._ZNK12ModbusSerialI7Serial_E5beginEmt
                0x0000430a        0x8 C:\Users\Haris\AppData\Local\Temp\VMBuilds\Main_Siemens_Automation_824MSPe\haeger_haeger_samd_haeger_mcu1\Debug\Main_Siemens_Automation_824MSPe.cpp.o
                0x0000430a                ModbusSerial<Serial_>::begin(unsigned long, unsigned short) const
 .text._ZN6Modbus5beginEP10ModbusPortmt
                0x00004312       0x4a C:\Users\Haris\AppData\Local\Temp\VMBuilds\Main_Siemens_Automation_824MSPe\haeger_haeger_samd_haeger_mcu1\Debug\Main_Siemens_Automation_824MSPe.cpp.o
                0x00004312                Modbus::begin(ModbusPort*, unsigned long, unsigned short)
 .text._ZN6Modbus5beginEP10ModbusPortm
                0x0000435c        0x8 C:\Users\Haris\AppData\Local\Temp\VMBuilds\Main_Siemens_Automation_824MSPe\haeger_haeger_samd_haeger_mcu1\Debug\Main_Siemens_Automation_824MSPe.cpp.o
                0x0000435c                Modbus::begin(ModbusPort*, unsigned long)
 .text._ZN6Modbus11getRxBufferER8ERR_LIST
                0x00004364       0x5c C:\Users\Haris\AppData\Local\Temp\VMBuilds\Main_Siemens_Automation_824MSPe\haeger_haeger_samd_haeger_mcu1\Debug\Main_Siemens_Automation_824MSPe.cpp.o
                0x00004364                Modbus::getRxBuffer(ERR_LIST&)
 .text._ZN6Modbus7calcCRCEh
                0x000043c0       0x3c C:\Users\Haris\AppData\Local\Temp\VMBuilds\Main_Siemens_Automation_824MSPe\haeger_haeger_samd_haeger_mcu1\Debug\Main_Siemens_Automation_824MSPe.cpp.o
                0x000043c0                Modbus::calcCRC(unsigned char)
 .text._ZN6Modbus12sendTxBufferEv
                0x000043fc       0x90 C:\Users\Haris\AppData\Local\Temp\VMBuilds\Main_Siemens_Automation_824MSPe\haeger_haeger_samd_haeger_mcu1\Debug\Main_Siemens_Automation_824MSPe.cpp.o
                0x000043fc                Modbus::sendTxBuffer()
 .text._ZN6Modbus15validateRequestEv
                0x0000448c       0xe0 C:\Users\Haris\AppData\Local\Temp\VMBuilds\Main_Siemens_Automation_824MSPe\haeger_haeger_samd_haeger_mcu1\Debug\Main_Siemens_Automation_824MSPe.cpp.o
                0x0000448c                Modbus::validateRequest()
 .text._ZN6Modbus14buildExceptionEh
                0x0000456c       0x14 C:\Users\Haris\AppData\Local\Temp\VMBuilds\Main_Siemens_Automation_824MSPe\haeger_haeger_samd_haeger_mcu1\Debug\Main_Siemens_Automation_824MSPe.cpp.o
                0x0000456c                Modbus::buildException(unsigned char)
 .text._ZN6Modbus11process_FC1EPth
                0x00004580       0xa4 C:\Users\Haris\AppData\Local\Temp\VMBuilds\Main_Siemens_Automation_824MSPe\haeger_haeger_samd_haeger_mcu1\Debug\Main_Siemens_Automation_824MSPe.cpp.o
                0x00004580                Modbus::process_FC1(unsigned short*, unsigned char)
 .text._ZN6Modbus11process_FC3EPth
                0x00004624       0x6a C:\Users\Haris\AppData\Local\Temp\VMBuilds\Main_Siemens_Automation_824MSPe\haeger_haeger_samd_haeger_mcu1\Debug\Main_Siemens_Automation_824MSPe.cpp.o
                0x00004624                Modbus::process_FC3(unsigned short*, unsigned char)
 .text._ZN6Modbus11process_FC5EPth
                0x0000468e       0x42 C:\Users\Haris\AppData\Local\Temp\VMBuilds\Main_Siemens_Automation_824MSPe\haeger_haeger_samd_haeger_mcu1\Debug\Main_Siemens_Automation_824MSPe.cpp.o
                0x0000468e                Modbus::process_FC5(unsigned short*, unsigned char)
 .text._ZN6Modbus11process_FC6EPth
                0x000046d0       0x2c C:\Users\Haris\AppData\Local\Temp\VMBuilds\Main_Siemens_Automation_824MSPe\haeger_haeger_samd_haeger_mcu1\Debug\Main_Siemens_Automation_824MSPe.cpp.o
                0x000046d0                Modbus::process_FC6(unsigned short*, unsigned char)
 .text._ZN6Modbus12process_FC15EPth
                0x000046fc       0x7a C:\Users\Haris\AppData\Local\Temp\VMBuilds\Main_Siemens_Automation_824MSPe\haeger_haeger_samd_haeger_mcu1\Debug\Main_Siemens_Automation_824MSPe.cpp.o
                0x000046fc                Modbus::process_FC15(unsigned short*, unsigned char)
 .text._ZN6Modbus12process_FC16EPth
                0x00004776       0x4a C:\Users\Haris\AppData\Local\Temp\VMBuilds\Main_Siemens_Automation_824MSPe\haeger_haeger_samd_haeger_mcu1\Debug\Main_Siemens_Automation_824MSPe.cpp.o
                0x00004776                Modbus::process_FC16(unsigned short*, unsigned char)
 .text._ZN6Modbus4pollEPth
                0x000047c0      0x102 C:\Users\Haris\AppData\Local\Temp\VMBuilds\Main_Siemens_Automation_824MSPe\haeger_haeger_samd_haeger_mcu1\Debug\Main_Siemens_Automation_824MSPe.cpp.o
                0x000047c0                Modbus::poll(unsigned short*, unsigned char)
 *fill*         0x000048c2        0x2 
 .text.setup    0x000048c4      0x224 C:\Users\Haris\AppData\Local\Temp\VMBuilds\Main_Siemens_Automation_824MSPe\haeger_haeger_samd_haeger_mcu1\Debug\Main_Siemens_Automation_824MSPe.cpp.o
                0x000048c4                setup
 .text._Z7Io_Pollv
                0x00004ae8      0x2cc C:\Users\Haris\AppData\Local\Temp\VMBuilds\Main_Siemens_Automation_824MSPe\haeger_haeger_samd_haeger_mcu1\Debug\Main_Siemens_Automation_824MSPe.cpp.o
                0x00004ae8                Io_Poll()
 .text.loop     0x00004db4      0x418 C:\Users\Haris\AppData\Local\Temp\VMBuilds\Main_Siemens_Automation_824MSPe\haeger_haeger_samd_haeger_mcu1\Debug\Main_Siemens_Automation_824MSPe.cpp.o
                0x00004db4                loop
 .text.startup._GLOBAL__sub_I__ZN6ModbusC2Ev
                0x000051cc       0x84 C:\Users\Haris\AppData\Local\Temp\VMBuilds\Main_Siemens_Automation_824MSPe\haeger_haeger_samd_haeger_mcu1\Debug\Main_Siemens_Automation_824MSPe.cpp.o
 .text._Z14Alarm_Functionv
                0x00005250        0x2 C:\Users\Haris\AppData\Local\Temp\VMBuilds\Main_Siemens_Automation_824MSPe\haeger_haeger_samd_haeger_mcu1\Debug\Alarm_Function.cpp.o
                0x00005250                Alarm_Function()
 *fill*         0x00005252        0x2 
 .text._Z15Bypass_Functionv
                0x00005254       0xc8 C:\Users\Haris\AppData\Local\Temp\VMBuilds\Main_Siemens_Automation_824MSPe\haeger_haeger_samd_haeger_mcu1\Debug\Bypass_Function.cpp.o
                0x00005254                Bypass_Function()
 .text._Z24Conductive_Mode_Functionv
                0x0000531c       0x4c C:\Users\Haris\AppData\Local\Temp\VMBuilds\Main_Siemens_Automation_824MSPe\haeger_haeger_samd_haeger_mcu1\Debug\Conductive_Mode_Function.cpp.o
                0x0000531c                Conductive_Mode_Function()
 .text._Z18Footpedal_Functionv
                0x00005368      0x194 C:\Users\Haris\AppData\Local\Temp\VMBuilds\Main_Siemens_Automation_824MSPe\haeger_haeger_samd_haeger_mcu1\Debug\Footpedal_Function.cpp.o
                0x00005368                Footpedal_Function()
 .text._Z14Force_Functionv
                0x000054fc       0x10 C:\Users\Haris\AppData\Local\Temp\VMBuilds\Main_Siemens_Automation_824MSPe\haeger_haeger_samd_haeger_mcu1\Debug\Force_Function.cpp.o
                0x000054fc                Force_Function()
 .text._Z27Hydraulic_Cylinder_Functionv
                0x0000550c      0x128 C:\Users\Haris\AppData\Local\Temp\VMBuilds\Main_Siemens_Automation_824MSPe\haeger_haeger_samd_haeger_mcu1\Debug\Hydraulic_Cylinder_Function.cpp.o
                0x0000550c                Hydraulic_Cylinder_Function()
 .text._Z24Hydraulic_Start_Functionv
                0x00005634       0x68 C:\Users\Haris\AppData\Local\Temp\VMBuilds\Main_Siemens_Automation_824MSPe\haeger_haeger_samd_haeger_mcu1\Debug\Hydraulic_Start_Function.cpp.o
                0x00005634                Hydraulic_Start_Function()
 .text._Z23Initialization_Functionv
                0x0000569c       0x20 C:\Users\Haris\AppData\Local\Temp\VMBuilds\Main_Siemens_Automation_824MSPe\haeger_haeger_samd_haeger_mcu1\Debug\Initialization_Function.cpp.o
                0x0000569c                Initialization_Function()
 .text._Z22Machine_State_Functionv
                0x000056bc       0xac C:\Users\Haris\AppData\Local\Temp\VMBuilds\Main_Siemens_Automation_824MSPe\haeger_haeger_samd_haeger_mcu1\Debug\Machine_State_Function.cpp.o
                0x000056bc                Machine_State_Function()
 .text._Z20MCU_Version_Functionv
                0x00005768        0xc C:\Users\Haris\AppData\Local\Temp\VMBuilds\Main_Siemens_Automation_824MSPe\haeger_haeger_samd_haeger_mcu1\Debug\MCU_Version_Function.cpp.o
                0x00005768                MCU_Version_Function()
 .text._Z28Non_Conductive_Mode_Functionv
                0x00005774       0x78 C:\Users\Haris\AppData\Local\Temp\VMBuilds\Main_Siemens_Automation_824MSPe\haeger_haeger_samd_haeger_mcu1\Debug\Non_Conductive_Mode_Function.cpp.o
                0x00005774                Non_Conductive_Mode_Function()
 .text._Z28Robot_Communication_Functionv
                0x000057ec      0x1d8 C:\Users\Haris\AppData\Local\Temp\VMBuilds\Main_Siemens_Automation_824MSPe\haeger_haeger_samd_haeger_mcu1\Debug\Robot_Communication_Function.cpp.o
                0x000057ec                Robot_Communication_Function()
 .text._Z29Robot_Lower_Tool_Pin_Functionv
                0x000059c4       0x14 C:\Users\Haris\AppData\Local\Temp\VMBuilds\Main_Siemens_Automation_824MSPe\haeger_haeger_samd_haeger_mcu1\Debug\Robot_Lower_Tool_Pin_Function.cpp.o
                0x000059c4                Robot_Lower_Tool_Pin_Function()
 .text._Z28Safety_Sensor_State_Functionv
                0x000059d8       0xd0 C:\Users\Haris\AppData\Local\Temp\VMBuilds\Main_Siemens_Automation_824MSPe\haeger_haeger_samd_haeger_mcu1\Debug\Safety_Sensor_State_Function.cpp.o
                0x000059d8                Safety_Sensor_State_Function()
 .text._Z14Timer_Functionv
                0x00005aa8       0x54 C:\Users\Haris\AppData\Local\Temp\VMBuilds\Main_Siemens_Automation_824MSPe\haeger_haeger_samd_haeger_mcu1\Debug\Timer_Function.cpp.o
                0x00005aa8                Timer_Function()
 .text._Z34Tooling_Protection_System_Functionv
                0x00005afc       0x94 C:\Users\Haris\AppData\Local\Temp\VMBuilds\Main_Siemens_Automation_824MSPe\haeger_haeger_samd_haeger_mcu1\Debug\Tooling_Protection_Sytem_Function.cpp.o
                0x00005afc                Tooling_Protection_System_Function()
 .text._Z23Toolingcontact_Functionv
                0x00005b90       0x1c C:\Users\Haris\AppData\Local\Temp\VMBuilds\Main_Siemens_Automation_824MSPe\haeger_haeger_samd_haeger_mcu1\Debug\Toolingcontact_Function.cpp.o
                0x00005b90                Toolingcontact_Function()
 .text._Z12TOS_Functionv
                0x00005bac       0x14 C:\Users\Haris\AppData\Local\Temp\VMBuilds\Main_Siemens_Automation_824MSPe\haeger_haeger_samd_haeger_mcu1\Debug\Top_Of_Stroke_Function.cpp.o
                0x00005bac                TOS_Function()
 .text._ZN20ResponsiveAnalogRead9snapCurveEf
                0x00005bc0       0x5c C:\Users\Haris\AppData\Local\Temp\VMBuilds\Main_Siemens_Automation_824MSPe\haeger_haeger_samd_haeger_mcu1\Debug\ResponsiveAnalogRead\ResponsiveAnalogRead.cpp.o
                0x00005bc0                ResponsiveAnalogRead::snapCurve(float)
 *fill*         0x00005c1c        0x4 
 .text._ZN20ResponsiveAnalogRead18getResponsiveValueEi
                0x00005c20      0x148 C:\Users\Haris\AppData\Local\Temp\VMBuilds\Main_Siemens_Automation_824MSPe\haeger_haeger_samd_haeger_mcu1\Debug\ResponsiveAnalogRead\ResponsiveAnalogRead.cpp.o
                0x00005c20                ResponsiveAnalogRead::getResponsiveValue(int)
 .text._ZN20ResponsiveAnalogRead6updateEi
                0x00005d68       0x1c C:\Users\Haris\AppData\Local\Temp\VMBuilds\Main_Siemens_Automation_824MSPe\haeger_haeger_samd_haeger_mcu1\Debug\ResponsiveAnalogRead\ResponsiveAnalogRead.cpp.o
                0x00005d68                ResponsiveAnalogRead::update(int)
 .text._ZN20ResponsiveAnalogRead6updateEv
                0x00005d84       0x18 C:\Users\Haris\AppData\Local\Temp\VMBuilds\Main_Siemens_Automation_824MSPe\haeger_haeger_samd_haeger_mcu1\Debug\ResponsiveAnalogRead\ResponsiveAnalogRead.cpp.o
                0x00005d84                ResponsiveAnalogRead::update()
 .text._ZN20ResponsiveAnalogRead17setSnapMultiplierEf
                0x00005d9c       0x30 C:\Users\Haris\AppData\Local\Temp\VMBuilds\Main_Siemens_Automation_824MSPe\haeger_haeger_samd_haeger_mcu1\Debug\ResponsiveAnalogRead\ResponsiveAnalogRead.cpp.o
                0x00005d9c                ResponsiveAnalogRead::setSnapMultiplier(float)
 .text._ZN20ResponsiveAnalogRead5beginEibf
                0x00005dcc       0x36 C:\Users\Haris\AppData\Local\Temp\VMBuilds\Main_Siemens_Automation_824MSPe\haeger_haeger_samd_haeger_mcu1\Debug\ResponsiveAnalogRead\ResponsiveAnalogRead.cpp.o
                0x00005dcc                ResponsiveAnalogRead::begin(int, bool, float)
 .text._ZN8MCP23S1713writeRegisterEh.part.2
                0x00005e02       0x40 C:\Users\Haris\AppData\Local\Temp\VMBuilds\Main_Siemens_Automation_824MSPe\haeger_haeger_samd_haeger_mcu1\Debug\MCP23S17-master\MCP23S17.cpp.o
 .text._ZN8MCP23S17C2EP8SPIClasshh
                0x00005e42       0x3c C:\Users\Haris\AppData\Local\Temp\VMBuilds\Main_Siemens_Automation_824MSPe\haeger_haeger_samd_haeger_mcu1\Debug\MCP23S17-master\MCP23S17.cpp.o
                0x00005e42                MCP23S17::MCP23S17(SPIClass*, unsigned char, unsigned char)
                0x00005e42                MCP23S17::MCP23S17(SPIClass*, unsigned char, unsigned char)
 .text._ZN8MCP23S1713writeRegisterEh
                0x00005e7e        0xa C:\Users\Haris\AppData\Local\Temp\VMBuilds\Main_Siemens_Automation_824MSPe\haeger_haeger_samd_haeger_mcu1\Debug\MCP23S17-master\MCP23S17.cpp.o
                0x00005e7e                MCP23S17::writeRegister(unsigned char)
 .text._ZN8MCP23S178writeAllEv
                0x00005e88       0x46 C:\Users\Haris\AppData\Local\Temp\VMBuilds\Main_Siemens_Automation_824MSPe\haeger_haeger_samd_haeger_mcu1\Debug\MCP23S17-master\MCP23S17.cpp.o
                0x00005e88                MCP23S17::writeAll()
 .text._ZN8MCP23S175beginEv
                0x00005ece       0x4c C:\Users\Haris\AppData\Local\Temp\VMBuilds\Main_Siemens_Automation_824MSPe\haeger_haeger_samd_haeger_mcu1\Debug\MCP23S17-master\MCP23S17.cpp.o
                0x00005ece                MCP23S17::begin()
 .text._ZN8MCP23S177pinModeEhh
                0x00005f1a       0x7e C:\Users\Haris\AppData\Local\Temp\VMBuilds\Main_Siemens_Automation_824MSPe\haeger_haeger_samd_haeger_mcu1\Debug\MCP23S17-master\MCP23S17.cpp.o
                0x00005f1a                MCP23S17::pinMode(unsigned char, unsigned char)
 .text._ZN8MCP23S1712digitalWriteEhh
                0x00005f98       0x72 C:\Users\Haris\AppData\Local\Temp\VMBuilds\Main_Siemens_Automation_824MSPe\haeger_haeger_samd_haeger_mcu1\Debug\MCP23S17-master\MCP23S17.cpp.o
                0x00005f98                MCP23S17::digitalWrite(unsigned char, unsigned char)
 .text._ZN8SPIClass4initEv
                0x0000600a       0x10 C:\Users\Haris\AppData\Local\Temp\VMBuilds\Main_Siemens_Automation_824MSPe\haeger_haeger_samd_haeger_mcu1\Debug\SPI\SPI.cpp.o
                0x0000600a                SPIClass::init()
 .text._ZN8SPIClass6configE11SPISettings
                0x0000601a       0x3a C:\Users\Haris\AppData\Local\Temp\VMBuilds\Main_Siemens_Automation_824MSPe\haeger_haeger_samd_haeger_mcu1\Debug\SPI\SPI.cpp.o
                0x0000601a                SPIClass::config(SPISettings)
 .text._ZN8SPIClass5beginEv
                0x00006054       0x50 C:\Users\Haris\AppData\Local\Temp\VMBuilds\Main_Siemens_Automation_824MSPe\haeger_haeger_samd_haeger_mcu1\Debug\SPI\SPI.cpp.o
                0x00006054                SPIClass::begin()
 .text._ZN8SPIClass16beginTransactionE11SPISettings
                0x000060a4       0x3c C:\Users\Haris\AppData\Local\Temp\VMBuilds\Main_Siemens_Automation_824MSPe\haeger_haeger_samd_haeger_mcu1\Debug\SPI\SPI.cpp.o
                0x000060a4                SPIClass::beginTransaction(SPISettings)
 .text._ZN8SPIClass14endTransactionEv
                0x000060e0       0x20 C:\Users\Haris\AppData\Local\Temp\VMBuilds\Main_Siemens_Automation_824MSPe\haeger_haeger_samd_haeger_mcu1\Debug\SPI\SPI.cpp.o
                0x000060e0                SPIClass::endTransaction()
 .text._ZN8SPIClass8transferEh
                0x00006100        0x6 C:\Users\Haris\AppData\Local\Temp\VMBuilds\Main_Siemens_Automation_824MSPe\haeger_haeger_samd_haeger_mcu1\Debug\SPI\SPI.cpp.o
                0x00006100                SPIClass::transfer(unsigned char)
 *fill*         0x00006106        0x2 
 .text.startup._GLOBAL__sub_I__ZN8SPIClassC2EP6SERCOMhhh14SercomSpiTXPad11SercomRXPad
                0x00006108       0x38 C:\Users\Haris\AppData\Local\Temp\VMBuilds\Main_Siemens_Automation_824MSPe\haeger_haeger_samd_haeger_mcu1\Debug\SPI\SPI.cpp.o
 .text.startup._GLOBAL__sub_I_g_APinDescription
                0x00006140       0x64 C:\Users\Haris\AppData\Local\Temp\VMBCore\visualmicro\276ac5ba6e45f5143b737d9f0d9df4e9\variant\variant.cpp.o
 .text.Dummy_Handler
                0x000061a4        0x2 C:\Users\Haris\AppData\Local\Temp\VMBuilds\Main_Siemens_Automation_824MSPe\haeger_haeger_samd_haeger_mcu1\Debug/core.a(cortex_handlers.c.o)
                0x000061a4                EIC_5_Handler
                0x000061a4                SERCOM0_2_Handler
                0x000061a4                DebugMon_Handler
                0x000061a4                EIC_13_Handler
                0x000061a4                EVSYS_0_Handler
                0x000061a4                TCC1_3_Handler
                0x000061a4                DAC_3_Handler
                0x000061a4                TRNG_Handler
                0x000061a4                HardFault_Handler
                0x000061a4                PDEC_2_Handler
                0x000061a4                EIC_4_Handler
                0x000061a4                AC_Handler
                0x000061a4                SERCOM3_1_Handler
                0x000061a4                TCC2_3_Handler
                0x000061a4                SERCOM3_2_Handler
                0x000061a4                PendSV_Handler
                0x000061a4                NMI_Handler
                0x000061a4                TC7_Handler
                0x000061a4                ADC1_1_Handler
                0x000061a4                EVSYS_3_Handler
                0x000061a4                PDEC_0_Handler
                0x000061a4                QSPI_Handler
                0x000061a4                TCC0_0_Handler
                0x000061a4                EIC_3_Handler
                0x000061a4                TAL_0_Handler
                0x000061a4                DAC_2_Handler
                0x000061a4                SERCOM0_0_Handler
                0x000061a4                RTC_Handler
                0x000061a4                UsageFault_Handler
                0x000061a4                SERCOM4_0_Handler
                0x000061a4                EIC_10_Handler
                0x000061a4                SERCOM0_3_Handler
                0x000061a4                EIC_11_Handler
                0x000061a4                EIC_9_Handler
                0x000061a4                OSC32KCTRL_Handler
                0x000061a4                TCC2_1_Handler
                0x000061a4                SUPC_1_Handler
                0x000061a4                TCC0_5_Handler
                0x000061a4                TCC0_6_Handler
                0x000061a4                SERCOM6_2_Handler
                0x000061a4                EVSYS_1_Handler
                0x000061a4                TCC1_4_Handler
                0x000061a4                TC6_Handler
                0x000061a4                DMAC_0_Handler
                0x000061a4                WDT_Handler
                0x000061a4                EIC_8_Handler
                0x000061a4                EIC_15_Handler
                0x000061a4                SERCOM6_0_Handler
                0x000061a4                SERCOM5_0_Handler
                0x000061a4                TC4_Handler
                0x000061a4                TC1_Handler
                0x000061a4                OSCCTRL_4_Handler
                0x000061a4                SERCOM4_3_Handler
                0x000061a4                EIC_12_Handler
                0x000061a4                DMAC_4_Handler
                0x000061a4                TCC4_2_Handler
                0x000061a4                PAC_Handler
                0x000061a4                TCC1_0_Handler
                0x000061a4                OSCCTRL_0_Handler
                0x000061a4                EIC_0_Handler
                0x000061a4                OSCCTRL_3_Handler
                0x000061a4                SERCOM4_1_Handler
                0x000061a4                TC3_Handler
                0x000061a4                Dummy_Handler
                0x000061a4                TCC3_0_Handler
                0x000061a4                TCC2_2_Handler
                0x000061a4                SERCOM5_1_Handler
                0x000061a4                TCC1_1_Handler
                0x000061a4                DMAC_2_Handler
                0x000061a4                ADC0_0_Handler
                0x000061a4                SERCOM0_1_Handler
                0x000061a4                OSCCTRL_2_Handler
                0x000061a4                ADC1_0_Handler
                0x000061a4                TCC1_2_Handler
                0x000061a4                SERCOM7_1_Handler
                0x000061a4                PM_Handler
                0x000061a4                SERCOM6_3_Handler
                0x000061a4                SERCOM2_3_Handler
                0x000061a4                DAC_4_Handler
                0x000061a4                TCC3_2_Handler
                0x000061a4                SERCOM7_0_Handler
                0x000061a4                TCC0_2_Handler
                0x000061a4                DMAC_1_Handler
                0x000061a4                TCC4_0_Handler
                0x000061a4                SERCOM7_3_Handler
                0x000061a4                SDHC1_Handler
                0x000061a4                SERCOM7_2_Handler
                0x000061a4                TCC2_0_Handler
                0x000061a4                PDEC_1_Handler
                0x000061a4                MemManage_Handler
                0x000061a4                TCC4_1_Handler
                0x000061a4                SERCOM5_3_Handler
                0x000061a4                SVC_Handler
                0x000061a4                SERCOM6_1_Handler
                0x000061a4                SDHC0_Handler
                0x000061a4                SERCOM1_1_Handler
                0x000061a4                I2S_Handler
                0x000061a4                EIC_2_Handler
                0x000061a4                PCC_Handler
                0x000061a4                DAC_0_Handler
                0x000061a4                TCC0_1_Handler
                0x000061a4                SERCOM1_3_Handler
                0x000061a4                EIC_6_Handler
                0x000061a4                OSCCTRL_1_Handler
                0x000061a4                SERCOM1_0_Handler
                0x000061a4                PUKCC_Handler
                0x000061a4                SERCOM2_1_Handler
                0x000061a4                SERCOM1_2_Handler
                0x000061a4                SERCOM3_0_Handler
                0x000061a4                EIC_1_Handler
                0x000061a4                SERCOM4_2_Handler
                0x000061a4                EVSYS_4_Handler
                0x000061a4                EIC_7_Handler
                0x000061a4                NVMCTRL_1_Handler
                0x000061a4                SERCOM5_2_Handler
                0x000061a4                ADC0_1_Handler
                0x000061a4                SERCOM3_3_Handler
                0x000061a4                SERCOM2_2_Handler
                0x000061a4                TCC3_1_Handler
                0x000061a4                EIC_14_Handler
                0x000061a4                DAC_1_Handler
                0x000061a4                NVMCTRL_0_Handler
                0x000061a4                TAL_1_Handler
                0x000061a4                MCLK_Handler
                0x000061a4                EVSYS_2_Handler
                0x000061a4                SUPC_0_Handler
                0x000061a4                BusFault_Handler
                0x000061a4                FREQM_Handler
                0x000061a4                TC0_Handler
                0x000061a4                TCC0_3_Handler
                0x000061a4                DMAC_3_Handler
                0x000061a4                TCC0_4_Handler
                0x000061a4                RAMECC_Handler
                0x000061a4                TC5_Handler
                0x000061a4                SERCOM2_0_Handler
                0x000061a4                ICM_Handler
                0x000061a4                AES_Handler
 *fill*         0x000061a6        0x2 
 .text.USB_0_Handler
                0x000061a8       0x10 C:\Users\Haris\AppData\Local\Temp\VMBuilds\Main_Siemens_Automation_824MSPe\haeger_haeger_samd_haeger_mcu1\Debug/core.a(cortex_handlers.c.o)
                0x000061a8                USB_0_Handler
 .text.USB_1_Handler
                0x000061b8       0x10 C:\Users\Haris\AppData\Local\Temp\VMBuilds\Main_Siemens_Automation_824MSPe\haeger_haeger_samd_haeger_mcu1\Debug/core.a(cortex_handlers.c.o)
                0x000061b8                USB_1_Handler
 .text.USB_2_Handler
                0x000061c8       0x10 C:\Users\Haris\AppData\Local\Temp\VMBuilds\Main_Siemens_Automation_824MSPe\haeger_haeger_samd_haeger_mcu1\Debug/core.a(cortex_handlers.c.o)
                0x000061c8                USB_2_Handler
 .text.USB_3_Handler
                0x000061d8       0x10 C:\Users\Haris\AppData\Local\Temp\VMBuilds\Main_Siemens_Automation_824MSPe\haeger_haeger_samd_haeger_mcu1\Debug/core.a(cortex_handlers.c.o)
                0x000061d8                USB_3_Handler
 .text.Reset_Handler
                0x000061e8       0x74 C:\Users\Haris\AppData\Local\Temp\VMBuilds\Main_Siemens_Automation_824MSPe\haeger_haeger_samd_haeger_mcu1\Debug/core.a(cortex_handlers.c.o)
                0x000061e8                Reset_Handler
 .text.SysTick_Handler
                0x0000625c       0x12 C:\Users\Haris\AppData\Local\Temp\VMBuilds\Main_Siemens_Automation_824MSPe\haeger_haeger_samd_haeger_mcu1\Debug/core.a(cortex_handlers.c.o)
                0x0000625c                SysTick_Handler
 *fill*         0x0000626e        0x2 
 .text.USB_SetHandler
                0x00006270        0xc C:\Users\Haris\AppData\Local\Temp\VMBuilds\Main_Siemens_Automation_824MSPe\haeger_haeger_samd_haeger_mcu1\Debug/core.a(cortex_handlers.c.o)
                0x00006270                USB_SetHandler
 .text.millis   0x0000627c        0xc C:\Users\Haris\AppData\Local\Temp\VMBuilds\Main_Siemens_Automation_824MSPe\haeger_haeger_samd_haeger_mcu1\Debug/core.a(delay.c.o)
                0x0000627c                millis
 .text.delay    0x00006288       0x20 C:\Users\Haris\AppData\Local\Temp\VMBuilds\Main_Siemens_Automation_824MSPe\haeger_haeger_samd_haeger_mcu1\Debug/core.a(delay.c.o)
                0x00006288                delay
 .text.SysTick_DefaultHandler
                0x000062a8       0x10 C:\Users\Haris\AppData\Local\Temp\VMBuilds\Main_Siemens_Automation_824MSPe\haeger_haeger_samd_haeger_mcu1\Debug/core.a(delay.c.o)
                0x000062a8                SysTick_DefaultHandler
 .text.__empty  0x000062b8        0x2 C:\Users\Haris\AppData\Local\Temp\VMBuilds\Main_Siemens_Automation_824MSPe\haeger_haeger_samd_haeger_mcu1\Debug/core.a(hooks.c.o)
                0x000062b8                yield
 .text.__false  0x000062ba        0x4 C:\Users\Haris\AppData\Local\Temp\VMBuilds\Main_Siemens_Automation_824MSPe\haeger_haeger_samd_haeger_mcu1\Debug/core.a(hooks.c.o)
                0x000062ba                sysTickHook
 *fill*         0x000062be        0x2 
 .text.SystemInit
                0x000062c0      0x174 C:\Users\Haris\AppData\Local\Temp\VMBuilds\Main_Siemens_Automation_824MSPe\haeger_haeger_samd_haeger_mcu1\Debug/core.a(startup.c.o)
                0x000062c0                SystemInit
 .text.analogReadResolution
                0x00006434       0x48 C:\Users\Haris\AppData\Local\Temp\VMBuilds\Main_Siemens_Automation_824MSPe\haeger_haeger_samd_haeger_mcu1\Debug/core.a(wiring_analog.c.o)
                0x00006434                analogReadResolution
 .text.analogWriteResolution
                0x0000647c        0xc C:\Users\Haris\AppData\Local\Temp\VMBuilds\Main_Siemens_Automation_824MSPe\haeger_haeger_samd_haeger_mcu1\Debug/core.a(wiring_analog.c.o)
                0x0000647c                analogWriteResolution
 .text.analogReference
                0x00006488       0x34 C:\Users\Haris\AppData\Local\Temp\VMBuilds\Main_Siemens_Automation_824MSPe\haeger_haeger_samd_haeger_mcu1\Debug/core.a(wiring_analog.c.o)
                0x00006488                analogReference
 .text.analogRead
                0x000064bc      0x12c C:\Users\Haris\AppData\Local\Temp\VMBuilds\Main_Siemens_Automation_824MSPe\haeger_haeger_samd_haeger_mcu1\Debug/core.a(wiring_analog.c.o)
                0x000064bc                analogRead
 .text.analogWrite
                0x000065e8      0x2d8 C:\Users\Haris\AppData\Local\Temp\VMBuilds\Main_Siemens_Automation_824MSPe\haeger_haeger_samd_haeger_mcu1\Debug/core.a(wiring_analog.c.o)
                0x000065e8                analogWrite
 .text.pinMode  0x000068c0       0xb8 C:\Users\Haris\AppData\Local\Temp\VMBuilds\Main_Siemens_Automation_824MSPe\haeger_haeger_samd_haeger_mcu1\Debug/core.a(wiring_digital.c.o)
                0x000068c0                pinMode
 .text.digitalWrite
                0x00006978       0x5c C:\Users\Haris\AppData\Local\Temp\VMBuilds\Main_Siemens_Automation_824MSPe\haeger_haeger_samd_haeger_mcu1\Debug/core.a(wiring_digital.c.o)
                0x00006978                digitalWrite
 .text.digitalRead
                0x000069d4       0x30 C:\Users\Haris\AppData\Local\Temp\VMBuilds\Main_Siemens_Automation_824MSPe\haeger_haeger_samd_haeger_mcu1\Debug/core.a(wiring_digital.c.o)
                0x000069d4                digitalRead
 .text.pinPeripheral
                0x00006a04       0xac C:\Users\Haris\AppData\Local\Temp\VMBuilds\Main_Siemens_Automation_824MSPe\haeger_haeger_samd_haeger_mcu1\Debug/core.a(wiring_private.c.o)
                0x00006a04                pinPeripheral
 .text._Z11initVariantv
                0x00006ab0        0x2 C:\Users\Haris\AppData\Local\Temp\VMBuilds\Main_Siemens_Automation_824MSPe\haeger_haeger_samd_haeger_mcu1\Debug/core.a(main.cpp.o)
                0x00006ab0                initVariant()
 *fill*         0x00006ab2        0x2 
 .text.startup.main
                0x00006ab4       0x3c C:\Users\Haris\AppData\Local\Temp\VMBuilds\Main_Siemens_Automation_824MSPe\haeger_haeger_samd_haeger_mcu1\Debug/core.a(main.cpp.o)
                0x00006ab4                main
 .text.initiateReset
                0x00006af0        0xc C:\Users\Haris\AppData\Local\Temp\VMBuilds\Main_Siemens_Automation_824MSPe\haeger_haeger_samd_haeger_mcu1\Debug/core.a(Reset.cpp.o)
                0x00006af0                initiateReset
 .text.cancelReset
                0x00006afc       0x10 C:\Users\Haris\AppData\Local\Temp\VMBuilds\Main_Siemens_Automation_824MSPe\haeger_haeger_samd_haeger_mcu1\Debug/core.a(Reset.cpp.o)
                0x00006afc                cancelReset
 .text.tickReset
                0x00006b0c       0x48 C:\Users\Haris\AppData\Local\Temp\VMBuilds\Main_Siemens_Automation_824MSPe\haeger_haeger_samd_haeger_mcu1\Debug/core.a(Reset.cpp.o)
                0x00006b0c                tickReset
 .text._ZN6SERCOMC2EP6Sercom
                0x00006b54        0x4 C:\Users\Haris\AppData\Local\Temp\VMBuilds\Main_Siemens_Automation_824MSPe\haeger_haeger_samd_haeger_mcu1\Debug/core.a(SERCOM.cpp.o)
                0x00006b54                SERCOM::SERCOM(Sercom*)
                0x00006b54                SERCOM::SERCOM(Sercom*)
 .text._ZN6SERCOM12initSPIClockE18SercomSpiClockModem
                0x00006b58       0x30 C:\Users\Haris\AppData\Local\Temp\VMBuilds\Main_Siemens_Automation_824MSPe\haeger_haeger_samd_haeger_mcu1\Debug/core.a(SERCOM.cpp.o)
                0x00006b58                SERCOM::initSPIClock(SercomSpiClockMode, unsigned long)
 .text._ZN6SERCOM8resetSPIEv
                0x00006b88       0x1a C:\Users\Haris\AppData\Local\Temp\VMBuilds\Main_Siemens_Automation_824MSPe\haeger_haeger_samd_haeger_mcu1\Debug/core.a(SERCOM.cpp.o)
                0x00006b88                SERCOM::resetSPI()
 .text._ZN6SERCOM9enableSPIEv
                0x00006ba2       0x14 C:\Users\Haris\AppData\Local\Temp\VMBuilds\Main_Siemens_Automation_824MSPe\haeger_haeger_samd_haeger_mcu1\Debug/core.a(SERCOM.cpp.o)
                0x00006ba2                SERCOM::enableSPI()
 .text._ZN6SERCOM10disableSPIEv
                0x00006bb6       0x16 C:\Users\Haris\AppData\Local\Temp\VMBuilds\Main_Siemens_Automation_824MSPe\haeger_haeger_samd_haeger_mcu1\Debug/core.a(SERCOM.cpp.o)
                0x00006bb6                SERCOM::disableSPI()
 .text._ZN6SERCOM15transferDataSPIEh
                0x00006bcc       0x12 C:\Users\Haris\AppData\Local\Temp\VMBuilds\Main_Siemens_Automation_824MSPe\haeger_haeger_samd_haeger_mcu1\Debug/core.a(SERCOM.cpp.o)
                0x00006bcc                SERCOM::transferDataSPI(unsigned char)
 *fill*         0x00006bde        0x2 
 .text._ZN6SERCOM13initClockNVICEv
                0x00006be0      0x1c8 C:\Users\Haris\AppData\Local\Temp\VMBuilds\Main_Siemens_Automation_824MSPe\haeger_haeger_samd_haeger_mcu1\Debug/core.a(SERCOM.cpp.o)
                0x00006be0                SERCOM::initClockNVIC()
 .text._ZN6SERCOM7initSPIE14SercomSpiTXPad11SercomRXPad17SercomSpiCharSize15SercomDataOrder
                0x00006da8       0x48 C:\Users\Haris\AppData\Local\Temp\VMBuilds\Main_Siemens_Automation_824MSPe\haeger_haeger_samd_haeger_mcu1\Debug/core.a(SERCOM.cpp.o)
                0x00006da8                SERCOM::initSPI(SercomSpiTXPad, SercomRXPad, SercomSpiCharSize, SercomDataOrder)
 .text._Z8makeWordhh
                0x00006df0        0x6 C:\Users\Haris\AppData\Local\Temp\VMBuilds\Main_Siemens_Automation_824MSPe\haeger_haeger_samd_haeger_mcu1\Debug/core.a(WMath.cpp.o)
                0x00006df0                makeWord(unsigned char, unsigned char)
 .text._ZN7Serial_17availableForWriteEv
                0x00006df6        0x4 C:\Users\Haris\AppData\Local\Temp\VMBuilds\Main_Siemens_Automation_824MSPe\haeger_haeger_samd_haeger_mcu1\Debug/core.a(CDC.cpp.o)
                0x00006df6                Serial_::availableForWrite()
 .text._ZN7Serial_5writeEh
                0x00006dfa       0x16 C:\Users\Haris\AppData\Local\Temp\VMBuilds\Main_Siemens_Automation_824MSPe\haeger_haeger_samd_haeger_mcu1\Debug/core.a(CDC.cpp.o)
                0x00006dfa                Serial_::write(unsigned char)
 .text._ZN7Serial_9availableEv
                0x00006e10        0x8 C:\Users\Haris\AppData\Local\Temp\VMBuilds\Main_Siemens_Automation_824MSPe\haeger_haeger_samd_haeger_mcu1\Debug/core.a(CDC.cpp.o)
                0x00006e10                Serial_::available()
 .text._ZN7Serial_5flushEv
                0x00006e18        0x8 C:\Users\Haris\AppData\Local\Temp\VMBuilds\Main_Siemens_Automation_824MSPe\haeger_haeger_samd_haeger_mcu1\Debug/core.a(CDC.cpp.o)
                0x00006e18                Serial_::flush()
 .text._ZN7Serial_5writeEPKhj
                0x00006e20       0x1a C:\Users\Haris\AppData\Local\Temp\VMBuilds\Main_Siemens_Automation_824MSPe\haeger_haeger_samd_haeger_mcu1\Debug/core.a(CDC.cpp.o)
                0x00006e20                Serial_::write(unsigned char const*, unsigned int)
 *fill*         0x00006e3a        0x2 
 .text._ZN7Serial_4peekEv
                0x00006e3c       0x1c C:\Users\Haris\AppData\Local\Temp\VMBuilds\Main_Siemens_Automation_824MSPe\haeger_haeger_samd_haeger_mcu1\Debug/core.a(CDC.cpp.o)
                0x00006e3c                Serial_::peek()
 .text._ZN7Serial_4readEv
                0x00006e58       0x20 C:\Users\Haris\AppData\Local\Temp\VMBuilds\Main_Siemens_Automation_824MSPe\haeger_haeger_samd_haeger_mcu1\Debug/core.a(CDC.cpp.o)
                0x00006e58                Serial_::read()
 .text._Z16CDC_GetInterfacePh
                0x00006e78       0x18 C:\Users\Haris\AppData\Local\Temp\VMBuilds\Main_Siemens_Automation_824MSPe\haeger_haeger_samd_haeger_mcu1\Debug/core.a(CDC.cpp.o)
                0x00006e78                CDC_GetInterface(unsigned char*)
 .text._Z9CDC_SetupR8USBSetup
                0x00006e90       0x7c C:\Users\Haris\AppData\Local\Temp\VMBuilds\Main_Siemens_Automation_824MSPe\haeger_haeger_samd_haeger_mcu1\Debug/core.a(CDC.cpp.o)
                0x00006e90                CDC_Setup(USBSetup&)
 .text._ZN7Serial_5beginEm
                0x00006f0c        0x2 C:\Users\Haris\AppData\Local\Temp\VMBuilds\Main_Siemens_Automation_824MSPe\haeger_haeger_samd_haeger_mcu1\Debug/core.a(CDC.cpp.o)
                0x00006f0c                Serial_::begin(unsigned long)
 .text._ZN7Serial_5beginEmh
                0x00006f0e        0x2 C:\Users\Haris\AppData\Local\Temp\VMBuilds\Main_Siemens_Automation_824MSPe\haeger_haeger_samd_haeger_mcu1\Debug/core.a(CDC.cpp.o)
                0x00006f0e                Serial_::begin(unsigned long, unsigned char)
 .text.startup._GLOBAL__sub_I__Z17_CDC_GetInterfacev
                0x00006f10       0x24 C:\Users\Haris\AppData\Local\Temp\VMBuilds\Main_Siemens_Automation_824MSPe\haeger_haeger_samd_haeger_mcu1\Debug/core.a(CDC.cpp.o)
 .text._ZN26DoubleBufferedEPOutHandler4initEv
                0x00006f34        0x2 C:\Users\Haris\AppData\Local\Temp\VMBuilds\Main_Siemens_Automation_824MSPe\haeger_haeger_samd_haeger_mcu1\Debug/core.a(USBCore.cpp.o)
                0x00006f34                DoubleBufferedEPOutHandler::init()
 *fill*         0x00006f36        0x2 
 .text._ZN14USBDeviceClass6initEPEmm.part.4
                0x00006f38       0xa4 C:\Users\Haris\AppData\Local\Temp\VMBuilds\Main_Siemens_Automation_824MSPe\haeger_haeger_samd_haeger_mcu1\Debug/core.a(USBCore.cpp.o)
 .text._ZN7__GuardC2Ev
                0x00006fdc        0xe C:\Users\Haris\AppData\Local\Temp\VMBuilds\Main_Siemens_Automation_824MSPe\haeger_haeger_samd_haeger_mcu1\Debug/core.a(USBCore.cpp.o)
                0x00006fdc                __Guard::__Guard()
                0x00006fdc                __Guard::__Guard()
 .text._ZN7__GuardD2Ev
                0x00006fea        0xc C:\Users\Haris\AppData\Local\Temp\VMBuilds\Main_Siemens_Automation_824MSPe\haeger_haeger_samd_haeger_mcu1\Debug/core.a(USBCore.cpp.o)
                0x00006fea                __Guard::~__Guard()
                0x00006fea                __Guard::~__Guard()
 .text._ZNK26DoubleBufferedEPOutHandler9availableEv
                0x00006ff6       0x5e C:\Users\Haris\AppData\Local\Temp\VMBuilds\Main_Siemens_Automation_824MSPe\haeger_haeger_samd_haeger_mcu1\Debug/core.a(USBCore.cpp.o)
                0x00006ff6                DoubleBufferedEPOutHandler::available() const
 .text._ZN26DoubleBufferedEPOutHandler7releaseEv
                0x00007054       0x4e C:\Users\Haris\AppData\Local\Temp\VMBuilds\Main_Siemens_Automation_824MSPe\haeger_haeger_samd_haeger_mcu1\Debug/core.a(USBCore.cpp.o)
                0x00007054                DoubleBufferedEPOutHandler::release()
 .text._ZN26DoubleBufferedEPOutHandler4recvEPvm
                0x000070a2      0x114 C:\Users\Haris\AppData\Local\Temp\VMBuilds\Main_Siemens_Automation_824MSPe\haeger_haeger_samd_haeger_mcu1\Debug/core.a(USBCore.cpp.o)
                0x000070a2                DoubleBufferedEPOutHandler::recv(void*, unsigned long)
 .text._ZN26DoubleBufferedEPOutHandler14handleEndpointEv
                0x000071b6       0xc6 C:\Users\Haris\AppData\Local\Temp\VMBuilds\Main_Siemens_Automation_824MSPe\haeger_haeger_samd_haeger_mcu1\Debug/core.a(USBCore.cpp.o)
                0x000071b6                DoubleBufferedEPOutHandler::handleEndpoint()
 .text._ZN14USBDeviceClass14SendInterfacesEPm
                0x0000727c       0x30 C:\Users\Haris\AppData\Local\Temp\VMBuilds\Main_Siemens_Automation_824MSPe\haeger_haeger_samd_haeger_mcu1\Debug/core.a(USBCore.cpp.o)
                0x0000727c                USBDeviceClass::SendInterfaces(unsigned long*)
 .text._ZN14USBDeviceClass14handleEndpointEh
                0x000072ac       0x3c C:\Users\Haris\AppData\Local\Temp\VMBuilds\Main_Siemens_Automation_824MSPe\haeger_haeger_samd_haeger_mcu1\Debug/core.a(USBCore.cpp.o)
                0x000072ac                USBDeviceClass::handleEndpoint(unsigned char)
 .text._ZN14USBDeviceClass4initEv
                0x000072e8      0x120 C:\Users\Haris\AppData\Local\Temp\VMBuilds\Main_Siemens_Automation_824MSPe\haeger_haeger_samd_haeger_mcu1\Debug/core.a(USBCore.cpp.o)
                0x000072e8                USBDeviceClass::init()
 .text._ZN14USBDeviceClass6attachEv
                0x00007408       0x30 C:\Users\Haris\AppData\Local\Temp\VMBuilds\Main_Siemens_Automation_824MSPe\haeger_haeger_samd_haeger_mcu1\Debug/core.a(USBCore.cpp.o)
                0x00007408                USBDeviceClass::attach()
 .text._ZN14USBDeviceClass10setAddressEm
                0x00007438       0x40 C:\Users\Haris\AppData\Local\Temp\VMBuilds\Main_Siemens_Automation_824MSPe\haeger_haeger_samd_haeger_mcu1\Debug/core.a(USBCore.cpp.o)
                0x00007438                USBDeviceClass::setAddress(unsigned long)
 .text._ZN14USBDeviceClass25handleClassInterfaceSetupER8USBSetup
                0x00007478       0x3c C:\Users\Haris\AppData\Local\Temp\VMBuilds\Main_Siemens_Automation_824MSPe\haeger_haeger_samd_haeger_mcu1\Debug/core.a(USBCore.cpp.o)
                0x00007478                USBDeviceClass::handleClassInterfaceSetup(USBSetup&)
 .text._ZN14USBDeviceClass6initEPEmm
                0x000074b4       0xec C:\Users\Haris\AppData\Local\Temp\VMBuilds\Main_Siemens_Automation_824MSPe\haeger_haeger_samd_haeger_mcu1\Debug/core.a(USBCore.cpp.o)
                0x000074b4                USBDeviceClass::initEP(unsigned long, unsigned long)
 .text._ZN14USBDeviceClass13initEndpointsEv
                0x000075a0       0x24 C:\Users\Haris\AppData\Local\Temp\VMBuilds\Main_Siemens_Automation_824MSPe\haeger_haeger_samd_haeger_mcu1\Debug/core.a(USBCore.cpp.o)
                0x000075a0                USBDeviceClass::initEndpoints()
 .text._ZN14USBDeviceClass9availableEm
                0x000075c4       0x2c C:\Users\Haris\AppData\Local\Temp\VMBuilds\Main_Siemens_Automation_824MSPe\haeger_haeger_samd_haeger_mcu1\Debug/core.a(USBCore.cpp.o)
                0x000075c4                USBDeviceClass::available(unsigned long)
 .text._ZN14USBDeviceClass5flushEm
                0x000075f0       0x28 C:\Users\Haris\AppData\Local\Temp\VMBuilds\Main_Siemens_Automation_824MSPe\haeger_haeger_samd_haeger_mcu1\Debug/core.a(USBCore.cpp.o)
                0x000075f0                USBDeviceClass::flush(unsigned long)
 .text._ZN14USBDeviceClass14armRecvCtrlOUTEm
                0x00007618       0x58 C:\Users\Haris\AppData\Local\Temp\VMBuilds\Main_Siemens_Automation_824MSPe\haeger_haeger_samd_haeger_mcu1\Debug/core.a(USBCore.cpp.o)
                0x00007618                USBDeviceClass::armRecvCtrlOUT(unsigned long)
 .text._ZN14USBDeviceClass11recvControlEPvm
                0x00007670       0x3c C:\Users\Haris\AppData\Local\Temp\VMBuilds\Main_Siemens_Automation_824MSPe\haeger_haeger_samd_haeger_mcu1\Debug/core.a(USBCore.cpp.o)
                0x00007670                USBDeviceClass::recvControl(void*, unsigned long)
 .text._ZN14USBDeviceClass7armRecvEm
                0x000076ac       0x34 C:\Users\Haris\AppData\Local\Temp\VMBuilds\Main_Siemens_Automation_824MSPe\haeger_haeger_samd_haeger_mcu1\Debug/core.a(USBCore.cpp.o)
                0x000076ac                USBDeviceClass::armRecv(unsigned long)
 .text._ZN14USBDeviceClass4recvEmPvm
                0x000076e0       0xdc C:\Users\Haris\AppData\Local\Temp\VMBuilds\Main_Siemens_Automation_824MSPe\haeger_haeger_samd_haeger_mcu1\Debug/core.a(USBCore.cpp.o)
                0x000076e0                USBDeviceClass::recv(unsigned long, void*, unsigned long)
 .text._ZN14USBDeviceClass4recvEm
                0x000077bc       0x1e C:\Users\Haris\AppData\Local\Temp\VMBuilds\Main_Siemens_Automation_824MSPe\haeger_haeger_samd_haeger_mcu1\Debug/core.a(USBCore.cpp.o)
                0x000077bc                USBDeviceClass::recv(unsigned long)
 *fill*         0x000077da        0x2 
 .text._ZN14USBDeviceClass4sendEmPKvm
                0x000077dc      0x10c C:\Users\Haris\AppData\Local\Temp\VMBuilds\Main_Siemens_Automation_824MSPe\haeger_haeger_samd_haeger_mcu1\Debug/core.a(USBCore.cpp.o)
                0x000077dc                USBDeviceClass::send(unsigned long, void const*, unsigned long)
 .text._ZN14USBDeviceClass7armSendEmPKvm
                0x000078e8       0x3c C:\Users\Haris\AppData\Local\Temp\VMBuilds\Main_Siemens_Automation_824MSPe\haeger_haeger_samd_haeger_mcu1\Debug/core.a(USBCore.cpp.o)
                0x000078e8                USBDeviceClass::armSend(unsigned long, void const*, unsigned long)
 .text._ZN14USBDeviceClass11sendControlEPKvm
                0x00007924       0x58 C:\Users\Haris\AppData\Local\Temp\VMBuilds\Main_Siemens_Automation_824MSPe\haeger_haeger_samd_haeger_mcu1\Debug/core.a(USBCore.cpp.o)
                0x00007924                USBDeviceClass::sendControl(void const*, unsigned long)
 .text._ZN14USBDeviceClass20sendStringDescriptorEPKhh
                0x0000797c       0x6c C:\Users\Haris\AppData\Local\Temp\VMBuilds\Main_Siemens_Automation_824MSPe\haeger_haeger_samd_haeger_mcu1\Debug/core.a(USBCore.cpp.o)
                0x0000797c                USBDeviceClass::sendStringDescriptor(unsigned char const*, unsigned char)
 .text._ZN14USBDeviceClass12packMessagesEb.part.6
                0x000079e8       0x1c C:\Users\Haris\AppData\Local\Temp\VMBuilds\Main_Siemens_Automation_824MSPe\haeger_haeger_samd_haeger_mcu1\Debug/core.a(USBCore.cpp.o)
 .text._ZN14USBDeviceClass17sendConfigurationEm
                0x00007a04       0xa4 C:\Users\Haris\AppData\Local\Temp\VMBuilds\Main_Siemens_Automation_824MSPe\haeger_haeger_samd_haeger_mcu1\Debug/core.a(USBCore.cpp.o)
                0x00007a04                USBDeviceClass::sendConfiguration(unsigned long)
 .text._ZN14USBDeviceClass14sendDescriptorER8USBSetup
                0x00007aa8       0xb4 C:\Users\Haris\AppData\Local\Temp\VMBuilds\Main_Siemens_Automation_824MSPe\haeger_haeger_samd_haeger_mcu1\Debug/core.a(USBCore.cpp.o)
                0x00007aa8                USBDeviceClass::sendDescriptor(USBSetup&)
 .text._ZN14USBDeviceClass19handleStandardSetupER8USBSetup
                0x00007b5c      0x124 C:\Users\Haris\AppData\Local\Temp\VMBuilds\Main_Siemens_Automation_824MSPe\haeger_haeger_samd_haeger_mcu1\Debug/core.a(USBCore.cpp.o)
                0x00007b5c                USBDeviceClass::handleStandardSetup(USBSetup&)
 .text._ZN14USBDeviceClass10ISRHandlerEv
                0x00007c80      0x154 C:\Users\Haris\AppData\Local\Temp\VMBuilds\Main_Siemens_Automation_824MSPe\haeger_haeger_samd_haeger_mcu1\Debug/core.a(USBCore.cpp.o)
                0x00007c80                USBDeviceClass::ISRHandler()
 .text.UDD_Handler
                0x00007dd4        0xc C:\Users\Haris\AppData\Local\Temp\VMBuilds\Main_Siemens_Automation_824MSPe\haeger_haeger_samd_haeger_mcu1\Debug/core.a(USBCore.cpp.o)
                0x00007dd4                UDD_Handler
 .text.startup._GLOBAL__sub_I_usbd
                0x00007de0       0x10 C:\Users\Haris\AppData\Local\Temp\VMBuilds\Main_Siemens_Automation_824MSPe\haeger_haeger_samd_haeger_mcu1\Debug/core.a(USBCore.cpp.o)
 .text.init     0x00007df0      0x118 C:\Users\Haris\AppData\Local\Temp\VMBuilds\Main_Siemens_Automation_824MSPe\haeger_haeger_samd_haeger_mcu1\Debug/core.a(wiring.c.o)
                0x00007df0                init
 .text._Znwj    0x00007f08        0x4 C:\Users\Haris\AppData\Local\Temp\VMBuilds\Main_Siemens_Automation_824MSPe\haeger_haeger_samd_haeger_mcu1\Debug/core.a(new.cpp.o)
                0x00007f08                operator new(unsigned int)
 .text._ZN13PluggableUSB_12getInterfaceEPh
                0x00007f0c       0x28 C:\Users\Haris\AppData\Local\Temp\VMBuilds\Main_Siemens_Automation_824MSPe\haeger_haeger_samd_haeger_mcu1\Debug/core.a(PluggableUSB.cpp.o)
                0x00007f0c                PluggableUSB_::getInterface(unsigned char*)
 .text._ZN13PluggableUSB_13getDescriptorER8USBSetup
                0x00007f34       0x1c C:\Users\Haris\AppData\Local\Temp\VMBuilds\Main_Siemens_Automation_824MSPe\haeger_haeger_samd_haeger_mcu1\Debug/core.a(PluggableUSB.cpp.o)
                0x00007f34                PluggableUSB_::getDescriptor(USBSetup&)
 .text._ZN13PluggableUSB_12getShortNameEPc
                0x00007f50       0x1c C:\Users\Haris\AppData\Local\Temp\VMBuilds\Main_Siemens_Automation_824MSPe\haeger_haeger_samd_haeger_mcu1\Debug/core.a(PluggableUSB.cpp.o)
                0x00007f50                PluggableUSB_::getShortName(char*)
 .text._ZN13PluggableUSB_5setupER8USBSetup
                0x00007f6c       0x20 C:\Users\Haris\AppData\Local\Temp\VMBuilds\Main_Siemens_Automation_824MSPe\haeger_haeger_samd_haeger_mcu1\Debug/core.a(PluggableUSB.cpp.o)
                0x00007f6c                PluggableUSB_::setup(USBSetup&)
 .text._Z12PluggableUSBv
                0x00007f8c       0x28 C:\Users\Haris\AppData\Local\Temp\VMBuilds\Main_Siemens_Automation_824MSPe\haeger_haeger_samd_haeger_mcu1\Debug/core.a(PluggableUSB.cpp.o)
                0x00007f8c                PluggableUSB()
 .text._ZN20USBDevice_SAMD21G18x5resetEv
                0x00007fb4       0x30 C:\Users\Haris\AppData\Local\Temp\VMBuilds\Main_Siemens_Automation_824MSPe\haeger_haeger_samd_haeger_mcu1\Debug/core.a(SAMD21_USBDevice.cpp.o)
                0x00007fb4                USBDevice_SAMD21G18x::reset()
 .text._ZN20USBDevice_SAMD21G18x9calibrateEv
                0x00007fe4       0x48 C:\Users\Haris\AppData\Local\Temp\VMBuilds\Main_Siemens_Automation_824MSPe\haeger_haeger_samd_haeger_mcu1\Debug/core.a(SAMD21_USBDevice.cpp.o)
                0x00007fe4                USBDevice_SAMD21G18x::calibrate()
 .text          0x0000802c      0x370 c:/users/haris/appdata/local/arduino15/packages/arduino/tools/arm-none-eabi-gcc/4.8.3-2014q1/bin/../lib/gcc/arm-none-eabi/4.8.3/armv7e-m/fpu\libgcc.a(_arm_addsubdf3.o)
                0x0000802c                __aeabi_drsub
                0x00008034                __aeabi_dsub
                0x00008034                __subdf3
                0x00008038                __aeabi_dadd
                0x00008038                __adddf3
                0x000082b0                __floatunsidf
                0x000082b0                __aeabi_ui2d
                0x000082d0                __floatsidf
                0x000082d0                __aeabi_i2d
                0x000082f4                __aeabi_f2d
                0x000082f4                __extendsfdf2
                0x00008330                __floatundidf
                0x00008330                __aeabi_ul2d
                0x00008340                __floatdidf
                0x00008340                __aeabi_l2d
 .text          0x0000839c      0x424 c:/users/haris/appdata/local/arduino15/packages/arduino/tools/arm-none-eabi-gcc/4.8.3-2014q1/bin/../lib/gcc/arm-none-eabi/4.8.3/armv7e-m/fpu\libgcc.a(_arm_muldivdf3.o)
                0x0000839c                __aeabi_dmul
                0x0000839c                __muldf3
                0x000085f0                __divdf3
                0x000085f0                __aeabi_ddiv
 .text          0x000087c0       0xa0 c:/users/haris/appdata/local/arduino15/packages/arduino/tools/arm-none-eabi-gcc/4.8.3-2014q1/bin/../lib/gcc/arm-none-eabi/4.8.3/armv7e-m/fpu\libgcc.a(_arm_truncdfsf2.o)
                0x000087c0                __truncdfsf2
                0x000087c0                __aeabi_d2f
 .text.__libc_init_array
                0x00008860       0x4c c:/users/haris/appdata/local/arduino15/packages/arduino/tools/arm-none-eabi-gcc/4.8.3-2014q1/bin/../lib/gcc/arm-none-eabi/4.8.3/../../../../arm-none-eabi/lib/armv7e-m/fpu\libc_s.a(lib_a-init.o)
                0x00008860                __libc_init_array
 .text.malloc   0x000088ac       0x10 c:/users/haris/appdata/local/arduino15/packages/arduino/tools/arm-none-eabi-gcc/4.8.3-2014q1/bin/../lib/gcc/arm-none-eabi/4.8.3/../../../../arm-none-eabi/lib/armv7e-m/fpu\libc_s.a(lib_a-malloc.o)
                0x000088ac                malloc
 .text.memcpy   0x000088bc       0x12 c:/users/haris/appdata/local/arduino15/packages/arduino/tools/arm-none-eabi-gcc/4.8.3-2014q1/bin/../lib/gcc/arm-none-eabi/4.8.3/../../../../arm-none-eabi/lib/armv7e-m/fpu\libc_s.a(lib_a-memcpy-stub.o)
                0x000088bc                memcpy
 .text.memset   0x000088ce       0x10 c:/users/haris/appdata/local/arduino15/packages/arduino/tools/arm-none-eabi-gcc/4.8.3-2014q1/bin/../lib/gcc/arm-none-eabi/4.8.3/../../../../arm-none-eabi/lib/armv7e-m/fpu\libc_s.a(lib_a-memset.o)
                0x000088ce                memset
 *fill*         0x000088de        0x2 
 .text._malloc_r
                0x000088e0       0xa8 c:/users/haris/appdata/local/arduino15/packages/arduino/tools/arm-none-eabi-gcc/4.8.3-2014q1/bin/../lib/gcc/arm-none-eabi/4.8.3/../../../../arm-none-eabi/lib/armv7e-m/fpu\libc_s.a(lib_a-nano-mallocr.o)
                0x000088e0                _malloc_r
 .text._sbrk_r  0x00008988       0x20 c:/users/haris/appdata/local/arduino15/packages/arduino/tools/arm-none-eabi-gcc/4.8.3-2014q1/bin/../lib/gcc/arm-none-eabi/4.8.3/../../../../arm-none-eabi/lib/armv7e-m/fpu\libc_s.a(lib_a-sbrkr.o)
                0x00008988                _sbrk_r
 .text.strlen   0x000089a8       0x10 c:/users/haris/appdata/local/arduino15/packages/arduino/tools/arm-none-eabi-gcc/4.8.3-2014q1/bin/../lib/gcc/arm-none-eabi/4.8.3/../../../../arm-none-eabi/lib/armv7e-m/fpu\libc_s.a(lib_a-strlen.o)
                0x000089a8                strlen
 .text._sbrk    0x000089b8       0x34 c:/users/haris/appdata/local/arduino15/packages/arduino/tools/arm-none-eabi-gcc/4.8.3-2014q1/bin/../lib/gcc/arm-none-eabi/4.8.3/../../../../arm-none-eabi/lib/armv7e-m/fpu\libnosys.a(sbrk.o)
                0x000089b8                _sbrk
 *(.init)
 .init          0x000089ec        0x4 c:/users/haris/appdata/local/arduino15/packages/arduino/tools/arm-none-eabi-gcc/4.8.3-2014q1/bin/../lib/gcc/arm-none-eabi/4.8.3/armv7e-m/fpu/crti.o
                0x000089ec                _init
 .init          0x000089f0        0x8 c:/users/haris/appdata/local/arduino15/packages/arduino/tools/arm-none-eabi-gcc/4.8.3-2014q1/bin/../lib/gcc/arm-none-eabi/4.8.3/armv7e-m/fpu/crtn.o
 *(.fini)
 .fini          0x000089f8        0x4 c:/users/haris/appdata/local/arduino15/packages/arduino/tools/arm-none-eabi-gcc/4.8.3-2014q1/bin/../lib/gcc/arm-none-eabi/4.8.3/armv7e-m/fpu/crti.o
                0x000089f8                _fini
 .fini          0x000089fc        0x8 c:/users/haris/appdata/local/arduino15/packages/arduino/tools/arm-none-eabi-gcc/4.8.3-2014q1/bin/../lib/gcc/arm-none-eabi/4.8.3/armv7e-m/fpu/crtn.o
 *crtbegin.o(.ctors)
 *crtbegin?.o(.ctors)
 *(EXCLUDE_FILE(*crtend.o *crtend?.o) .ctors)
 *(SORT(.ctors.*))
 *(.ctors)
 *crtbegin.o(.dtors)
 *crtbegin?.o(.dtors)
 *(EXCLUDE_FILE(*crtend.o *crtend?.o) .dtors)
 *(SORT(.dtors.*))
 *(.dtors)
 *(.rodata*)
 *fill*         0x00008a04        0x4 
 .rodata._ZTV12ModbusSerialI7Serial_E
                0x00008a08       0x28 C:\Users\Haris\AppData\Local\Temp\VMBuilds\Main_Siemens_Automation_824MSPe\haeger_haeger_samd_haeger_mcu1\Debug\Main_Siemens_Automation_824MSPe.cpp.o
                0x00008a08                vtable for ModbusSerial<Serial_>
 .rodata._ZL12fctsupported
                0x00008a30        0x8 C:\Users\Haris\AppData\Local\Temp\VMBuilds\Main_Siemens_Automation_824MSPe\haeger_haeger_samd_haeger_mcu1\Debug\Main_Siemens_Automation_824MSPe.cpp.o
 .rodata.g_APinDescription
                0x00008a38      0x570 C:\Users\Haris\AppData\Local\Temp\VMBCore\visualmicro\276ac5ba6e45f5143b737d9f0d9df4e9\variant\variant.cpp.o
                0x00008a38                g_APinDescription
 .rodata        0x00008fa8       0x18 C:\Users\Haris\AppData\Local\Temp\VMBuilds\Main_Siemens_Automation_824MSPe\haeger_haeger_samd_haeger_mcu1\Debug/core.a(wiring_analog.c.o)
 .rodata._ZTV7Serial_
                0x00008fc0       0x28 C:\Users\Haris\AppData\Local\Temp\VMBuilds\Main_Siemens_Automation_824MSPe\haeger_haeger_samd_haeger_mcu1\Debug/core.a(CDC.cpp.o)
                0x00008fc0                vtable for Serial_
 .rodata._ZTV26DoubleBufferedEPOutHandler
                0x00008fe8       0x18 C:\Users\Haris\AppData\Local\Temp\VMBuilds\Main_Siemens_Automation_824MSPe\haeger_haeger_samd_haeger_mcu1\Debug/core.a(USBCore.cpp.o)
                0x00008fe8                vtable for DoubleBufferedEPOutHandler
 .rodata._ZL19STRING_MANUFACTURER
                0x00009000        0x7 C:\Users\Haris\AppData\Local\Temp\VMBuilds\Main_Siemens_Automation_824MSPe\haeger_haeger_samd_haeger_mcu1\Debug/core.a(USBCore.cpp.o)
 *fill*         0x00009007        0x1 
 .rodata._ZL15STRING_LANGUAGE
                0x00009008        0x4 C:\Users\Haris\AppData\Local\Temp\VMBuilds\Main_Siemens_Automation_824MSPe\haeger_haeger_samd_haeger_mcu1\Debug/core.a(USBCore.cpp.o)
 .rodata._ZL21USB_DeviceDescriptorB
                0x0000900c       0x12 C:\Users\Haris\AppData\Local\Temp\VMBuilds\Main_Siemens_Automation_824MSPe\haeger_haeger_samd_haeger_mcu1\Debug/core.a(USBCore.cpp.o)
 .rodata._ZL14STRING_PRODUCT
                0x0000901e       0x1d C:\Users\Haris\AppData\Local\Temp\VMBuilds\Main_Siemens_Automation_824MSPe\haeger_haeger_samd_haeger_mcu1\Debug/core.a(USBCore.cpp.o)
 .rodata.str1.1
                0x0000903b        0x2 c:/users/haris/appdata/local/arduino15/packages/arduino/tools/arm-none-eabi-gcc/4.8.3-2014q1/bin/../lib/gcc/arm-none-eabi/4.8.3/../../../../arm-none-eabi/lib/armv7e-m/fpu\libc_s.a(lib_a-impure.o)
 *fill*         0x0000903d        0x3 
 .rodata.__sf_fake_stdin
                0x00009040       0x20 c:/users/haris/appdata/local/arduino15/packages/arduino/tools/arm-none-eabi-gcc/4.8.3-2014q1/bin/../lib/gcc/arm-none-eabi/4.8.3/../../../../arm-none-eabi/lib/armv7e-m/fpu\libc_s.a(lib_a-findfp.o)
                0x00009040                __sf_fake_stdin
 .rodata.__sf_fake_stdout
                0x00009060       0x20 c:/users/haris/appdata/local/arduino15/packages/arduino/tools/arm-none-eabi-gcc/4.8.3-2014q1/bin/../lib/gcc/arm-none-eabi/4.8.3/../../../../arm-none-eabi/lib/armv7e-m/fpu\libc_s.a(lib_a-findfp.o)
                0x00009060                __sf_fake_stdout
 .rodata.__sf_fake_stderr
                0x00009080       0x20 c:/users/haris/appdata/local/arduino15/packages/arduino/tools/arm-none-eabi-gcc/4.8.3-2014q1/bin/../lib/gcc/arm-none-eabi/4.8.3/../../../../arm-none-eabi/lib/armv7e-m/fpu\libc_s.a(lib_a-findfp.o)
                0x00009080                __sf_fake_stderr
 *(.eh_frame*)
 .eh_frame      0x000090a0        0x0 c:/users/haris/appdata/local/arduino15/packages/arduino/tools/arm-none-eabi-gcc/4.8.3-2014q1/bin/../lib/gcc/arm-none-eabi/4.8.3/armv7e-m/fpu/crtbegin.o
 .eh_frame      0x000090a0        0x4 c:/users/haris/appdata/local/arduino15/packages/arduino/tools/arm-none-eabi-gcc/4.8.3-2014q1/bin/../lib/gcc/arm-none-eabi/4.8.3/armv7e-m/fpu/crtend.o

.glue_7         0x000090a4        0x0
 .glue_7        0x00000000        0x0 linker stubs

.glue_7t        0x000090a4        0x0
 .glue_7t       0x00000000        0x0 linker stubs

.vfp11_veneer   0x000090a4        0x0
 .vfp11_veneer  0x00000000        0x0 linker stubs

.v4_bx          0x000090a4        0x0
 .v4_bx         0x00000000        0x0 linker stubs

.iplt           0x000090a4        0x0
 .iplt          0x00000000        0x0 c:/users/haris/appdata/local/arduino15/packages/arduino/tools/arm-none-eabi-gcc/4.8.3-2014q1/bin/../lib/gcc/arm-none-eabi/4.8.3/armv7e-m/fpu/crtbegin.o

.rel.dyn        0x000090a4        0x0
 .rel.iplt      0x00000000        0x0 c:/users/haris/appdata/local/arduino15/packages/arduino/tools/arm-none-eabi-gcc/4.8.3-2014q1/bin/../lib/gcc/arm-none-eabi/4.8.3/armv7e-m/fpu/crtbegin.o

.ARM.extab
 *(.ARM.extab* .gnu.linkonce.armextab.*)
                0x000090a4                __exidx_start = .

.ARM.exidx
 *(.ARM.exidx* .gnu.linkonce.armexidx.*)
                0x000090a4                __exidx_end = .
                0x000090a4                __etext = .

.data           0x20000000      0x150 load address 0x000090a4
                0x20000000                __data_start__ = .
 *(vtable)
 *(.data*)
 .data.TPS_Lock_Reset_Time
                0x20000000        0x4 C:\Users\Haris\AppData\Local\Temp\VMBuilds\Main_Siemens_Automation_824MSPe\haeger_haeger_samd_haeger_mcu1\Debug\Hydraulic_Cylinder_Function.cpp.o
                0x20000000                TPS_Lock_Reset_Time
 .data.intervalTimer1
                0x20000004        0x4 C:\Users\Haris\AppData\Local\Temp\VMBuilds\Main_Siemens_Automation_824MSPe\haeger_haeger_samd_haeger_mcu1\Debug\Timer_Function.cpp.o
                0x20000004                intervalTimer1
 .data.g_apTCInstances
                0x20000008       0x34 C:\Users\Haris\AppData\Local\Temp\VMBCore\visualmicro\276ac5ba6e45f5143b737d9f0d9df4e9\variant\variant.cpp.o
                0x20000008                g_apTCInstances
 .data._ADCResolution
                0x2000003c        0x4 C:\Users\Haris\AppData\Local\Temp\VMBuilds\Main_Siemens_Automation_824MSPe\haeger_haeger_samd_haeger_mcu1\Debug/core.a(wiring_analog.c.o)
 .data._writeResolution
                0x20000040        0x4 C:\Users\Haris\AppData\Local\Temp\VMBuilds\Main_Siemens_Automation_824MSPe\haeger_haeger_samd_haeger_mcu1\Debug/core.a(wiring_analog.c.o)
 .data._readResolution
                0x20000044        0x4 C:\Users\Haris\AppData\Local\Temp\VMBuilds\Main_Siemens_Automation_824MSPe\haeger_haeger_samd_haeger_mcu1\Debug/core.a(wiring_analog.c.o)
 .data._ZL5ticks
                0x20000048        0x4 C:\Users\Haris\AppData\Local\Temp\VMBuilds\Main_Siemens_Automation_824MSPe\haeger_haeger_samd_haeger_mcu1\Debug/core.a(Reset.cpp.o)
 .data._ZL12_usbLineInfo
                0x2000004c        0x8 C:\Users\Haris\AppData\Local\Temp\VMBuilds\Main_Siemens_Automation_824MSPe\haeger_haeger_samd_haeger_mcu1\Debug/core.a(CDC.cpp.o)
 .data._ZL10breakValue
                0x20000054        0x4 C:\Users\Haris\AppData\Local\Temp\VMBuilds\Main_Siemens_Automation_824MSPe\haeger_haeger_samd_haeger_mcu1\Debug/core.a(CDC.cpp.o)
 .data._ZL13_cdcInterface
                0x20000058       0x42 C:\Users\Haris\AppData\Local\Temp\VMBuilds\Main_Siemens_Automation_824MSPe\haeger_haeger_samd_haeger_mcu1\Debug/core.a(CDC.cpp.o)
 *fill*         0x2000009a        0x2 
 .data._serialPeek
                0x2000009c        0x4 C:\Users\Haris\AppData\Local\Temp\VMBuilds\Main_Siemens_Automation_824MSPe\haeger_haeger_samd_haeger_mcu1\Debug/core.a(CDC.cpp.o)
                0x2000009c                _serialPeek
 .data.EndPoints
                0x200000a0       0x28 C:\Users\Haris\AppData\Local\Temp\VMBuilds\Main_Siemens_Automation_824MSPe\haeger_haeger_samd_haeger_mcu1\Debug/core.a(USBCore.cpp.o)
                0x200000a0                EndPoints
 .data.SystemCoreClock
                0x200000c8        0x4 C:\Users\Haris\AppData\Local\Temp\VMBuilds\Main_Siemens_Automation_824MSPe\haeger_haeger_samd_haeger_mcu1\Debug/core.a(wiring.c.o)
                0x200000c8                SystemCoreClock
 .data.impure_data
                0x200000cc       0x60 c:/users/haris/appdata/local/arduino15/packages/arduino/tools/arm-none-eabi-gcc/4.8.3-2014q1/bin/../lib/gcc/arm-none-eabi/4.8.3/../../../../arm-none-eabi/lib/armv7e-m/fpu\libc_s.a(lib_a-impure.o)
 .data._impure_ptr
                0x2000012c        0x4 c:/users/haris/appdata/local/arduino15/packages/arduino/tools/arm-none-eabi-gcc/4.8.3-2014q1/bin/../lib/gcc/arm-none-eabi/4.8.3/../../../../arm-none-eabi/lib/armv7e-m/fpu\libc_s.a(lib_a-impure.o)
                0x2000012c                _impure_ptr
                0x20000130                . = ALIGN (0x4)
                0x20000130                PROVIDE (__preinit_array_start, .)
 *(.preinit_array)
                0x20000130                PROVIDE (__preinit_array_end, .)
                0x20000130                . = ALIGN (0x4)
                0x20000130                PROVIDE (__init_array_start, .)
 *(SORT(.init_array.*))
 *(.init_array)
 .init_array    0x20000130        0x4 c:/users/haris/appdata/local/arduino15/packages/arduino/tools/arm-none-eabi-gcc/4.8.3-2014q1/bin/../lib/gcc/arm-none-eabi/4.8.3/armv7e-m/fpu/crtbegin.o
 .init_array    0x20000134        0x4 C:\Users\Haris\AppData\Local\Temp\VMBuilds\Main_Siemens_Automation_824MSPe\haeger_haeger_samd_haeger_mcu1\Debug\Main_Siemens_Automation_824MSPe.cpp.o
 .init_array    0x20000138        0x4 C:\Users\Haris\AppData\Local\Temp\VMBuilds\Main_Siemens_Automation_824MSPe\haeger_haeger_samd_haeger_mcu1\Debug\SPI\SPI.cpp.o
 .init_array    0x2000013c        0x4 C:\Users\Haris\AppData\Local\Temp\VMBCore\visualmicro\276ac5ba6e45f5143b737d9f0d9df4e9\variant\variant.cpp.o
 .init_array    0x20000140        0x4 C:\Users\Haris\AppData\Local\Temp\VMBuilds\Main_Siemens_Automation_824MSPe\haeger_haeger_samd_haeger_mcu1\Debug/core.a(CDC.cpp.o)
 .init_array    0x20000144        0x4 C:\Users\Haris\AppData\Local\Temp\VMBuilds\Main_Siemens_Automation_824MSPe\haeger_haeger_samd_haeger_mcu1\Debug/core.a(USBCore.cpp.o)
                0x20000148                PROVIDE (__init_array_end, .)
                0x20000148                . = ALIGN (0x4)
                0x20000148                PROVIDE (__fini_array_start, .)
 *(SORT(.fini_array.*))
 *(.fini_array)
 .fini_array    0x20000148        0x4 c:/users/haris/appdata/local/arduino15/packages/arduino/tools/arm-none-eabi-gcc/4.8.3-2014q1/bin/../lib/gcc/arm-none-eabi/4.8.3/armv7e-m/fpu/crtbegin.o
                0x2000014c                PROVIDE (__fini_array_end, .)
 *(.jcr*)
 .jcr           0x2000014c        0x0 c:/users/haris/appdata/local/arduino15/packages/arduino/tools/arm-none-eabi-gcc/4.8.3-2014q1/bin/../lib/gcc/arm-none-eabi/4.8.3/armv7e-m/fpu/crtbegin.o
 .jcr           0x2000014c        0x4 c:/users/haris/appdata/local/arduino15/packages/arduino/tools/arm-none-eabi-gcc/4.8.3-2014q1/bin/../lib/gcc/arm-none-eabi/4.8.3/armv7e-m/fpu/crtend.o
                0x20000150                . = ALIGN (0x10)
                0x20000150                __data_end__ = .

.igot.plt       0x20000150        0x0 load address 0x000091f4
 .igot.plt      0x00000000        0x0 c:/users/haris/appdata/local/arduino15/packages/arduino/tools/arm-none-eabi-gcc/4.8.3-2014q1/bin/../lib/gcc/arm-none-eabi/4.8.3/armv7e-m/fpu/crtbegin.o

.bss            0x20000150      0x948 load address 0x000091f4
                0x20000150                . = ALIGN (0x4)
                0x20000150                __bss_start__ = .
 *(.bss*)
 .bss           0x20000150       0x1c c:/users/haris/appdata/local/arduino15/packages/arduino/tools/arm-none-eabi-gcc/4.8.3-2014q1/bin/../lib/gcc/arm-none-eabi/4.8.3/armv7e-m/fpu/crtbegin.o
 .bss.All_At_Position_MCU2
                0x2000016c        0x1 C:\Users\Haris\AppData\Local\Temp\VMBuilds\Main_Siemens_Automation_824MSPe\haeger_haeger_samd_haeger_mcu1\Debug\Main_Siemens_Automation_824MSPe.cpp.o
                0x2000016c                All_At_Position_MCU2
 .bss.Press_Complete_MCU2
                0x2000016d        0x1 C:\Users\Haris\AppData\Local\Temp\VMBuilds\Main_Siemens_Automation_824MSPe\haeger_haeger_samd_haeger_mcu1\Debug\Main_Siemens_Automation_824MSPe.cpp.o
                0x2000016d                Press_Complete_MCU2
 .bss.Robot_Hydraulic_Enabled_Input
                0x2000016e        0x1 C:\Users\Haris\AppData\Local\Temp\VMBuilds\Main_Siemens_Automation_824MSPe\haeger_haeger_samd_haeger_mcu1\Debug\Main_Siemens_Automation_824MSPe.cpp.o
                0x2000016e                Robot_Hydraulic_Enabled_Input
 .bss.Input1    0x2000016f        0x1 C:\Users\Haris\AppData\Local\Temp\VMBuilds\Main_Siemens_Automation_824MSPe\haeger_haeger_samd_haeger_mcu1\Debug\Main_Siemens_Automation_824MSPe.cpp.o
                0x2000016f                Input1
 .bss.TOS_Position_HMI
                0x20000170        0x4 C:\Users\Haris\AppData\Local\Temp\VMBuilds\Main_Siemens_Automation_824MSPe\haeger_haeger_samd_haeger_mcu1\Debug\Main_Siemens_Automation_824MSPe.cpp.o
                0x20000170                TOS_Position_HMI
 .bss.Robot_Lower_Tool_Pin_Sensor_Up_Output
                0x20000174        0x1 C:\Users\Haris\AppData\Local\Temp\VMBuilds\Main_Siemens_Automation_824MSPe\haeger_haeger_samd_haeger_mcu1\Debug\Main_Siemens_Automation_824MSPe.cpp.o
                0x20000174                Robot_Lower_Tool_Pin_Sensor_Up_Output
 .bss.TPS_Error
                0x20000175        0x1 C:\Users\Haris\AppData\Local\Temp\VMBuilds\Main_Siemens_Automation_824MSPe\haeger_haeger_samd_haeger_mcu1\Debug\Main_Siemens_Automation_824MSPe.cpp.o
                0x20000175                TPS_Error
 *fill*         0x20000176        0x2 
 .bss.Buzzer_Number_Beeps_HMI
                0x20000178        0x4 C:\Users\Haris\AppData\Local\Temp\VMBuilds\Main_Siemens_Automation_824MSPe\haeger_haeger_samd_haeger_mcu1\Debug\Main_Siemens_Automation_824MSPe.cpp.o
                0x20000178                Buzzer_Number_Beeps_HMI
 .bss.Work_Light_HMI
                0x2000017c        0x1 C:\Users\Haris\AppData\Local\Temp\VMBuilds\Main_Siemens_Automation_824MSPe\haeger_haeger_samd_haeger_mcu1\Debug\Main_Siemens_Automation_824MSPe.cpp.o
                0x2000017c                Work_Light_HMI
 .bss.EMG_Insertion_machine_Active
                0x2000017d        0x1 C:\Users\Haris\AppData\Local\Temp\VMBuilds\Main_Siemens_Automation_824MSPe\haeger_haeger_samd_haeger_mcu1\Debug\Main_Siemens_Automation_824MSPe.cpp.o
                0x2000017d                EMG_Insertion_machine_Active
 .bss.MCU_Lower_Tool_Pin_Up_Output
                0x2000017e        0x1 C:\Users\Haris\AppData\Local\Temp\VMBuilds\Main_Siemens_Automation_824MSPe\haeger_haeger_samd_haeger_mcu1\Debug\Main_Siemens_Automation_824MSPe.cpp.o
                0x2000017e                MCU_Lower_Tool_Pin_Up_Output
 .bss.Timer1_Q  0x2000017f        0x1 C:\Users\Haris\AppData\Local\Temp\VMBuilds\Main_Siemens_Automation_824MSPe\haeger_haeger_samd_haeger_mcu1\Debug\Main_Siemens_Automation_824MSPe.cpp.o
                0x2000017f                Timer1_Q
 .bss.Robot_Lower_Tool_Pin_Sensor_Down_Output
                0x20000180        0x1 C:\Users\Haris\AppData\Local\Temp\VMBuilds\Main_Siemens_Automation_824MSPe\haeger_haeger_samd_haeger_mcu1\Debug\Main_Siemens_Automation_824MSPe.cpp.o
                0x20000180                Robot_Lower_Tool_Pin_Sensor_Down_Output
 *fill*         0x20000181        0x3 
 .bss.Robot_Program_ID_To_HMI
                0x20000184        0x4 C:\Users\Haris\AppData\Local\Temp\VMBuilds\Main_Siemens_Automation_824MSPe\haeger_haeger_samd_haeger_mcu1\Debug\Main_Siemens_Automation_824MSPe.cpp.o
                0x20000184                Robot_Program_ID_To_HMI
 .bss.CET       0x20000188       0x38 C:\Users\Haris\AppData\Local\Temp\VMBuilds\Main_Siemens_Automation_824MSPe\haeger_haeger_samd_haeger_mcu1\Debug\Main_Siemens_Automation_824MSPe.cpp.o
                0x20000188                CET
 .bss.Error_Reset_HMI
                0x200001c0        0x1 C:\Users\Haris\AppData\Local\Temp\VMBuilds\Main_Siemens_Automation_824MSPe\haeger_haeger_samd_haeger_mcu1\Debug\Main_Siemens_Automation_824MSPe.cpp.o
                0x200001c0                Error_Reset_HMI
 .bss.MCU_Mode_Key_Switch_Input2
                0x200001c1        0x1 C:\Users\Haris\AppData\Local\Temp\VMBuilds\Main_Siemens_Automation_824MSPe\haeger_haeger_samd_haeger_mcu1\Debug\Main_Siemens_Automation_824MSPe.cpp.o
                0x200001c1                MCU_Mode_Key_Switch_Input2
 .bss.Buzzer_HMI
                0x200001c2        0x1 C:\Users\Haris\AppData\Local\Temp\VMBuilds\Main_Siemens_Automation_824MSPe\haeger_haeger_samd_haeger_mcu1\Debug\Main_Siemens_Automation_824MSPe.cpp.o
                0x200001c2                Buzzer_HMI
 *fill*         0x200001c3        0x1 
 .bss.TPS_Calibrated_Upper_Value_HMI
                0x200001c4        0x4 C:\Users\Haris\AppData\Local\Temp\VMBuilds\Main_Siemens_Automation_824MSPe\haeger_haeger_samd_haeger_mcu1\Debug\Main_Siemens_Automation_824MSPe.cpp.o
                0x200001c4                TPS_Calibrated_Upper_Value_HMI
 .bss.Fastener_Length_HMI
                0x200001c8        0x1 C:\Users\Haris\AppData\Local\Temp\VMBuilds\Main_Siemens_Automation_824MSPe\haeger_haeger_samd_haeger_mcu1\Debug\Main_Siemens_Automation_824MSPe.cpp.o
                0x200001c8                Fastener_Length_HMI
 *fill*         0x200001c9        0x3 
 .bss.Buzzer_Beep_Time_HMI
                0x200001cc        0x4 C:\Users\Haris\AppData\Local\Temp\VMBuilds\Main_Siemens_Automation_824MSPe\haeger_haeger_samd_haeger_mcu1\Debug\Main_Siemens_Automation_824MSPe.cpp.o
                0x200001cc                Buzzer_Beep_Time_HMI
 .bss.E_Stop_EXT_2_Robot
                0x200001d0        0x1 C:\Users\Haris\AppData\Local\Temp\VMBuilds\Main_Siemens_Automation_824MSPe\haeger_haeger_samd_haeger_mcu1\Debug\Main_Siemens_Automation_824MSPe.cpp.o
                0x200001d0                E_Stop_EXT_2_Robot
 *fill*         0x200001d1        0x3 
 .bss.Program_Byte_From_HMI
                0x200001d4        0x4 C:\Users\Haris\AppData\Local\Temp\VMBuilds\Main_Siemens_Automation_824MSPe\haeger_haeger_samd_haeger_mcu1\Debug\Main_Siemens_Automation_824MSPe.cpp.o
                0x200001d4                Program_Byte_From_HMI
 .bss.Robot_EMG_Error_Reset
                0x200001d8        0x1 C:\Users\Haris\AppData\Local\Temp\VMBuilds\Main_Siemens_Automation_824MSPe\haeger_haeger_samd_haeger_mcu1\Debug\Main_Siemens_Automation_824MSPe.cpp.o
                0x200001d8                Robot_EMG_Error_Reset
 .bss.EMG_Error_Reset_MCU1
                0x200001d9        0x1 C:\Users\Haris\AppData\Local\Temp\VMBuilds\Main_Siemens_Automation_824MSPe\haeger_haeger_samd_haeger_mcu1\Debug\Main_Siemens_Automation_824MSPe.cpp.o
                0x200001d9                EMG_Error_Reset_MCU1
 .bss.EMG_Error_Reset_MCU2
                0x200001da        0x1 C:\Users\Haris\AppData\Local\Temp\VMBuilds\Main_Siemens_Automation_824MSPe\haeger_haeger_samd_haeger_mcu1\Debug\Main_Siemens_Automation_824MSPe.cpp.o
                0x200001da                EMG_Error_Reset_MCU2
 .bss.Non_Conductive_Stop1
                0x200001db        0x1 C:\Users\Haris\AppData\Local\Temp\VMBuilds\Main_Siemens_Automation_824MSPe\haeger_haeger_samd_haeger_mcu1\Debug\Main_Siemens_Automation_824MSPe.cpp.o
                0x200001db                Non_Conductive_Stop1
 .bss.Non_Conductive_Stop2
                0x200001dc        0x1 C:\Users\Haris\AppData\Local\Temp\VMBuilds\Main_Siemens_Automation_824MSPe\haeger_haeger_samd_haeger_mcu1\Debug\Main_Siemens_Automation_824MSPe.cpp.o
                0x200001dc                Non_Conductive_Stop2
 .bss.Error_Set_HMI_MCU2
                0x200001dd        0x1 C:\Users\Haris\AppData\Local\Temp\VMBuilds\Main_Siemens_Automation_824MSPe\haeger_haeger_samd_haeger_mcu1\Debug\Main_Siemens_Automation_824MSPe.cpp.o
                0x200001dd                Error_Set_HMI_MCU2
 .bss.Robot_Press_Signal
                0x200001de        0x1 C:\Users\Haris\AppData\Local\Temp\VMBuilds\Main_Siemens_Automation_824MSPe\haeger_haeger_samd_haeger_mcu1\Debug\Main_Siemens_Automation_824MSPe.cpp.o
                0x200001de                Robot_Press_Signal
 .bss.Hydraulic_Enable_HMI
                0x200001df        0x1 C:\Users\Haris\AppData\Local\Temp\VMBuilds\Main_Siemens_Automation_824MSPe\haeger_haeger_samd_haeger_mcu1\Debug\Main_Siemens_Automation_824MSPe.cpp.o
                0x200001df                Hydraulic_Enable_HMI
 .bss.MCU1_Version_Number
                0x200001e0        0x4 C:\Users\Haris\AppData\Local\Temp\VMBuilds\Main_Siemens_Automation_824MSPe\haeger_haeger_samd_haeger_mcu1\Debug\Main_Siemens_Automation_824MSPe.cpp.o
                0x200001e0                MCU1_Version_Number
 .bss.Robot_EMG_Error_Set
                0x200001e4        0x1 C:\Users\Haris\AppData\Local\Temp\VMBuilds\Main_Siemens_Automation_824MSPe\haeger_haeger_samd_haeger_mcu1\Debug\Main_Siemens_Automation_824MSPe.cpp.o
                0x200001e4                Robot_EMG_Error_Set
 .bss.Toolingcontact_Switched_State
                0x200001e5        0x1 C:\Users\Haris\AppData\Local\Temp\VMBuilds\Main_Siemens_Automation_824MSPe\haeger_haeger_samd_haeger_mcu1\Debug\Main_Siemens_Automation_824MSPe.cpp.o
                0x200001e5                Toolingcontact_Switched_State
 .bss.Robot_Lower_Tool_Pin_Up
                0x200001e6        0x1 C:\Users\Haris\AppData\Local\Temp\VMBuilds\Main_Siemens_Automation_824MSPe\haeger_haeger_samd_haeger_mcu1\Debug\Main_Siemens_Automation_824MSPe.cpp.o
                0x200001e6                Robot_Lower_Tool_Pin_Up
 .bss.MCU_Mode_Key_Switch_Input1
                0x200001e7        0x1 C:\Users\Haris\AppData\Local\Temp\VMBuilds\Main_Siemens_Automation_824MSPe\haeger_haeger_samd_haeger_mcu1\Debug\Main_Siemens_Automation_824MSPe.cpp.o
                0x200001e7                MCU_Mode_Key_Switch_Input1
 .bss.Robot_Press_Active_MCU2
                0x200001e8        0x1 C:\Users\Haris\AppData\Local\Temp\VMBuilds\Main_Siemens_Automation_824MSPe\haeger_haeger_samd_haeger_mcu1\Debug\Main_Siemens_Automation_824MSPe.cpp.o
                0x200001e8                Robot_Press_Active_MCU2
 .bss.EMG_System_Active_MCU2
                0x200001e9        0x1 C:\Users\Haris\AppData\Local\Temp\VMBuilds\Main_Siemens_Automation_824MSPe\haeger_haeger_samd_haeger_mcu1\Debug\Main_Siemens_Automation_824MSPe.cpp.o
                0x200001e9                EMG_System_Active_MCU2
 *fill*         0x200001ea        0x2 
 .bss.TPS_Calibrated_Lower_Value_HMI
                0x200001ec        0x4 C:\Users\Haris\AppData\Local\Temp\VMBuilds\Main_Siemens_Automation_824MSPe\haeger_haeger_samd_haeger_mcu1\Debug\Main_Siemens_Automation_824MSPe.cpp.o
                0x200001ec                TPS_Calibrated_Lower_Value_HMI
 .bss.Robot_Lower_Tool_Pin_Down
                0x200001f0        0x1 C:\Users\Haris\AppData\Local\Temp\VMBuilds\Main_Siemens_Automation_824MSPe\haeger_haeger_samd_haeger_mcu1\Debug\Main_Siemens_Automation_824MSPe.cpp.o
                0x200001f0                Robot_Lower_Tool_Pin_Down
 .bss.Robot_All_At_Position
                0x200001f1        0x1 C:\Users\Haris\AppData\Local\Temp\VMBuilds\Main_Siemens_Automation_824MSPe\haeger_haeger_samd_haeger_mcu1\Debug\Main_Siemens_Automation_824MSPe.cpp.o
                0x200001f1                Robot_All_At_Position
 .bss.EMG_System_Active_HMI
                0x200001f2        0x1 C:\Users\Haris\AppData\Local\Temp\VMBuilds\Main_Siemens_Automation_824MSPe\haeger_haeger_samd_haeger_mcu1\Debug\Main_Siemens_Automation_824MSPe.cpp.o
                0x200001f2                EMG_System_Active_HMI
 .bss.Hyd_Cyl_Up_Release_Active
                0x200001f3        0x1 C:\Users\Haris\AppData\Local\Temp\VMBuilds\Main_Siemens_Automation_824MSPe\haeger_haeger_samd_haeger_mcu1\Debug\Main_Siemens_Automation_824MSPe.cpp.o
                0x200001f3                Hyd_Cyl_Up_Release_Active
 .bss.TPS_Offset_Value_HMI
                0x200001f4        0x4 C:\Users\Haris\AppData\Local\Temp\VMBuilds\Main_Siemens_Automation_824MSPe\haeger_haeger_samd_haeger_mcu1\Debug\Main_Siemens_Automation_824MSPe.cpp.o
                0x200001f4                TPS_Offset_Value_HMI
 .bss.MCU_Lower_Tool_Pin_Sensor_Up_Input
                0x200001f8        0x1 C:\Users\Haris\AppData\Local\Temp\VMBuilds\Main_Siemens_Automation_824MSPe\haeger_haeger_samd_haeger_mcu1\Debug\Main_Siemens_Automation_824MSPe.cpp.o
                0x200001f8                MCU_Lower_Tool_Pin_Sensor_Up_Input
 .bss.Robot_Shuttle_Lock
                0x200001f9        0x1 C:\Users\Haris\AppData\Local\Temp\VMBuilds\Main_Siemens_Automation_824MSPe\haeger_haeger_samd_haeger_mcu1\Debug\Main_Siemens_Automation_824MSPe.cpp.o
                0x200001f9                Robot_Shuttle_Lock
 .bss.Robot_Mode_Active_MCU1
                0x200001fa        0x1 C:\Users\Haris\AppData\Local\Temp\VMBuilds\Main_Siemens_Automation_824MSPe\haeger_haeger_samd_haeger_mcu1\Debug\Main_Siemens_Automation_824MSPe.cpp.o
                0x200001fa                Robot_Mode_Active_MCU1
 .bss.Robot_Mode_Active_MCU2
                0x200001fb        0x1 C:\Users\Haris\AppData\Local\Temp\VMBuilds\Main_Siemens_Automation_824MSPe\haeger_haeger_samd_haeger_mcu1\Debug\Main_Siemens_Automation_824MSPe.cpp.o
                0x200001fb                Robot_Mode_Active_MCU2
 .bss.Machine_Init_State
                0x200001fc        0x1 C:\Users\Haris\AppData\Local\Temp\VMBuilds\Main_Siemens_Automation_824MSPe\haeger_haeger_samd_haeger_mcu1\Debug\Main_Siemens_Automation_824MSPe.cpp.o
                0x200001fc                Machine_Init_State
 .bss.Robot_Press_Active_MCU1
                0x200001fd        0x1 C:\Users\Haris\AppData\Local\Temp\VMBuilds\Main_Siemens_Automation_824MSPe\haeger_haeger_samd_haeger_mcu1\Debug\Main_Siemens_Automation_824MSPe.cpp.o
                0x200001fd                Robot_Press_Active_MCU1
 *fill*         0x200001fe        0x2 
 .bss.Bypass_Upper_Value_HMI
                0x20000200        0x4 C:\Users\Haris\AppData\Local\Temp\VMBuilds\Main_Siemens_Automation_824MSPe\haeger_haeger_samd_haeger_mcu1\Debug\Main_Siemens_Automation_824MSPe.cpp.o
                0x20000200                Bypass_Upper_Value_HMI
 .bss.Robot_Shuttle_Lock_MCU2
                0x20000204        0x1 C:\Users\Haris\AppData\Local\Temp\VMBuilds\Main_Siemens_Automation_824MSPe\haeger_haeger_samd_haeger_mcu1\Debug\Main_Siemens_Automation_824MSPe.cpp.o
                0x20000204                Robot_Shuttle_Lock_MCU2
 *fill*         0x20000205        0x3 
 .bss.Read_Coil_4
                0x20000208        0x4 C:\Users\Haris\AppData\Local\Temp\VMBuilds\Main_Siemens_Automation_824MSPe\haeger_haeger_samd_haeger_mcu1\Debug\Main_Siemens_Automation_824MSPe.cpp.o
                0x20000208                Read_Coil_4
 .bss.Force_Set_Value_HMI
                0x2000020c        0x4 C:\Users\Haris\AppData\Local\Temp\VMBuilds\Main_Siemens_Automation_824MSPe\haeger_haeger_samd_haeger_mcu1\Debug\Main_Siemens_Automation_824MSPe.cpp.o
                0x2000020c                Force_Set_Value_HMI
 .bss.MCU_Lower_Tool_Pin_Sensor_Down_Input
                0x20000210        0x1 C:\Users\Haris\AppData\Local\Temp\VMBuilds\Main_Siemens_Automation_824MSPe\haeger_haeger_samd_haeger_mcu1\Debug\Main_Siemens_Automation_824MSPe.cpp.o
                0x20000210                MCU_Lower_Tool_Pin_Sensor_Down_Input
 *fill*         0x20000211        0x3 
 .bss.Outputs_Y1
                0x20000214       0x1c C:\Users\Haris\AppData\Local\Temp\VMBuilds\Main_Siemens_Automation_824MSPe\haeger_haeger_samd_haeger_mcu1\Debug\Main_Siemens_Automation_824MSPe.cpp.o
                0x20000214                Outputs_Y1
 .bss.Robot_Program_Byte
                0x20000230        0x4 C:\Users\Haris\AppData\Local\Temp\VMBuilds\Main_Siemens_Automation_824MSPe\haeger_haeger_samd_haeger_mcu1\Debug\Main_Siemens_Automation_824MSPe.cpp.o
                0x20000230                Robot_Program_Byte
 .bss.Tooling_Mode_HMI
                0x20000234        0x4 C:\Users\Haris\AppData\Local\Temp\VMBuilds\Main_Siemens_Automation_824MSPe\haeger_haeger_samd_haeger_mcu1\Debug\Main_Siemens_Automation_824MSPe.cpp.o
                0x20000234                Tooling_Mode_HMI
 .bss.Robot_Pressure_Switch_Output
                0x20000238        0x4 C:\Users\Haris\AppData\Local\Temp\VMBuilds\Main_Siemens_Automation_824MSPe\haeger_haeger_samd_haeger_mcu1\Debug\Main_Siemens_Automation_824MSPe.cpp.o
                0x20000238                Robot_Pressure_Switch_Output
 .bss.Robot_Error_Reset_Input
                0x2000023c        0x1 C:\Users\Haris\AppData\Local\Temp\VMBuilds\Main_Siemens_Automation_824MSPe\haeger_haeger_samd_haeger_mcu1\Debug\Main_Siemens_Automation_824MSPe.cpp.o
                0x2000023c                Robot_Error_Reset_Input
 .bss.Robot_Press_Complete
                0x2000023d        0x1 C:\Users\Haris\AppData\Local\Temp\VMBuilds\Main_Siemens_Automation_824MSPe\haeger_haeger_samd_haeger_mcu1\Debug\Main_Siemens_Automation_824MSPe.cpp.o
                0x2000023d                Robot_Press_Complete
 *fill*         0x2000023e        0x2 
 .bss.Write_Coil_4
                0x20000240        0x4 C:\Users\Haris\AppData\Local\Temp\VMBuilds\Main_Siemens_Automation_824MSPe\haeger_haeger_samd_haeger_mcu1\Debug\Main_Siemens_Automation_824MSPe.cpp.o
                0x20000240                Write_Coil_4
 .bss.Robot_Mode_Active_Output1
                0x20000244        0x1 C:\Users\Haris\AppData\Local\Temp\VMBuilds\Main_Siemens_Automation_824MSPe\haeger_haeger_samd_haeger_mcu1\Debug\Main_Siemens_Automation_824MSPe.cpp.o
                0x20000244                Robot_Mode_Active_Output1
 .bss.Robot_Mode_Active_Output2
                0x20000245        0x1 C:\Users\Haris\AppData\Local\Temp\VMBuilds\Main_Siemens_Automation_824MSPe\haeger_haeger_samd_haeger_mcu1\Debug\Main_Siemens_Automation_824MSPe.cpp.o
                0x20000245                Robot_Mode_Active_Output2
 *fill*         0x20000246        0x2 
 .bss.device    0x20000248       0x64 C:\Users\Haris\AppData\Local\Temp\VMBuilds\Main_Siemens_Automation_824MSPe\haeger_haeger_samd_haeger_mcu1\Debug\Main_Siemens_Automation_824MSPe.cpp.o
                0x20000248                device
 .bss.Robot_Error_Reset_MCU2
                0x200002ac        0x1 C:\Users\Haris\AppData\Local\Temp\VMBuilds\Main_Siemens_Automation_824MSPe\haeger_haeger_samd_haeger_mcu1\Debug\Main_Siemens_Automation_824MSPe.cpp.o
                0x200002ac                Robot_Error_Reset_MCU2
 *fill*         0x200002ad        0x3 
 .bss.mySerial  0x200002b0        0x8 C:\Users\Haris\AppData\Local\Temp\VMBuilds\Main_Siemens_Automation_824MSPe\haeger_haeger_samd_haeger_mcu1\Debug\Main_Siemens_Automation_824MSPe.cpp.o
                0x200002b0                mySerial
 .bss.Robot_Hydraulic_Enable
                0x200002b8        0x1 C:\Users\Haris\AppData\Local\Temp\VMBuilds\Main_Siemens_Automation_824MSPe\haeger_haeger_samd_haeger_mcu1\Debug\Main_Siemens_Automation_824MSPe.cpp.o
                0x200002b8                Robot_Hydraulic_Enable
 .bss.Setup_Stroke_HMI
                0x200002b9        0x1 C:\Users\Haris\AppData\Local\Temp\VMBuilds\Main_Siemens_Automation_824MSPe\haeger_haeger_samd_haeger_mcu1\Debug\Main_Siemens_Automation_824MSPe.cpp.o
                0x200002b9                Setup_Stroke_HMI
 .bss.Machine_Run_State
                0x200002ba        0x1 C:\Users\Haris\AppData\Local\Temp\VMBuilds\Main_Siemens_Automation_824MSPe\haeger_haeger_samd_haeger_mcu1\Debug\Main_Siemens_Automation_824MSPe.cpp.o
                0x200002ba                Machine_Run_State
 .bss.Safety_Sensor_Error
                0x200002bb        0x1 C:\Users\Haris\AppData\Local\Temp\VMBuilds\Main_Siemens_Automation_824MSPe\haeger_haeger_samd_haeger_mcu1\Debug\Main_Siemens_Automation_824MSPe.cpp.o
                0x200002bb                Safety_Sensor_Error
 .bss.Bypass_Lower_Value_HMI
                0x200002bc        0x4 C:\Users\Haris\AppData\Local\Temp\VMBuilds\Main_Siemens_Automation_824MSPe\haeger_haeger_samd_haeger_mcu1\Debug\Main_Siemens_Automation_824MSPe.cpp.o
                0x200002bc                Bypass_Lower_Value_HMI
 .bss.E_Stop_EXT_1_Robot
                0x200002c0        0x1 C:\Users\Haris\AppData\Local\Temp\VMBuilds\Main_Siemens_Automation_824MSPe\haeger_haeger_samd_haeger_mcu1\Debug\Main_Siemens_Automation_824MSPe.cpp.o
                0x200002c0                E_Stop_EXT_1_Robot
 .bss.MCU_Lower_Tool_Pin_Down_Output
                0x200002c1        0x1 C:\Users\Haris\AppData\Local\Temp\VMBuilds\Main_Siemens_Automation_824MSPe\haeger_haeger_samd_haeger_mcu1\Debug\Main_Siemens_Automation_824MSPe.cpp.o
                0x200002c1                MCU_Lower_Tool_Pin_Down_Output
 *fill*         0x200002c2        0x2 
 .bss.tempus    0x200002c4        0x4 C:\Users\Haris\AppData\Local\Temp\VMBuilds\Main_Siemens_Automation_824MSPe\haeger_haeger_samd_haeger_mcu1\Debug\Main_Siemens_Automation_824MSPe.cpp.o
                0x200002c4                tempus
 .bss.Hydraulic_Active
                0x200002c8        0x1 C:\Users\Haris\AppData\Local\Temp\VMBuilds\Main_Siemens_Automation_824MSPe\haeger_haeger_samd_haeger_mcu1\Debug\Main_Siemens_Automation_824MSPe.cpp.o
                0x200002c8                Hydraulic_Active
 *fill*         0x200002c9        0x3 
 .bss.TOS       0x200002cc        0x4 C:\Users\Haris\AppData\Local\Temp\VMBuilds\Main_Siemens_Automation_824MSPe\haeger_haeger_samd_haeger_mcu1\Debug\Main_Siemens_Automation_824MSPe.cpp.o
                0x200002cc                TOS
 .bss.Robot_MAS_Feed_Signal
                0x200002d0        0x1 C:\Users\Haris\AppData\Local\Temp\VMBuilds\Main_Siemens_Automation_824MSPe\haeger_haeger_samd_haeger_mcu1\Debug\Main_Siemens_Automation_824MSPe.cpp.o
                0x200002d0                Robot_MAS_Feed_Signal
 .bss.Hyd_Cyl_Down_Release_Active
                0x200002d1        0x1 C:\Users\Haris\AppData\Local\Temp\VMBuilds\Main_Siemens_Automation_824MSPe\haeger_haeger_samd_haeger_mcu1\Debug\Main_Siemens_Automation_824MSPe.cpp.o
                0x200002d1                Hyd_Cyl_Down_Release_Active
 .bss.Error_Screen_Active_HMI
                0x200002d2        0x1 C:\Users\Haris\AppData\Local\Temp\VMBuilds\Main_Siemens_Automation_824MSPe\haeger_haeger_samd_haeger_mcu1\Debug\Main_Siemens_Automation_824MSPe.cpp.o
                0x200002d2                Error_Screen_Active_HMI
 *fill*         0x200002d3        0x1 
 .bss.Analog_CET
                0x200002d4        0x4 C:\Users\Haris\AppData\Local\Temp\VMBuilds\Main_Siemens_Automation_824MSPe\haeger_haeger_samd_haeger_mcu1\Debug\Main_Siemens_Automation_824MSPe.cpp.o
                0x200002d4                Analog_CET
 .bss.Fastener_Length_Calibrated_Value_HMI
                0x200002d8        0x4 C:\Users\Haris\AppData\Local\Temp\VMBuilds\Main_Siemens_Automation_824MSPe\haeger_haeger_samd_haeger_mcu1\Debug\Main_Siemens_Automation_824MSPe.cpp.o
                0x200002d8                Fastener_Length_Calibrated_Value_HMI
 .bss.state     0x200002dc        0x1 C:\Users\Haris\AppData\Local\Temp\VMBuilds\Main_Siemens_Automation_824MSPe\haeger_haeger_samd_haeger_mcu1\Debug\Main_Siemens_Automation_824MSPe.cpp.o
                0x200002dc                state
 .bss.Machine_Idle_State
                0x200002dd        0x1 C:\Users\Haris\AppData\Local\Temp\VMBuilds\Main_Siemens_Automation_824MSPe\haeger_haeger_samd_haeger_mcu1\Debug\Main_Siemens_Automation_824MSPe.cpp.o
                0x200002dd                Machine_Idle_State
 *fill*         0x200002de        0x2 
 .bss.Robot_CetValue_Output
                0x200002e0        0x4 C:\Users\Haris\AppData\Local\Temp\VMBuilds\Main_Siemens_Automation_824MSPe\haeger_haeger_samd_haeger_mcu1\Debug\Main_Siemens_Automation_824MSPe.cpp.o
                0x200002e0                Robot_CetValue_Output
 .bss.Lower_Tool_Pin_Up_Sensor_MCU2
                0x200002e4        0x1 C:\Users\Haris\AppData\Local\Temp\VMBuilds\Main_Siemens_Automation_824MSPe\haeger_haeger_samd_haeger_mcu1\Debug\Main_Siemens_Automation_824MSPe.cpp.o
                0x200002e4                Lower_Tool_Pin_Up_Sensor_MCU2
 .bss.Input0    0x200002e5        0x1 C:\Users\Haris\AppData\Local\Temp\VMBuilds\Main_Siemens_Automation_824MSPe\haeger_haeger_samd_haeger_mcu1\Debug\Main_Siemens_Automation_824MSPe.cpp.o
                0x200002e5                Input0
 .bss.Robot_Error_Set
                0x200002e6        0x1 C:\Users\Haris\AppData\Local\Temp\VMBuilds\Main_Siemens_Automation_824MSPe\haeger_haeger_samd_haeger_mcu1\Debug\Main_Siemens_Automation_824MSPe.cpp.o
                0x200002e6                Robot_Error_Set
 .bss.Input2    0x200002e7        0x1 C:\Users\Haris\AppData\Local\Temp\VMBuilds\Main_Siemens_Automation_824MSPe\haeger_haeger_samd_haeger_mcu1\Debug\Main_Siemens_Automation_824MSPe.cpp.o
                0x200002e7                Input2
 .bss.SSSF_Safety_Sensor_Error
                0x200002e8        0x1 C:\Users\Haris\AppData\Local\Temp\VMBuilds\Main_Siemens_Automation_824MSPe\haeger_haeger_samd_haeger_mcu1\Debug\Main_Siemens_Automation_824MSPe.cpp.o
                0x200002e8                SSSF_Safety_Sensor_Error
 *fill*         0x200002e9        0x3 
 .bss.Buzzer_Silent_Time_HMI
                0x200002ec        0x4 C:\Users\Haris\AppData\Local\Temp\VMBuilds\Main_Siemens_Automation_824MSPe\haeger_haeger_samd_haeger_mcu1\Debug\Main_Siemens_Automation_824MSPe.cpp.o
                0x200002ec                Buzzer_Silent_Time_HMI
 .bss.Outputs_Y2
                0x200002f0       0x1c C:\Users\Haris\AppData\Local\Temp\VMBuilds\Main_Siemens_Automation_824MSPe\haeger_haeger_samd_haeger_mcu1\Debug\Main_Siemens_Automation_824MSPe.cpp.o
                0x200002f0                Outputs_Y2
 .bss.Laser_Light_HMI
                0x2000030c        0x1 C:\Users\Haris\AppData\Local\Temp\VMBuilds\Main_Siemens_Automation_824MSPe\haeger_haeger_samd_haeger_mcu1\Debug\Main_Siemens_Automation_824MSPe.cpp.o
                0x2000030c                Laser_Light_HMI
 .bss.Robot_Feed_Fastener_MCU2
                0x2000030d        0x1 C:\Users\Haris\AppData\Local\Temp\VMBuilds\Main_Siemens_Automation_824MSPe\haeger_haeger_samd_haeger_mcu1\Debug\Main_Siemens_Automation_824MSPe.cpp.o
                0x2000030d                Robot_Feed_Fastener_MCU2
 .bss.Timer1_Start
                0x2000030e        0x1 C:\Users\Haris\AppData\Local\Temp\VMBuilds\Main_Siemens_Automation_824MSPe\haeger_haeger_samd_haeger_mcu1\Debug\Main_Siemens_Automation_824MSPe.cpp.o
                0x2000030e                Timer1_Start
 .bss.ConductiveM_HMI
                0x2000030f        0x1 C:\Users\Haris\AppData\Local\Temp\VMBuilds\Main_Siemens_Automation_824MSPe\haeger_haeger_samd_haeger_mcu1\Debug\Main_Siemens_Automation_824MSPe.cpp.o
                0x2000030f                ConductiveM_HMI
 .bss.Lower_Tool_Pin_Down_Sensor_MCU2
                0x20000310        0x1 C:\Users\Haris\AppData\Local\Temp\VMBuilds\Main_Siemens_Automation_824MSPe\haeger_haeger_samd_haeger_mcu1\Debug\Main_Siemens_Automation_824MSPe.cpp.o
                0x20000310                Lower_Tool_Pin_Down_Sensor_MCU2
 *fill*         0x20000311        0x1 
 .bss.au16data  0x20000312      0x10a C:\Users\Haris\AppData\Local\Temp\VMBuilds\Main_Siemens_Automation_824MSPe\haeger_haeger_samd_haeger_mcu1\Debug\Main_Siemens_Automation_824MSPe.cpp.o
                0x20000312                au16data
 .bss.Safety_Sensor_Switched_State
                0x2000041c        0x1 C:\Users\Haris\AppData\Local\Temp\VMBuilds\Main_Siemens_Automation_824MSPe\haeger_haeger_samd_haeger_mcu1\Debug\Main_Siemens_Automation_824MSPe.cpp.o
                0x2000041c                Safety_Sensor_Switched_State
 *fill*         0x2000041d        0x3 
 .bss.CetValue_Bypass_Function
                0x20000420        0x4 C:\Users\Haris\AppData\Local\Temp\VMBuilds\Main_Siemens_Automation_824MSPe\haeger_haeger_samd_haeger_mcu1\Debug\Bypass_Function.cpp.o
                0x20000420                CetValue_Bypass_Function
 .bss.Local_Up_Active
                0x20000424        0x1 C:\Users\Haris\AppData\Local\Temp\VMBuilds\Main_Siemens_Automation_824MSPe\haeger_haeger_samd_haeger_mcu1\Debug\Footpedal_Function.cpp.o
                0x20000424                Local_Up_Active
 .bss.Down_Pedal_Release
                0x20000425        0x1 C:\Users\Haris\AppData\Local\Temp\VMBuilds\Main_Siemens_Automation_824MSPe\haeger_haeger_samd_haeger_mcu1\Debug\Footpedal_Function.cpp.o
                0x20000425                Down_Pedal_Release
 *fill*         0x20000426        0x2 
 .bss.Timer_1   0x20000428        0x4 C:\Users\Haris\AppData\Local\Temp\VMBuilds\Main_Siemens_Automation_824MSPe\haeger_haeger_samd_haeger_mcu1\Debug\Hydraulic_Cylinder_Function.cpp.o
                0x20000428                Timer_1
 .bss.TPS_Lock_Reset
                0x2000042c        0x1 C:\Users\Haris\AppData\Local\Temp\VMBuilds\Main_Siemens_Automation_824MSPe\haeger_haeger_samd_haeger_mcu1\Debug\Hydraulic_Cylinder_Function.cpp.o
                0x2000042c                TPS_Lock_Reset
 .bss.TPS_Cylinder_Lock
                0x2000042d        0x1 C:\Users\Haris\AppData\Local\Temp\VMBuilds\Main_Siemens_Automation_824MSPe\haeger_haeger_samd_haeger_mcu1\Debug\Hydraulic_Cylinder_Function.cpp.o
                0x2000042d                TPS_Cylinder_Lock
 .bss.TimedOut_1
                0x2000042e        0x1 C:\Users\Haris\AppData\Local\Temp\VMBuilds\Main_Siemens_Automation_824MSPe\haeger_haeger_samd_haeger_mcu1\Debug\Hydraulic_Cylinder_Function.cpp.o
                0x2000042e                TimedOut_1
 *fill*         0x2000042f        0x1 
 .bss.INTERVAL_1
                0x20000430        0x4 C:\Users\Haris\AppData\Local\Temp\VMBuilds\Main_Siemens_Automation_824MSPe\haeger_haeger_samd_haeger_mcu1\Debug\Hydraulic_Cylinder_Function.cpp.o
                0x20000430                INTERVAL_1
 .bss.CetValue_Hydraulic_Cylinder_Function
                0x20000434        0x4 C:\Users\Haris\AppData\Local\Temp\VMBuilds\Main_Siemens_Automation_824MSPe\haeger_haeger_samd_haeger_mcu1\Debug\Hydraulic_Cylinder_Function.cpp.o
                0x20000434                CetValue_Hydraulic_Cylinder_Function
 .bss.MCU1_Start_Bit
                0x20000438        0x1 C:\Users\Haris\AppData\Local\Temp\VMBuilds\Main_Siemens_Automation_824MSPe\haeger_haeger_samd_haeger_mcu1\Debug\Initialization_Function.cpp.o
                0x20000438                MCU1_Start_Bit
 *fill*         0x20000439        0x3 
 .bss.CetValue_Robot_Communication_Function
                0x2000043c        0x4 C:\Users\Haris\AppData\Local\Temp\VMBuilds\Main_Siemens_Automation_824MSPe\haeger_haeger_samd_haeger_mcu1\Debug\Robot_Communication_Function.cpp.o
                0x2000043c                CetValue_Robot_Communication_Function
 .bss.Pressure_Switch_Robot_Communication_Function
                0x20000440        0x4 C:\Users\Haris\AppData\Local\Temp\VMBuilds\Main_Siemens_Automation_824MSPe\haeger_haeger_samd_haeger_mcu1\Debug\Robot_Communication_Function.cpp.o
                0x20000440                Pressure_Switch_Robot_Communication_Function
 .bss.CetValue_Safety_Sensor_State_Function
                0x20000444        0x4 C:\Users\Haris\AppData\Local\Temp\VMBuilds\Main_Siemens_Automation_824MSPe\haeger_haeger_samd_haeger_mcu1\Debug\Safety_Sensor_State_Function.cpp.o
                0x20000444                CetValue_Safety_Sensor_State_Function
 .bss.Startup_SS_Check
                0x20000448        0x1 C:\Users\Haris\AppData\Local\Temp\VMBuilds\Main_Siemens_Automation_824MSPe\haeger_haeger_samd_haeger_mcu1\Debug\Safety_Sensor_State_Function.cpp.o
                0x20000448                Startup_SS_Check
 .bss.Timer1state
                0x20000449        0x1 C:\Users\Haris\AppData\Local\Temp\VMBuilds\Main_Siemens_Automation_824MSPe\haeger_haeger_samd_haeger_mcu1\Debug\Timer_Function.cpp.o
                0x20000449                Timer1state
 .bss.Timer1_Set
                0x2000044a        0x1 C:\Users\Haris\AppData\Local\Temp\VMBuilds\Main_Siemens_Automation_824MSPe\haeger_haeger_samd_haeger_mcu1\Debug\Timer_Function.cpp.o
                0x2000044a                Timer1_Set
 *fill*         0x2000044b        0x1 
 .bss.previousMillisTimer1
                0x2000044c        0x4 C:\Users\Haris\AppData\Local\Temp\VMBuilds\Main_Siemens_Automation_824MSPe\haeger_haeger_samd_haeger_mcu1\Debug\Timer_Function.cpp.o
                0x2000044c                previousMillisTimer1
 .bss.TPS_Lock  0x20000450        0x1 C:\Users\Haris\AppData\Local\Temp\VMBuilds\Main_Siemens_Automation_824MSPe\haeger_haeger_samd_haeger_mcu1\Debug\Tooling_Protection_Sytem_Function.cpp.o
                0x20000450                TPS_Lock
 *fill*         0x20000451        0x3 
 .bss.CetValue_TPS_Function
                0x20000454        0x4 C:\Users\Haris\AppData\Local\Temp\VMBuilds\Main_Siemens_Automation_824MSPe\haeger_haeger_samd_haeger_mcu1\Debug\Tooling_Protection_Sytem_Function.cpp.o
                0x20000454                CetValue_TPS_Function
 .bss._ZL20DEFAULT_SPI_SETTINGS
                0x20000458        0x8 C:\Users\Haris\AppData\Local\Temp\VMBuilds\Main_Siemens_Automation_824MSPe\haeger_haeger_samd_haeger_mcu1\Debug\SPI\SPI.cpp.o
 .bss.SPI       0x20000460       0x10 C:\Users\Haris\AppData\Local\Temp\VMBuilds\Main_Siemens_Automation_824MSPe\haeger_haeger_samd_haeger_mcu1\Debug\SPI\SPI.cpp.o
                0x20000460                SPI
 .bss.sercom3   0x20000470        0x4 C:\Users\Haris\AppData\Local\Temp\VMBCore\visualmicro\276ac5ba6e45f5143b737d9f0d9df4e9\variant\variant.cpp.o
                0x20000470                sercom3
 .bss.sercom0   0x20000474        0x4 C:\Users\Haris\AppData\Local\Temp\VMBCore\visualmicro\276ac5ba6e45f5143b737d9f0d9df4e9\variant\variant.cpp.o
                0x20000474                sercom0
 .bss.sercom1   0x20000478        0x4 C:\Users\Haris\AppData\Local\Temp\VMBCore\visualmicro\276ac5ba6e45f5143b737d9f0d9df4e9\variant\variant.cpp.o
                0x20000478                sercom1
 .bss.sercom2   0x2000047c        0x4 C:\Users\Haris\AppData\Local\Temp\VMBCore\visualmicro\276ac5ba6e45f5143b737d9f0d9df4e9\variant\variant.cpp.o
                0x2000047c                sercom2
 .bss.sercom4   0x20000480        0x4 C:\Users\Haris\AppData\Local\Temp\VMBCore\visualmicro\276ac5ba6e45f5143b737d9f0d9df4e9\variant\variant.cpp.o
                0x20000480                sercom4
 .bss.sercom5   0x20000484        0x4 C:\Users\Haris\AppData\Local\Temp\VMBCore\visualmicro\276ac5ba6e45f5143b737d9f0d9df4e9\variant\variant.cpp.o
                0x20000484                sercom5
 .bss.usb_isr   0x20000488        0x4 C:\Users\Haris\AppData\Local\Temp\VMBuilds\Main_Siemens_Automation_824MSPe\haeger_haeger_samd_haeger_mcu1\Debug/core.a(cortex_handlers.c.o)
 .bss._ulTickCount
                0x2000048c        0x4 C:\Users\Haris\AppData\Local\Temp\VMBuilds\Main_Siemens_Automation_824MSPe\haeger_haeger_samd_haeger_mcu1\Debug/core.a(delay.c.o)
 .bss.tcEnabled.19839
                0x20000490        0xd C:\Users\Haris\AppData\Local\Temp\VMBuilds\Main_Siemens_Automation_824MSPe\haeger_haeger_samd_haeger_mcu1\Debug/core.a(wiring_analog.c.o)
 .bss.dacEnabled
                0x2000049d        0x2 C:\Users\Haris\AppData\Local\Temp\VMBuilds\Main_Siemens_Automation_824MSPe\haeger_haeger_samd_haeger_mcu1\Debug/core.a(wiring_analog.c.o)
 *fill*         0x2000049f        0x1 
 .bss.Serial    0x200004a0       0x1c C:\Users\Haris\AppData\Local\Temp\VMBuilds\Main_Siemens_Automation_824MSPe\haeger_haeger_samd_haeger_mcu1\Debug/core.a(CDC.cpp.o)
                0x200004a0                Serial
 .bss._ZL14isEndpointHalt
                0x200004bc        0x1 C:\Users\Haris\AppData\Local\Temp\VMBuilds\Main_Siemens_Automation_824MSPe\haeger_haeger_samd_haeger_mcu1\Debug/core.a(USBCore.cpp.o)
 .bss._pack_buffer
                0x200004bd      0x100 C:\Users\Haris\AppData\Local\Temp\VMBuilds\Main_Siemens_Automation_824MSPe\haeger_haeger_samd_haeger_mcu1\Debug/core.a(USBCore.cpp.o)
                0x200004bd                _pack_buffer
 *fill*         0x200005bd        0x1 
 .bss._pack_size
                0x200005be        0x2 C:\Users\Haris\AppData\Local\Temp\VMBuilds\Main_Siemens_Automation_824MSPe\haeger_haeger_samd_haeger_mcu1\Debug/core.a(USBCore.cpp.o)
                0x200005be                _pack_size
 .bss._ZL20LastTransmitTimedOut
                0x200005c0        0x7 C:\Users\Haris\AppData\Local\Temp\VMBuilds\Main_Siemens_Automation_824MSPe\haeger_haeger_samd_haeger_mcu1\Debug/core.a(USBCore.cpp.o)
 *fill*         0x200005c7        0x1 
 .bss._ZL22udd_ep_in_cache_buffer
                0x200005c8      0x1c0 C:\Users\Haris\AppData\Local\Temp\VMBuilds\Main_Siemens_Automation_824MSPe\haeger_haeger_samd_haeger_mcu1\Debug/core.a(USBCore.cpp.o)
 .bss._ZL10txLEDPulse
                0x20000788        0x1 C:\Users\Haris\AppData\Local\Temp\VMBuilds\Main_Siemens_Automation_824MSPe\haeger_haeger_samd_haeger_mcu1\Debug/core.a(USBCore.cpp.o)
 *fill*         0x20000789        0x3 
 .bss._ZL23udd_ep_out_cache_buffer
                0x2000078c      0x1c0 C:\Users\Haris\AppData\Local\Temp\VMBuilds\Main_Siemens_Automation_824MSPe\haeger_haeger_samd_haeger_mcu1\Debug/core.a(USBCore.cpp.o)
 .bss._ZL10epHandlers
                0x2000094c       0x1c C:\Users\Haris\AppData\Local\Temp\VMBuilds\Main_Siemens_Automation_824MSPe\haeger_haeger_samd_haeger_mcu1\Debug/core.a(USBCore.cpp.o)
 .bss._pack_message
                0x20000968        0x1 C:\Users\Haris\AppData\Local\Temp\VMBuilds\Main_Siemens_Automation_824MSPe\haeger_haeger_samd_haeger_mcu1\Debug/core.a(USBCore.cpp.o)
                0x20000968                _pack_message
 .bss._ZL21isRemoteWakeUpEnabled
                0x20000969        0x1 C:\Users\Haris\AppData\Local\Temp\VMBuilds\Main_Siemens_Automation_824MSPe\haeger_haeger_samd_haeger_mcu1\Debug/core.a(USBCore.cpp.o)
 .bss._dry_run  0x2000096a        0x1 C:\Users\Haris\AppData\Local\Temp\VMBuilds\Main_Siemens_Automation_824MSPe\haeger_haeger_samd_haeger_mcu1\Debug/core.a(USBCore.cpp.o)
                0x2000096a                _dry_run
 .bss.USBDevice
                0x2000096b        0x1 C:\Users\Haris\AppData\Local\Temp\VMBuilds\Main_Siemens_Automation_824MSPe\haeger_haeger_samd_haeger_mcu1\Debug/core.a(USBCore.cpp.o)
                0x2000096b                USBDevice
 .bss._usbSetInterface
                0x2000096c        0x4 C:\Users\Haris\AppData\Local\Temp\VMBuilds\Main_Siemens_Automation_824MSPe\haeger_haeger_samd_haeger_mcu1\Debug/core.a(USBCore.cpp.o)
                0x2000096c                _usbSetInterface
 .bss._ZL10rxLEDPulse
                0x20000970        0x1 C:\Users\Haris\AppData\Local\Temp\VMBuilds\Main_Siemens_Automation_824MSPe\haeger_haeger_samd_haeger_mcu1\Debug/core.a(USBCore.cpp.o)
 *fill*         0x20000971        0x3 
 .bss.usbd      0x20000974      0x104 C:\Users\Haris\AppData\Local\Temp\VMBuilds\Main_Siemens_Automation_824MSPe\haeger_haeger_samd_haeger_mcu1\Debug/core.a(USBCore.cpp.o)
                0x20000974                usbd
 .bss._usbConfiguration
                0x20000a78        0x4 C:\Users\Haris\AppData\Local\Temp\VMBuilds\Main_Siemens_Automation_824MSPe\haeger_haeger_samd_haeger_mcu1\Debug/core.a(USBCore.cpp.o)
                0x20000a78                _usbConfiguration
 .bss._ZZ12PluggableUSBvE3obj
                0x20000a7c        0x8 C:\Users\Haris\AppData\Local\Temp\VMBuilds\Main_Siemens_Automation_824MSPe\haeger_haeger_samd_haeger_mcu1\Debug/core.a(PluggableUSB.cpp.o)
 .bss._ZGVZ12PluggableUSBvE3obj
                0x20000a84        0x4 C:\Users\Haris\AppData\Local\Temp\VMBuilds\Main_Siemens_Automation_824MSPe\haeger_haeger_samd_haeger_mcu1\Debug/core.a(PluggableUSB.cpp.o)
 .bss.__malloc_sbrk_start
                0x20000a88        0x4 c:/users/haris/appdata/local/arduino15/packages/arduino/tools/arm-none-eabi-gcc/4.8.3-2014q1/bin/../lib/gcc/arm-none-eabi/4.8.3/../../../../arm-none-eabi/lib/armv7e-m/fpu\libc_s.a(lib_a-nano-mallocr.o)
                0x20000a88                __malloc_sbrk_start
 .bss.__malloc_free_list
                0x20000a8c        0x4 c:/users/haris/appdata/local/arduino15/packages/arduino/tools/arm-none-eabi-gcc/4.8.3-2014q1/bin/../lib/gcc/arm-none-eabi/4.8.3/../../../../arm-none-eabi/lib/armv7e-m/fpu\libc_s.a(lib_a-nano-mallocr.o)
                0x20000a8c                __malloc_free_list
 .bss.heap_end.4243
                0x20000a90        0x4 c:/users/haris/appdata/local/arduino15/packages/arduino/tools/arm-none-eabi-gcc/4.8.3-2014q1/bin/../lib/gcc/arm-none-eabi/4.8.3/../../../../arm-none-eabi/lib/armv7e-m/fpu\libnosys.a(sbrk.o)
 *(COMMON)
 COMMON         0x20000a94        0x4 c:/users/haris/appdata/local/arduino15/packages/arduino/tools/arm-none-eabi-gcc/4.8.3-2014q1/bin/../lib/gcc/arm-none-eabi/4.8.3/../../../../arm-none-eabi/lib/armv7e-m/fpu\libc_s.a(lib_a-reent.o)
                0x20000a94                errno
                0x20000a98                . = ALIGN (0x4)
                0x20000a98                __bss_end__ = .

.heap           0x20000a98        0x0
                0x20000a98                __end__ = .
                0x20000a98                PROVIDE (end, .)
 *(.heap*)
                0x20000a98                __HeapLimit = .

.stack_dummy    0x20000a98        0x0
 *(.stack*)
                0x20030000                __StackTop = (ORIGIN (RAM) + 0x30000)
                0x20030000                __StackLimit = (__StackTop - SIZEOF (.stack_dummy))
                0x20030000                PROVIDE (__stack, __StackTop)
                0x2002ffff                __ram_end__ = ((ORIGIN (RAM) + 0x30000) - 0x1)
                0x00000001                ASSERT ((__StackLimit >= __HeapLimit), region RAM overflowed with stack)
OUTPUT(C:\Users\Haris\AppData\Local\Temp\VMBuilds\Main_Siemens_Automation_824MSPe\haeger_haeger_samd_haeger_mcu1\Debug/Main_Siemens_Automation_824MSPe.ino.elf elf32-littlearm)

.ARM.attributes
                0x00000000       0x30
 .ARM.attributes
                0x00000000       0x22 c:/users/haris/appdata/local/arduino15/packages/arduino/tools/arm-none-eabi-gcc/4.8.3-2014q1/bin/../lib/gcc/arm-none-eabi/4.8.3/armv7e-m/fpu/crti.o
 .ARM.attributes
                0x00000022       0x34 c:/users/haris/appdata/local/arduino15/packages/arduino/tools/arm-none-eabi-gcc/4.8.3-2014q1/bin/../lib/gcc/arm-none-eabi/4.8.3/armv7e-m/fpu/crtbegin.o
 .ARM.attributes
                0x00000056       0x39 C:\Users\Haris\AppData\Local\Temp\VMBuilds\Main_Siemens_Automation_824MSPe\haeger_haeger_samd_haeger_mcu1\Debug\Main_Siemens_Automation_824MSPe.cpp.o
 .ARM.attributes
                0x0000008f       0x39 C:\Users\Haris\AppData\Local\Temp\VMBuilds\Main_Siemens_Automation_824MSPe\haeger_haeger_samd_haeger_mcu1\Debug\Alarm_Function.cpp.o
 .ARM.attributes
                0x000000c8       0x39 C:\Users\Haris\AppData\Local\Temp\VMBuilds\Main_Siemens_Automation_824MSPe\haeger_haeger_samd_haeger_mcu1\Debug\Bypass_Function.cpp.o
 .ARM.attributes
                0x00000101       0x39 C:\Users\Haris\AppData\Local\Temp\VMBuilds\Main_Siemens_Automation_824MSPe\haeger_haeger_samd_haeger_mcu1\Debug\Conductive_Mode_Function.cpp.o
 .ARM.attributes
                0x0000013a       0x39 C:\Users\Haris\AppData\Local\Temp\VMBuilds\Main_Siemens_Automation_824MSPe\haeger_haeger_samd_haeger_mcu1\Debug\Footpedal_Function.cpp.o
 .ARM.attributes
                0x00000173       0x39 C:\Users\Haris\AppData\Local\Temp\VMBuilds\Main_Siemens_Automation_824MSPe\haeger_haeger_samd_haeger_mcu1\Debug\Force_Function.cpp.o
 .ARM.attributes
                0x000001ac       0x39 C:\Users\Haris\AppData\Local\Temp\VMBuilds\Main_Siemens_Automation_824MSPe\haeger_haeger_samd_haeger_mcu1\Debug\Hydraulic_Cylinder_Function.cpp.o
 .ARM.attributes
                0x000001e5       0x39 C:\Users\Haris\AppData\Local\Temp\VMBuilds\Main_Siemens_Automation_824MSPe\haeger_haeger_samd_haeger_mcu1\Debug\Hydraulic_Start_Function.cpp.o
 .ARM.attributes
                0x0000021e       0x39 C:\Users\Haris\AppData\Local\Temp\VMBuilds\Main_Siemens_Automation_824MSPe\haeger_haeger_samd_haeger_mcu1\Debug\Initialization_Function.cpp.o
 .ARM.attributes
                0x00000257       0x39 C:\Users\Haris\AppData\Local\Temp\VMBuilds\Main_Siemens_Automation_824MSPe\haeger_haeger_samd_haeger_mcu1\Debug\Machine_State_Function.cpp.o
 .ARM.attributes
                0x00000290       0x39 C:\Users\Haris\AppData\Local\Temp\VMBuilds\Main_Siemens_Automation_824MSPe\haeger_haeger_samd_haeger_mcu1\Debug\MCU_Version_Function.cpp.o
 .ARM.attributes
                0x000002c9       0x39 C:\Users\Haris\AppData\Local\Temp\VMBuilds\Main_Siemens_Automation_824MSPe\haeger_haeger_samd_haeger_mcu1\Debug\Non_Conductive_Mode_Function.cpp.o
 .ARM.attributes
                0x00000302       0x39 C:\Users\Haris\AppData\Local\Temp\VMBuilds\Main_Siemens_Automation_824MSPe\haeger_haeger_samd_haeger_mcu1\Debug\Robot_Communication_Function.cpp.o
 .ARM.attributes
                0x0000033b       0x39 C:\Users\Haris\AppData\Local\Temp\VMBuilds\Main_Siemens_Automation_824MSPe\haeger_haeger_samd_haeger_mcu1\Debug\Robot_Lower_Tool_Pin_Function.cpp.o
 .ARM.attributes
                0x00000374       0x39 C:\Users\Haris\AppData\Local\Temp\VMBuilds\Main_Siemens_Automation_824MSPe\haeger_haeger_samd_haeger_mcu1\Debug\Safety_Sensor_State_Function.cpp.o
 .ARM.attributes
                0x000003ad       0x39 C:\Users\Haris\AppData\Local\Temp\VMBuilds\Main_Siemens_Automation_824MSPe\haeger_haeger_samd_haeger_mcu1\Debug\Timer_Function.cpp.o
 .ARM.attributes
                0x000003e6       0x39 C:\Users\Haris\AppData\Local\Temp\VMBuilds\Main_Siemens_Automation_824MSPe\haeger_haeger_samd_haeger_mcu1\Debug\Tooling_Protection_Sytem_Function.cpp.o
 .ARM.attributes
                0x0000041f       0x39 C:\Users\Haris\AppData\Local\Temp\VMBuilds\Main_Siemens_Automation_824MSPe\haeger_haeger_samd_haeger_mcu1\Debug\Toolingcontact_Function.cpp.o
 .ARM.attributes
                0x00000458       0x39 C:\Users\Haris\AppData\Local\Temp\VMBuilds\Main_Siemens_Automation_824MSPe\haeger_haeger_samd_haeger_mcu1\Debug\Top_Of_Stroke_Function.cpp.o
 .ARM.attributes
                0x00000491       0x39 C:\Users\Haris\AppData\Local\Temp\VMBuilds\Main_Siemens_Automation_824MSPe\haeger_haeger_samd_haeger_mcu1\Debug\ResponsiveAnalogRead\ResponsiveAnalogRead.cpp.o
 .ARM.attributes
                0x000004ca       0x39 C:\Users\Haris\AppData\Local\Temp\VMBuilds\Main_Siemens_Automation_824MSPe\haeger_haeger_samd_haeger_mcu1\Debug\MCP23S17-master\MCP23S17.cpp.o
 .ARM.attributes
                0x00000503       0x39 C:\Users\Haris\AppData\Local\Temp\VMBuilds\Main_Siemens_Automation_824MSPe\haeger_haeger_samd_haeger_mcu1\Debug\SPI\SPI.cpp.o
 .ARM.attributes
                0x0000053c       0x39 C:\Users\Haris\AppData\Local\Temp\VMBCore\visualmicro\276ac5ba6e45f5143b737d9f0d9df4e9\variant\variant.cpp.o
 .ARM.attributes
                0x00000575       0x39 C:\Users\Haris\AppData\Local\Temp\VMBuilds\Main_Siemens_Automation_824MSPe\haeger_haeger_samd_haeger_mcu1\Debug/core.a(cortex_handlers.c.o)
 .ARM.attributes
                0x000005ae       0x39 C:\Users\Haris\AppData\Local\Temp\VMBuilds\Main_Siemens_Automation_824MSPe\haeger_haeger_samd_haeger_mcu1\Debug/core.a(delay.c.o)
 .ARM.attributes
                0x000005e7       0x39 C:\Users\Haris\AppData\Local\Temp\VMBuilds\Main_Siemens_Automation_824MSPe\haeger_haeger_samd_haeger_mcu1\Debug/core.a(hooks.c.o)
 .ARM.attributes
                0x00000620       0x39 C:\Users\Haris\AppData\Local\Temp\VMBuilds\Main_Siemens_Automation_824MSPe\haeger_haeger_samd_haeger_mcu1\Debug/core.a(startup.c.o)
 .ARM.attributes
                0x00000659       0x39 C:\Users\Haris\AppData\Local\Temp\VMBuilds\Main_Siemens_Automation_824MSPe\haeger_haeger_samd_haeger_mcu1\Debug/core.a(wiring_analog.c.o)
 .ARM.attributes
                0x00000692       0x39 C:\Users\Haris\AppData\Local\Temp\VMBuilds\Main_Siemens_Automation_824MSPe\haeger_haeger_samd_haeger_mcu1\Debug/core.a(wiring_digital.c.o)
 .ARM.attributes
                0x000006cb       0x39 C:\Users\Haris\AppData\Local\Temp\VMBuilds\Main_Siemens_Automation_824MSPe\haeger_haeger_samd_haeger_mcu1\Debug/core.a(wiring_private.c.o)
 .ARM.attributes
                0x00000704       0x39 C:\Users\Haris\AppData\Local\Temp\VMBuilds\Main_Siemens_Automation_824MSPe\haeger_haeger_samd_haeger_mcu1\Debug/core.a(main.cpp.o)
 .ARM.attributes
                0x0000073d       0x39 C:\Users\Haris\AppData\Local\Temp\VMBuilds\Main_Siemens_Automation_824MSPe\haeger_haeger_samd_haeger_mcu1\Debug/core.a(Reset.cpp.o)
 .ARM.attributes
                0x00000776       0x39 C:\Users\Haris\AppData\Local\Temp\VMBuilds\Main_Siemens_Automation_824MSPe\haeger_haeger_samd_haeger_mcu1\Debug/core.a(SERCOM.cpp.o)
 .ARM.attributes
                0x000007af       0x39 C:\Users\Haris\AppData\Local\Temp\VMBuilds\Main_Siemens_Automation_824MSPe\haeger_haeger_samd_haeger_mcu1\Debug/core.a(WMath.cpp.o)
 .ARM.attributes
                0x000007e8       0x39 C:\Users\Haris\AppData\Local\Temp\VMBuilds\Main_Siemens_Automation_824MSPe\haeger_haeger_samd_haeger_mcu1\Debug/core.a(CDC.cpp.o)
 .ARM.attributes
                0x00000821       0x39 C:\Users\Haris\AppData\Local\Temp\VMBuilds\Main_Siemens_Automation_824MSPe\haeger_haeger_samd_haeger_mcu1\Debug/core.a(USBCore.cpp.o)
 .ARM.attributes
                0x0000085a       0x39 C:\Users\Haris\AppData\Local\Temp\VMBuilds\Main_Siemens_Automation_824MSPe\haeger_haeger_samd_haeger_mcu1\Debug/core.a(wiring.c.o)
 .ARM.attributes
                0x00000893       0x39 C:\Users\Haris\AppData\Local\Temp\VMBuilds\Main_Siemens_Automation_824MSPe\haeger_haeger_samd_haeger_mcu1\Debug/core.a(new.cpp.o)
 .ARM.attributes
                0x000008cc       0x39 C:\Users\Haris\AppData\Local\Temp\VMBuilds\Main_Siemens_Automation_824MSPe\haeger_haeger_samd_haeger_mcu1\Debug/core.a(PluggableUSB.cpp.o)
 .ARM.attributes
                0x00000905       0x39 C:\Users\Haris\AppData\Local\Temp\VMBuilds\Main_Siemens_Automation_824MSPe\haeger_haeger_samd_haeger_mcu1\Debug/core.a(SAMD21_USBDevice.cpp.o)
 .ARM.attributes
                0x0000093e       0x22 c:/users/haris/appdata/local/arduino15/packages/arduino/tools/arm-none-eabi-gcc/4.8.3-2014q1/bin/../lib/gcc/arm-none-eabi/4.8.3/armv7e-m/fpu\libgcc.a(_arm_addsubdf3.o)
 .ARM.attributes
                0x00000960       0x22 c:/users/haris/appdata/local/arduino15/packages/arduino/tools/arm-none-eabi-gcc/4.8.3-2014q1/bin/../lib/gcc/arm-none-eabi/4.8.3/armv7e-m/fpu\libgcc.a(_arm_muldivdf3.o)
 .ARM.attributes
                0x00000982       0x22 c:/users/haris/appdata/local/arduino15/packages/arduino/tools/arm-none-eabi-gcc/4.8.3-2014q1/bin/../lib/gcc/arm-none-eabi/4.8.3/armv7e-m/fpu\libgcc.a(_arm_truncdfsf2.o)
 .ARM.attributes
                0x000009a4       0x34 c:/users/haris/appdata/local/arduino15/packages/arduino/tools/arm-none-eabi-gcc/4.8.3-2014q1/bin/../lib/gcc/arm-none-eabi/4.8.3/../../../../arm-none-eabi/lib/armv7e-m/fpu\libc_s.a(lib_a-impure.o)
 .ARM.attributes
                0x000009d8       0x34 c:/users/haris/appdata/local/arduino15/packages/arduino/tools/arm-none-eabi-gcc/4.8.3-2014q1/bin/../lib/gcc/arm-none-eabi/4.8.3/../../../../arm-none-eabi/lib/armv7e-m/fpu\libc_s.a(lib_a-init.o)
 .ARM.attributes
                0x00000a0c       0x34 c:/users/haris/appdata/local/arduino15/packages/arduino/tools/arm-none-eabi-gcc/4.8.3-2014q1/bin/../lib/gcc/arm-none-eabi/4.8.3/../../../../arm-none-eabi/lib/armv7e-m/fpu\libc_s.a(lib_a-malloc.o)
 .ARM.attributes
                0x00000a40       0x34 c:/users/haris/appdata/local/arduino15/packages/arduino/tools/arm-none-eabi-gcc/4.8.3-2014q1/bin/../lib/gcc/arm-none-eabi/4.8.3/../../../../arm-none-eabi/lib/armv7e-m/fpu\libc_s.a(lib_a-memcpy-stub.o)
 .ARM.attributes
                0x00000a74       0x34 c:/users/haris/appdata/local/arduino15/packages/arduino/tools/arm-none-eabi-gcc/4.8.3-2014q1/bin/../lib/gcc/arm-none-eabi/4.8.3/../../../../arm-none-eabi/lib/armv7e-m/fpu\libc_s.a(lib_a-memset.o)
 .ARM.attributes
                0x00000aa8       0x34 c:/users/haris/appdata/local/arduino15/packages/arduino/tools/arm-none-eabi-gcc/4.8.3-2014q1/bin/../lib/gcc/arm-none-eabi/4.8.3/../../../../arm-none-eabi/lib/armv7e-m/fpu\libc_s.a(lib_a-nano-mallocr.o)
 .ARM.attributes
                0x00000adc       0x34 c:/users/haris/appdata/local/arduino15/packages/arduino/tools/arm-none-eabi-gcc/4.8.3-2014q1/bin/../lib/gcc/arm-none-eabi/4.8.3/../../../../arm-none-eabi/lib/armv7e-m/fpu\libc_s.a(lib_a-sbrkr.o)
 .ARM.attributes
                0x00000b10       0x34 c:/users/haris/appdata/local/arduino15/packages/arduino/tools/arm-none-eabi-gcc/4.8.3-2014q1/bin/../lib/gcc/arm-none-eabi/4.8.3/../../../../arm-none-eabi/lib/armv7e-m/fpu\libc_s.a(lib_a-strlen.o)
 .ARM.attributes
                0x00000b44       0x34 c:/users/haris/appdata/local/arduino15/packages/arduino/tools/arm-none-eabi-gcc/4.8.3-2014q1/bin/../lib/gcc/arm-none-eabi/4.8.3/../../../../arm-none-eabi/lib/armv7e-m/fpu\libc_s.a(lib_a-findfp.o)
 .ARM.attributes
                0x00000b78       0x34 c:/users/haris/appdata/local/arduino15/packages/arduino/tools/arm-none-eabi-gcc/4.8.3-2014q1/bin/../lib/gcc/arm-none-eabi/4.8.3/../../../../arm-none-eabi/lib/armv7e-m/fpu\libc_s.a(lib_a-reent.o)
 .ARM.attributes
                0x00000bac       0x34 c:/users/haris/appdata/local/arduino15/packages/arduino/tools/arm-none-eabi-gcc/4.8.3-2014q1/bin/../lib/gcc/arm-none-eabi/4.8.3/../../../../arm-none-eabi/lib/armv7e-m/fpu\libnosys.a(sbrk.o)
 .ARM.attributes
                0x00000be0       0x34 c:/users/haris/appdata/local/arduino15/packages/arduino/tools/arm-none-eabi-gcc/4.8.3-2014q1/bin/../lib/gcc/arm-none-eabi/4.8.3/armv7e-m/fpu/crtend.o
 .ARM.attributes
                0x00000c14       0x22 c:/users/haris/appdata/local/arduino15/packages/arduino/tools/arm-none-eabi-gcc/4.8.3-2014q1/bin/../lib/gcc/arm-none-eabi/4.8.3/armv7e-m/fpu/crtn.o

.comment        0x00000000       0x70
 .comment       0x00000000       0x70 C:\Users\Haris\AppData\Local\Temp\VMBuilds\Main_Siemens_Automation_824MSPe\haeger_haeger_samd_haeger_mcu1\Debug\Main_Siemens_Automation_824MSPe.cpp.o
                                 0x71 (size before relaxing)
 .comment       0x00000000       0x71 C:\Users\Haris\AppData\Local\Temp\VMBuilds\Main_Siemens_Automation_824MSPe\haeger_haeger_samd_haeger_mcu1\Debug\Alarm_Function.cpp.o
 .comment       0x00000000       0x71 C:\Users\Haris\AppData\Local\Temp\VMBuilds\Main_Siemens_Automation_824MSPe\haeger_haeger_samd_haeger_mcu1\Debug\Bypass_Function.cpp.o
 .comment       0x00000000       0x71 C:\Users\Haris\AppData\Local\Temp\VMBuilds\Main_Siemens_Automation_824MSPe\haeger_haeger_samd_haeger_mcu1\Debug\Conductive_Mode_Function.cpp.o
 .comment       0x00000000       0x71 C:\Users\Haris\AppData\Local\Temp\VMBuilds\Main_Siemens_Automation_824MSPe\haeger_haeger_samd_haeger_mcu1\Debug\Footpedal_Function.cpp.o
 .comment       0x00000000       0x71 C:\Users\Haris\AppData\Local\Temp\VMBuilds\Main_Siemens_Automation_824MSPe\haeger_haeger_samd_haeger_mcu1\Debug\Force_Function.cpp.o
 .comment       0x00000000       0x71 C:\Users\Haris\AppData\Local\Temp\VMBuilds\Main_Siemens_Automation_824MSPe\haeger_haeger_samd_haeger_mcu1\Debug\Hydraulic_Cylinder_Function.cpp.o
 .comment       0x00000000       0x71 C:\Users\Haris\AppData\Local\Temp\VMBuilds\Main_Siemens_Automation_824MSPe\haeger_haeger_samd_haeger_mcu1\Debug\Hydraulic_Start_Function.cpp.o
 .comment       0x00000000       0x71 C:\Users\Haris\AppData\Local\Temp\VMBuilds\Main_Siemens_Automation_824MSPe\haeger_haeger_samd_haeger_mcu1\Debug\Initialization_Function.cpp.o
 .comment       0x00000000       0x71 C:\Users\Haris\AppData\Local\Temp\VMBuilds\Main_Siemens_Automation_824MSPe\haeger_haeger_samd_haeger_mcu1\Debug\Machine_State_Function.cpp.o
 .comment       0x00000000       0x71 C:\Users\Haris\AppData\Local\Temp\VMBuilds\Main_Siemens_Automation_824MSPe\haeger_haeger_samd_haeger_mcu1\Debug\MCU_Version_Function.cpp.o
 .comment       0x00000000       0x71 C:\Users\Haris\AppData\Local\Temp\VMBuilds\Main_Siemens_Automation_824MSPe\haeger_haeger_samd_haeger_mcu1\Debug\Non_Conductive_Mode_Function.cpp.o
 .comment       0x00000000       0x71 C:\Users\Haris\AppData\Local\Temp\VMBuilds\Main_Siemens_Automation_824MSPe\haeger_haeger_samd_haeger_mcu1\Debug\Robot_Communication_Function.cpp.o
 .comment       0x00000000       0x71 C:\Users\Haris\AppData\Local\Temp\VMBuilds\Main_Siemens_Automation_824MSPe\haeger_haeger_samd_haeger_mcu1\Debug\Robot_Lower_Tool_Pin_Function.cpp.o
 .comment       0x00000000       0x71 C:\Users\Haris\AppData\Local\Temp\VMBuilds\Main_Siemens_Automation_824MSPe\haeger_haeger_samd_haeger_mcu1\Debug\Safety_Sensor_State_Function.cpp.o
 .comment       0x00000000       0x71 C:\Users\Haris\AppData\Local\Temp\VMBuilds\Main_Siemens_Automation_824MSPe\haeger_haeger_samd_haeger_mcu1\Debug\Timer_Function.cpp.o
 .comment       0x00000000       0x71 C:\Users\Haris\AppData\Local\Temp\VMBuilds\Main_Siemens_Automation_824MSPe\haeger_haeger_samd_haeger_mcu1\Debug\Tooling_Protection_Sytem_Function.cpp.o
 .comment       0x00000000       0x71 C:\Users\Haris\AppData\Local\Temp\VMBuilds\Main_Siemens_Automation_824MSPe\haeger_haeger_samd_haeger_mcu1\Debug\Toolingcontact_Function.cpp.o
 .comment       0x00000000       0x71 C:\Users\Haris\AppData\Local\Temp\VMBuilds\Main_Siemens_Automation_824MSPe\haeger_haeger_samd_haeger_mcu1\Debug\Top_Of_Stroke_Function.cpp.o
 .comment       0x00000000       0x71 C:\Users\Haris\AppData\Local\Temp\VMBuilds\Main_Siemens_Automation_824MSPe\haeger_haeger_samd_haeger_mcu1\Debug\ResponsiveAnalogRead\ResponsiveAnalogRead.cpp.o
 .comment       0x00000000       0x71 C:\Users\Haris\AppData\Local\Temp\VMBuilds\Main_Siemens_Automation_824MSPe\haeger_haeger_samd_haeger_mcu1\Debug\MCP23S17-master\MCP23S17.cpp.o
 .comment       0x00000000       0x71 C:\Users\Haris\AppData\Local\Temp\VMBuilds\Main_Siemens_Automation_824MSPe\haeger_haeger_samd_haeger_mcu1\Debug\SPI\SPI.cpp.o
 .comment       0x00000000       0x71 C:\Users\Haris\AppData\Local\Temp\VMBCore\visualmicro\276ac5ba6e45f5143b737d9f0d9df4e9\variant\variant.cpp.o
 .comment       0x00000000       0x71 C:\Users\Haris\AppData\Local\Temp\VMBuilds\Main_Siemens_Automation_824MSPe\haeger_haeger_samd_haeger_mcu1\Debug/core.a(cortex_handlers.c.o)
 .comment       0x00000000       0x71 C:\Users\Haris\AppData\Local\Temp\VMBuilds\Main_Siemens_Automation_824MSPe\haeger_haeger_samd_haeger_mcu1\Debug/core.a(delay.c.o)
 .comment       0x00000000       0x71 C:\Users\Haris\AppData\Local\Temp\VMBuilds\Main_Siemens_Automation_824MSPe\haeger_haeger_samd_haeger_mcu1\Debug/core.a(hooks.c.o)
 .comment       0x00000000       0x71 C:\Users\Haris\AppData\Local\Temp\VMBuilds\Main_Siemens_Automation_824MSPe\haeger_haeger_samd_haeger_mcu1\Debug/core.a(startup.c.o)
 .comment       0x00000000       0x71 C:\Users\Haris\AppData\Local\Temp\VMBuilds\Main_Siemens_Automation_824MSPe\haeger_haeger_samd_haeger_mcu1\Debug/core.a(wiring_analog.c.o)
 .comment       0x00000000       0x71 C:\Users\Haris\AppData\Local\Temp\VMBuilds\Main_Siemens_Automation_824MSPe\haeger_haeger_samd_haeger_mcu1\Debug/core.a(wiring_digital.c.o)
 .comment       0x00000000       0x71 C:\Users\Haris\AppData\Local\Temp\VMBuilds\Main_Siemens_Automation_824MSPe\haeger_haeger_samd_haeger_mcu1\Debug/core.a(wiring_private.c.o)
 .comment       0x00000000       0x71 C:\Users\Haris\AppData\Local\Temp\VMBuilds\Main_Siemens_Automation_824MSPe\haeger_haeger_samd_haeger_mcu1\Debug/core.a(main.cpp.o)
 .comment       0x00000000       0x71 C:\Users\Haris\AppData\Local\Temp\VMBuilds\Main_Siemens_Automation_824MSPe\haeger_haeger_samd_haeger_mcu1\Debug/core.a(Reset.cpp.o)
 .comment       0x00000000       0x71 C:\Users\Haris\AppData\Local\Temp\VMBuilds\Main_Siemens_Automation_824MSPe\haeger_haeger_samd_haeger_mcu1\Debug/core.a(SERCOM.cpp.o)
 .comment       0x00000000       0x71 C:\Users\Haris\AppData\Local\Temp\VMBuilds\Main_Siemens_Automation_824MSPe\haeger_haeger_samd_haeger_mcu1\Debug/core.a(WMath.cpp.o)
 .comment       0x00000000       0x71 C:\Users\Haris\AppData\Local\Temp\VMBuilds\Main_Siemens_Automation_824MSPe\haeger_haeger_samd_haeger_mcu1\Debug/core.a(CDC.cpp.o)
 .comment       0x00000000       0x71 C:\Users\Haris\AppData\Local\Temp\VMBuilds\Main_Siemens_Automation_824MSPe\haeger_haeger_samd_haeger_mcu1\Debug/core.a(USBCore.cpp.o)
 .comment       0x00000000       0x71 C:\Users\Haris\AppData\Local\Temp\VMBuilds\Main_Siemens_Automation_824MSPe\haeger_haeger_samd_haeger_mcu1\Debug/core.a(wiring.c.o)
 .comment       0x00000000       0x71 C:\Users\Haris\AppData\Local\Temp\VMBuilds\Main_Siemens_Automation_824MSPe\haeger_haeger_samd_haeger_mcu1\Debug/core.a(new.cpp.o)
 .comment       0x00000000       0x71 C:\Users\Haris\AppData\Local\Temp\VMBuilds\Main_Siemens_Automation_824MSPe\haeger_haeger_samd_haeger_mcu1\Debug/core.a(PluggableUSB.cpp.o)
 .comment       0x00000000       0x71 C:\Users\Haris\AppData\Local\Temp\VMBuilds\Main_Siemens_Automation_824MSPe\haeger_haeger_samd_haeger_mcu1\Debug/core.a(SAMD21_USBDevice.cpp.o)

.debug_info     0x00000000    0x6a3b3
 .debug_info    0x00000000     0x879a C:\Users\Haris\AppData\Local\Temp\VMBuilds\Main_Siemens_Automation_824MSPe\haeger_haeger_samd_haeger_mcu1\Debug\Main_Siemens_Automation_824MSPe.cpp.o
 .debug_info    0x0000879a     0x1f8f C:\Users\Haris\AppData\Local\Temp\VMBuilds\Main_Siemens_Automation_824MSPe\haeger_haeger_samd_haeger_mcu1\Debug\Alarm_Function.cpp.o
 .debug_info    0x0000a729     0x207c C:\Users\Haris\AppData\Local\Temp\VMBuilds\Main_Siemens_Automation_824MSPe\haeger_haeger_samd_haeger_mcu1\Debug\Bypass_Function.cpp.o
 .debug_info    0x0000c7a5     0x2006 C:\Users\Haris\AppData\Local\Temp\VMBuilds\Main_Siemens_Automation_824MSPe\haeger_haeger_samd_haeger_mcu1\Debug\Conductive_Mode_Function.cpp.o
 .debug_info    0x0000e7ab     0x21ec C:\Users\Haris\AppData\Local\Temp\VMBuilds\Main_Siemens_Automation_824MSPe\haeger_haeger_samd_haeger_mcu1\Debug\Footpedal_Function.cpp.o
 .debug_info    0x00010997     0x1fc1 C:\Users\Haris\AppData\Local\Temp\VMBuilds\Main_Siemens_Automation_824MSPe\haeger_haeger_samd_haeger_mcu1\Debug\Force_Function.cpp.o
 .debug_info    0x00012958     0x20cf C:\Users\Haris\AppData\Local\Temp\VMBuilds\Main_Siemens_Automation_824MSPe\haeger_haeger_samd_haeger_mcu1\Debug\Hydraulic_Cylinder_Function.cpp.o
 .debug_info    0x00014a27     0x203a C:\Users\Haris\AppData\Local\Temp\VMBuilds\Main_Siemens_Automation_824MSPe\haeger_haeger_samd_haeger_mcu1\Debug\Hydraulic_Start_Function.cpp.o
 .debug_info    0x00016a61     0x1fab C:\Users\Haris\AppData\Local\Temp\VMBuilds\Main_Siemens_Automation_824MSPe\haeger_haeger_samd_haeger_mcu1\Debug\Initialization_Function.cpp.o
 .debug_info    0x00018a0c     0x207d C:\Users\Haris\AppData\Local\Temp\VMBuilds\Main_Siemens_Automation_824MSPe\haeger_haeger_samd_haeger_mcu1\Debug\Machine_State_Function.cpp.o
 .debug_info    0x0001aa89     0x1f9a C:\Users\Haris\AppData\Local\Temp\VMBuilds\Main_Siemens_Automation_824MSPe\haeger_haeger_samd_haeger_mcu1\Debug\MCU_Version_Function.cpp.o
 .debug_info    0x0001ca23     0x202c C:\Users\Haris\AppData\Local\Temp\VMBuilds\Main_Siemens_Automation_824MSPe\haeger_haeger_samd_haeger_mcu1\Debug\Non_Conductive_Mode_Function.cpp.o
 .debug_info    0x0001ea4f     0x21cf C:\Users\Haris\AppData\Local\Temp\VMBuilds\Main_Siemens_Automation_824MSPe\haeger_haeger_samd_haeger_mcu1\Debug\Robot_Communication_Function.cpp.o
 .debug_info    0x00020c1e     0x1fba C:\Users\Haris\AppData\Local\Temp\VMBuilds\Main_Siemens_Automation_824MSPe\haeger_haeger_samd_haeger_mcu1\Debug\Robot_Lower_Tool_Pin_Function.cpp.o
 .debug_info    0x00022bd8     0x20b9 C:\Users\Haris\AppData\Local\Temp\VMBuilds\Main_Siemens_Automation_824MSPe\haeger_haeger_samd_haeger_mcu1\Debug\Safety_Sensor_State_Function.cpp.o
 .debug_info    0x00024c91     0x201b C:\Users\Haris\AppData\Local\Temp\VMBuilds\Main_Siemens_Automation_824MSPe\haeger_haeger_samd_haeger_mcu1\Debug\Timer_Function.cpp.o
 .debug_info    0x00026cac     0x2050 C:\Users\Haris\AppData\Local\Temp\VMBuilds\Main_Siemens_Automation_824MSPe\haeger_haeger_samd_haeger_mcu1\Debug\Tooling_Protection_Sytem_Function.cpp.o
 .debug_info    0x00028cfc     0x1fbf C:\Users\Haris\AppData\Local\Temp\VMBuilds\Main_Siemens_Automation_824MSPe\haeger_haeger_samd_haeger_mcu1\Debug\Toolingcontact_Function.cpp.o
 .debug_info    0x0002acbb     0x1fa5 C:\Users\Haris\AppData\Local\Temp\VMBuilds\Main_Siemens_Automation_824MSPe\haeger_haeger_samd_haeger_mcu1\Debug\Top_Of_Stroke_Function.cpp.o
 .debug_info    0x0002cc60     0x24b1 C:\Users\Haris\AppData\Local\Temp\VMBuilds\Main_Siemens_Automation_824MSPe\haeger_haeger_samd_haeger_mcu1\Debug\ResponsiveAnalogRead\ResponsiveAnalogRead.cpp.o
 .debug_info    0x0002f111     0x5c13 C:\Users\Haris\AppData\Local\Temp\VMBuilds\Main_Siemens_Automation_824MSPe\haeger_haeger_samd_haeger_mcu1\Debug\MCP23S17-master\MCP23S17.cpp.o
 .debug_info    0x00034d24     0x5d87 C:\Users\Haris\AppData\Local\Temp\VMBuilds\Main_Siemens_Automation_824MSPe\haeger_haeger_samd_haeger_mcu1\Debug\SPI\SPI.cpp.o
 .debug_info    0x0003aaab     0x5ad1 C:\Users\Haris\AppData\Local\Temp\VMBCore\visualmicro\276ac5ba6e45f5143b737d9f0d9df4e9\variant\variant.cpp.o
 .debug_info    0x0004057c      0xce7 C:\Users\Haris\AppData\Local\Temp\VMBuilds\Main_Siemens_Automation_824MSPe\haeger_haeger_samd_haeger_mcu1\Debug/core.a(cortex_handlers.c.o)
 .debug_info    0x00041263      0x455 C:\Users\Haris\AppData\Local\Temp\VMBuilds\Main_Siemens_Automation_824MSPe\haeger_haeger_samd_haeger_mcu1\Debug/core.a(delay.c.o)
 .debug_info    0x000416b8       0x64 C:\Users\Haris\AppData\Local\Temp\VMBuilds\Main_Siemens_Automation_824MSPe\haeger_haeger_samd_haeger_mcu1\Debug/core.a(hooks.c.o)
 .debug_info    0x0004171c     0x2fbe C:\Users\Haris\AppData\Local\Temp\VMBuilds\Main_Siemens_Automation_824MSPe\haeger_haeger_samd_haeger_mcu1\Debug/core.a(startup.c.o)
 .debug_info    0x000446da     0x4e49 C:\Users\Haris\AppData\Local\Temp\VMBuilds\Main_Siemens_Automation_824MSPe\haeger_haeger_samd_haeger_mcu1\Debug/core.a(wiring_analog.c.o)
 .debug_info    0x00049523      0xc7e C:\Users\Haris\AppData\Local\Temp\VMBuilds\Main_Siemens_Automation_824MSPe\haeger_haeger_samd_haeger_mcu1\Debug/core.a(wiring_digital.c.o)
 .debug_info    0x0004a1a1      0xc53 C:\Users\Haris\AppData\Local\Temp\VMBuilds\Main_Siemens_Automation_824MSPe\haeger_haeger_samd_haeger_mcu1\Debug/core.a(wiring_private.c.o)
 .debug_info    0x0004adf4     0x26e2 C:\Users\Haris\AppData\Local\Temp\VMBuilds\Main_Siemens_Automation_824MSPe\haeger_haeger_samd_haeger_mcu1\Debug/core.a(main.cpp.o)
 .debug_info    0x0004d4d6     0x2218 C:\Users\Haris\AppData\Local\Temp\VMBuilds\Main_Siemens_Automation_824MSPe\haeger_haeger_samd_haeger_mcu1\Debug/core.a(Reset.cpp.o)
 .debug_info    0x0004f6ee     0x6921 C:\Users\Haris\AppData\Local\Temp\VMBuilds\Main_Siemens_Automation_824MSPe\haeger_haeger_samd_haeger_mcu1\Debug/core.a(SERCOM.cpp.o)
 .debug_info    0x0005600f      0x27a C:\Users\Haris\AppData\Local\Temp\VMBuilds\Main_Siemens_Automation_824MSPe\haeger_haeger_samd_haeger_mcu1\Debug/core.a(WMath.cpp.o)
 .debug_info    0x00056289     0x4ae4 C:\Users\Haris\AppData\Local\Temp\VMBuilds\Main_Siemens_Automation_824MSPe\haeger_haeger_samd_haeger_mcu1\Debug/core.a(CDC.cpp.o)
 .debug_info    0x0005ad6d     0x831a C:\Users\Haris\AppData\Local\Temp\VMBuilds\Main_Siemens_Automation_824MSPe\haeger_haeger_samd_haeger_mcu1\Debug/core.a(USBCore.cpp.o)
 .debug_info    0x00063087     0x2bbf C:\Users\Haris\AppData\Local\Temp\VMBuilds\Main_Siemens_Automation_824MSPe\haeger_haeger_samd_haeger_mcu1\Debug/core.a(wiring.c.o)
 .debug_info    0x00065c46      0x1a5 C:\Users\Haris\AppData\Local\Temp\VMBuilds\Main_Siemens_Automation_824MSPe\haeger_haeger_samd_haeger_mcu1\Debug/core.a(new.cpp.o)
 .debug_info    0x00065deb     0x2563 C:\Users\Haris\AppData\Local\Temp\VMBuilds\Main_Siemens_Automation_824MSPe\haeger_haeger_samd_haeger_mcu1\Debug/core.a(PluggableUSB.cpp.o)
 .debug_info    0x0006834e     0x2065 C:\Users\Haris\AppData\Local\Temp\VMBuilds\Main_Siemens_Automation_824MSPe\haeger_haeger_samd_haeger_mcu1\Debug/core.a(SAMD21_USBDevice.cpp.o)

.debug_abbrev   0x00000000     0x895d
 .debug_abbrev  0x00000000      0x819 C:\Users\Haris\AppData\Local\Temp\VMBuilds\Main_Siemens_Automation_824MSPe\haeger_haeger_samd_haeger_mcu1\Debug\Main_Siemens_Automation_824MSPe.cpp.o
 .debug_abbrev  0x00000819      0x2e1 C:\Users\Haris\AppData\Local\Temp\VMBuilds\Main_Siemens_Automation_824MSPe\haeger_haeger_samd_haeger_mcu1\Debug\Alarm_Function.cpp.o
 .debug_abbrev  0x00000afa      0x35f C:\Users\Haris\AppData\Local\Temp\VMBuilds\Main_Siemens_Automation_824MSPe\haeger_haeger_samd_haeger_mcu1\Debug\Bypass_Function.cpp.o
 .debug_abbrev  0x00000e59      0x339 C:\Users\Haris\AppData\Local\Temp\VMBuilds\Main_Siemens_Automation_824MSPe\haeger_haeger_samd_haeger_mcu1\Debug\Conductive_Mode_Function.cpp.o
 .debug_abbrev  0x00001192      0x359 C:\Users\Haris\AppData\Local\Temp\VMBuilds\Main_Siemens_Automation_824MSPe\haeger_haeger_samd_haeger_mcu1\Debug\Footpedal_Function.cpp.o
 .debug_abbrev  0x000014eb      0x31d C:\Users\Haris\AppData\Local\Temp\VMBuilds\Main_Siemens_Automation_824MSPe\haeger_haeger_samd_haeger_mcu1\Debug\Force_Function.cpp.o
 .debug_abbrev  0x00001808      0x332 C:\Users\Haris\AppData\Local\Temp\VMBuilds\Main_Siemens_Automation_824MSPe\haeger_haeger_samd_haeger_mcu1\Debug\Hydraulic_Cylinder_Function.cpp.o
 .debug_abbrev  0x00001b3a      0x33a C:\Users\Haris\AppData\Local\Temp\VMBuilds\Main_Siemens_Automation_824MSPe\haeger_haeger_samd_haeger_mcu1\Debug\Hydraulic_Start_Function.cpp.o
 .debug_abbrev  0x00001e74      0x303 C:\Users\Haris\AppData\Local\Temp\VMBuilds\Main_Siemens_Automation_824MSPe\haeger_haeger_samd_haeger_mcu1\Debug\Initialization_Function.cpp.o
 .debug_abbrev  0x00002177      0x329 C:\Users\Haris\AppData\Local\Temp\VMBuilds\Main_Siemens_Automation_824MSPe\haeger_haeger_samd_haeger_mcu1\Debug\Machine_State_Function.cpp.o
 .debug_abbrev  0x000024a0      0x2f2 C:\Users\Haris\AppData\Local\Temp\VMBuilds\Main_Siemens_Automation_824MSPe\haeger_haeger_samd_haeger_mcu1\Debug\MCU_Version_Function.cpp.o
 .debug_abbrev  0x00002792      0x329 C:\Users\Haris\AppData\Local\Temp\VMBuilds\Main_Siemens_Automation_824MSPe\haeger_haeger_samd_haeger_mcu1\Debug\Non_Conductive_Mode_Function.cpp.o
 .debug_abbrev  0x00002abb      0x33a C:\Users\Haris\AppData\Local\Temp\VMBuilds\Main_Siemens_Automation_824MSPe\haeger_haeger_samd_haeger_mcu1\Debug\Robot_Communication_Function.cpp.o
 .debug_abbrev  0x00002df5      0x311 C:\Users\Haris\AppData\Local\Temp\VMBuilds\Main_Siemens_Automation_824MSPe\haeger_haeger_samd_haeger_mcu1\Debug\Robot_Lower_Tool_Pin_Function.cpp.o
 .debug_abbrev  0x00003106      0x34b C:\Users\Haris\AppData\Local\Temp\VMBuilds\Main_Siemens_Automation_824MSPe\haeger_haeger_samd_haeger_mcu1\Debug\Safety_Sensor_State_Function.cpp.o
 .debug_abbrev  0x00003451      0x339 C:\Users\Haris\AppData\Local\Temp\VMBuilds\Main_Siemens_Automation_824MSPe\haeger_haeger_samd_haeger_mcu1\Debug\Timer_Function.cpp.o
 .debug_abbrev  0x0000378a      0x33a C:\Users\Haris\AppData\Local\Temp\VMBuilds\Main_Siemens_Automation_824MSPe\haeger_haeger_samd_haeger_mcu1\Debug\Tooling_Protection_Sytem_Function.cpp.o
 .debug_abbrev  0x00003ac4      0x31c C:\Users\Haris\AppData\Local\Temp\VMBuilds\Main_Siemens_Automation_824MSPe\haeger_haeger_samd_haeger_mcu1\Debug\Toolingcontact_Function.cpp.o
 .debug_abbrev  0x00003de0      0x303 C:\Users\Haris\AppData\Local\Temp\VMBuilds\Main_Siemens_Automation_824MSPe\haeger_haeger_samd_haeger_mcu1\Debug\Top_Of_Stroke_Function.cpp.o
 .debug_abbrev  0x000040e3      0x3fb C:\Users\Haris\AppData\Local\Temp\VMBuilds\Main_Siemens_Automation_824MSPe\haeger_haeger_samd_haeger_mcu1\Debug\ResponsiveAnalogRead\ResponsiveAnalogRead.cpp.o
 .debug_abbrev  0x000044de      0x51e C:\Users\Haris\AppData\Local\Temp\VMBuilds\Main_Siemens_Automation_824MSPe\haeger_haeger_samd_haeger_mcu1\Debug\MCP23S17-master\MCP23S17.cpp.o
 .debug_abbrev  0x000049fc      0x578 C:\Users\Haris\AppData\Local\Temp\VMBuilds\Main_Siemens_Automation_824MSPe\haeger_haeger_samd_haeger_mcu1\Debug\SPI\SPI.cpp.o
 .debug_abbrev  0x00004f74      0x2ff C:\Users\Haris\AppData\Local\Temp\VMBCore\visualmicro\276ac5ba6e45f5143b737d9f0d9df4e9\variant\variant.cpp.o
 .debug_abbrev  0x00005273      0x21d C:\Users\Haris\AppData\Local\Temp\VMBuilds\Main_Siemens_Automation_824MSPe\haeger_haeger_samd_haeger_mcu1\Debug/core.a(cortex_handlers.c.o)
 .debug_abbrev  0x00005490      0x17a C:\Users\Haris\AppData\Local\Temp\VMBuilds\Main_Siemens_Automation_824MSPe\haeger_haeger_samd_haeger_mcu1\Debug/core.a(delay.c.o)
 .debug_abbrev  0x0000560a       0x4a C:\Users\Haris\AppData\Local\Temp\VMBuilds\Main_Siemens_Automation_824MSPe\haeger_haeger_samd_haeger_mcu1\Debug/core.a(hooks.c.o)
 .debug_abbrev  0x00005654      0x16c C:\Users\Haris\AppData\Local\Temp\VMBuilds\Main_Siemens_Automation_824MSPe\haeger_haeger_samd_haeger_mcu1\Debug/core.a(startup.c.o)
 .debug_abbrev  0x000057c0      0x3a5 C:\Users\Haris\AppData\Local\Temp\VMBuilds\Main_Siemens_Automation_824MSPe\haeger_haeger_samd_haeger_mcu1\Debug/core.a(wiring_analog.c.o)
 .debug_abbrev  0x00005b65      0x204 C:\Users\Haris\AppData\Local\Temp\VMBuilds\Main_Siemens_Automation_824MSPe\haeger_haeger_samd_haeger_mcu1\Debug/core.a(wiring_digital.c.o)
 .debug_abbrev  0x00005d69      0x1f8 C:\Users\Haris\AppData\Local\Temp\VMBuilds\Main_Siemens_Automation_824MSPe\haeger_haeger_samd_haeger_mcu1\Debug/core.a(wiring_private.c.o)
 .debug_abbrev  0x00005f61      0x44d C:\Users\Haris\AppData\Local\Temp\VMBuilds\Main_Siemens_Automation_824MSPe\haeger_haeger_samd_haeger_mcu1\Debug/core.a(main.cpp.o)
 .debug_abbrev  0x000063ae      0x37f C:\Users\Haris\AppData\Local\Temp\VMBuilds\Main_Siemens_Automation_824MSPe\haeger_haeger_samd_haeger_mcu1\Debug/core.a(Reset.cpp.o)
 .debug_abbrev  0x0000672d      0x516 C:\Users\Haris\AppData\Local\Temp\VMBuilds\Main_Siemens_Automation_824MSPe\haeger_haeger_samd_haeger_mcu1\Debug/core.a(SERCOM.cpp.o)
 .debug_abbrev  0x00006c43      0x13c C:\Users\Haris\AppData\Local\Temp\VMBuilds\Main_Siemens_Automation_824MSPe\haeger_haeger_samd_haeger_mcu1\Debug/core.a(WMath.cpp.o)
 .debug_abbrev  0x00006d7f      0x74f C:\Users\Haris\AppData\Local\Temp\VMBuilds\Main_Siemens_Automation_824MSPe\haeger_haeger_samd_haeger_mcu1\Debug/core.a(CDC.cpp.o)
 .debug_abbrev  0x000074ce      0x90f C:\Users\Haris\AppData\Local\Temp\VMBuilds\Main_Siemens_Automation_824MSPe\haeger_haeger_samd_haeger_mcu1\Debug/core.a(USBCore.cpp.o)
 .debug_abbrev  0x00007ddd      0x2aa C:\Users\Haris\AppData\Local\Temp\VMBuilds\Main_Siemens_Automation_824MSPe\haeger_haeger_samd_haeger_mcu1\Debug/core.a(wiring.c.o)
 .debug_abbrev  0x00008087       0xdd C:\Users\Haris\AppData\Local\Temp\VMBuilds\Main_Siemens_Automation_824MSPe\haeger_haeger_samd_haeger_mcu1\Debug/core.a(new.cpp.o)
 .debug_abbrev  0x00008164      0x4b1 C:\Users\Haris\AppData\Local\Temp\VMBuilds\Main_Siemens_Automation_824MSPe\haeger_haeger_samd_haeger_mcu1\Debug/core.a(PluggableUSB.cpp.o)
 .debug_abbrev  0x00008615      0x348 C:\Users\Haris\AppData\Local\Temp\VMBuilds\Main_Siemens_Automation_824MSPe\haeger_haeger_samd_haeger_mcu1\Debug/core.a(SAMD21_USBDevice.cpp.o)

.debug_loc      0x00000000     0x7252
 .debug_loc     0x00000000     0x11c5 C:\Users\Haris\AppData\Local\Temp\VMBuilds\Main_Siemens_Automation_824MSPe\haeger_haeger_samd_haeger_mcu1\Debug\Main_Siemens_Automation_824MSPe.cpp.o
 .debug_loc     0x000011c5       0x13 C:\Users\Haris\AppData\Local\Temp\VMBuilds\Main_Siemens_Automation_824MSPe\haeger_haeger_samd_haeger_mcu1\Debug\Timer_Function.cpp.o
 .debug_loc     0x000011d8      0x29e C:\Users\Haris\AppData\Local\Temp\VMBuilds\Main_Siemens_Automation_824MSPe\haeger_haeger_samd_haeger_mcu1\Debug\ResponsiveAnalogRead\ResponsiveAnalogRead.cpp.o
 .debug_loc     0x00001476      0xdf4 C:\Users\Haris\AppData\Local\Temp\VMBuilds\Main_Siemens_Automation_824MSPe\haeger_haeger_samd_haeger_mcu1\Debug\MCP23S17-master\MCP23S17.cpp.o
 .debug_loc     0x0000226a      0x50c C:\Users\Haris\AppData\Local\Temp\VMBuilds\Main_Siemens_Automation_824MSPe\haeger_haeger_samd_haeger_mcu1\Debug\SPI\SPI.cpp.o
 .debug_loc     0x00002776       0x49 C:\Users\Haris\AppData\Local\Temp\VMBuilds\Main_Siemens_Automation_824MSPe\haeger_haeger_samd_haeger_mcu1\Debug/core.a(cortex_handlers.c.o)
 .debug_loc     0x000027bf       0xdd C:\Users\Haris\AppData\Local\Temp\VMBuilds\Main_Siemens_Automation_824MSPe\haeger_haeger_samd_haeger_mcu1\Debug/core.a(delay.c.o)
 .debug_loc     0x0000289c      0x486 C:\Users\Haris\AppData\Local\Temp\VMBuilds\Main_Siemens_Automation_824MSPe\haeger_haeger_samd_haeger_mcu1\Debug/core.a(wiring_analog.c.o)
 .debug_loc     0x00002d22      0x140 C:\Users\Haris\AppData\Local\Temp\VMBuilds\Main_Siemens_Automation_824MSPe\haeger_haeger_samd_haeger_mcu1\Debug/core.a(wiring_digital.c.o)
 .debug_loc     0x00002e62      0x10d C:\Users\Haris\AppData\Local\Temp\VMBuilds\Main_Siemens_Automation_824MSPe\haeger_haeger_samd_haeger_mcu1\Debug/core.a(wiring_private.c.o)
 .debug_loc     0x00002f6f       0x18 C:\Users\Haris\AppData\Local\Temp\VMBuilds\Main_Siemens_Automation_824MSPe\haeger_haeger_samd_haeger_mcu1\Debug/core.a(Reset.cpp.o)
 .debug_loc     0x00002f87     0x1268 C:\Users\Haris\AppData\Local\Temp\VMBuilds\Main_Siemens_Automation_824MSPe\haeger_haeger_samd_haeger_mcu1\Debug/core.a(SERCOM.cpp.o)
 .debug_loc     0x000041ef      0x141 C:\Users\Haris\AppData\Local\Temp\VMBuilds\Main_Siemens_Automation_824MSPe\haeger_haeger_samd_haeger_mcu1\Debug/core.a(WMath.cpp.o)
 .debug_loc     0x00004330      0x501 C:\Users\Haris\AppData\Local\Temp\VMBuilds\Main_Siemens_Automation_824MSPe\haeger_haeger_samd_haeger_mcu1\Debug/core.a(CDC.cpp.o)
 .debug_loc     0x00004831     0x25dd C:\Users\Haris\AppData\Local\Temp\VMBuilds\Main_Siemens_Automation_824MSPe\haeger_haeger_samd_haeger_mcu1\Debug/core.a(USBCore.cpp.o)
 .debug_loc     0x00006e0e      0x11e C:\Users\Haris\AppData\Local\Temp\VMBuilds\Main_Siemens_Automation_824MSPe\haeger_haeger_samd_haeger_mcu1\Debug/core.a(wiring.c.o)
 .debug_loc     0x00006f2c       0x84 C:\Users\Haris\AppData\Local\Temp\VMBuilds\Main_Siemens_Automation_824MSPe\haeger_haeger_samd_haeger_mcu1\Debug/core.a(new.cpp.o)
 .debug_loc     0x00006fb0      0x21e C:\Users\Haris\AppData\Local\Temp\VMBuilds\Main_Siemens_Automation_824MSPe\haeger_haeger_samd_haeger_mcu1\Debug/core.a(PluggableUSB.cpp.o)
 .debug_loc     0x000071ce       0x84 C:\Users\Haris\AppData\Local\Temp\VMBuilds\Main_Siemens_Automation_824MSPe\haeger_haeger_samd_haeger_mcu1\Debug/core.a(SAMD21_USBDevice.cpp.o)

.debug_aranges  0x00000000      0xc98
 .debug_aranges
                0x00000000      0x190 C:\Users\Haris\AppData\Local\Temp\VMBuilds\Main_Siemens_Automation_824MSPe\haeger_haeger_samd_haeger_mcu1\Debug\Main_Siemens_Automation_824MSPe.cpp.o
 .debug_aranges
                0x00000190       0x20 C:\Users\Haris\AppData\Local\Temp\VMBuilds\Main_Siemens_Automation_824MSPe\haeger_haeger_samd_haeger_mcu1\Debug\Alarm_Function.cpp.o
 .debug_aranges
                0x000001b0       0x20 C:\Users\Haris\AppData\Local\Temp\VMBuilds\Main_Siemens_Automation_824MSPe\haeger_haeger_samd_haeger_mcu1\Debug\Bypass_Function.cpp.o
 .debug_aranges
                0x000001d0       0x20 C:\Users\Haris\AppData\Local\Temp\VMBuilds\Main_Siemens_Automation_824MSPe\haeger_haeger_samd_haeger_mcu1\Debug\Conductive_Mode_Function.cpp.o
 .debug_aranges
                0x000001f0       0x20 C:\Users\Haris\AppData\Local\Temp\VMBuilds\Main_Siemens_Automation_824MSPe\haeger_haeger_samd_haeger_mcu1\Debug\Footpedal_Function.cpp.o
 .debug_aranges
                0x00000210       0x20 C:\Users\Haris\AppData\Local\Temp\VMBuilds\Main_Siemens_Automation_824MSPe\haeger_haeger_samd_haeger_mcu1\Debug\Force_Function.cpp.o
 .debug_aranges
                0x00000230       0x28 C:\Users\Haris\AppData\Local\Temp\VMBuilds\Main_Siemens_Automation_824MSPe\haeger_haeger_samd_haeger_mcu1\Debug\Hydraulic_Cylinder_Function.cpp.o
 .debug_aranges
                0x00000258       0x20 C:\Users\Haris\AppData\Local\Temp\VMBuilds\Main_Siemens_Automation_824MSPe\haeger_haeger_samd_haeger_mcu1\Debug\Hydraulic_Start_Function.cpp.o
 .debug_aranges
                0x00000278       0x20 C:\Users\Haris\AppData\Local\Temp\VMBuilds\Main_Siemens_Automation_824MSPe\haeger_haeger_samd_haeger_mcu1\Debug\Initialization_Function.cpp.o
 .debug_aranges
                0x00000298       0x20 C:\Users\Haris\AppData\Local\Temp\VMBuilds\Main_Siemens_Automation_824MSPe\haeger_haeger_samd_haeger_mcu1\Debug\Machine_State_Function.cpp.o
 .debug_aranges
                0x000002b8       0x20 C:\Users\Haris\AppData\Local\Temp\VMBuilds\Main_Siemens_Automation_824MSPe\haeger_haeger_samd_haeger_mcu1\Debug\MCU_Version_Function.cpp.o
 .debug_aranges
                0x000002d8       0x20 C:\Users\Haris\AppData\Local\Temp\VMBuilds\Main_Siemens_Automation_824MSPe\haeger_haeger_samd_haeger_mcu1\Debug\Non_Conductive_Mode_Function.cpp.o
 .debug_aranges
                0x000002f8       0x20 C:\Users\Haris\AppData\Local\Temp\VMBuilds\Main_Siemens_Automation_824MSPe\haeger_haeger_samd_haeger_mcu1\Debug\Robot_Communication_Function.cpp.o
 .debug_aranges
                0x00000318       0x20 C:\Users\Haris\AppData\Local\Temp\VMBuilds\Main_Siemens_Automation_824MSPe\haeger_haeger_samd_haeger_mcu1\Debug\Robot_Lower_Tool_Pin_Function.cpp.o
 .debug_aranges
                0x00000338       0x20 C:\Users\Haris\AppData\Local\Temp\VMBuilds\Main_Siemens_Automation_824MSPe\haeger_haeger_samd_haeger_mcu1\Debug\Safety_Sensor_State_Function.cpp.o
 .debug_aranges
                0x00000358       0x20 C:\Users\Haris\AppData\Local\Temp\VMBuilds\Main_Siemens_Automation_824MSPe\haeger_haeger_samd_haeger_mcu1\Debug\Timer_Function.cpp.o
 .debug_aranges
                0x00000378       0x20 C:\Users\Haris\AppData\Local\Temp\VMBuilds\Main_Siemens_Automation_824MSPe\haeger_haeger_samd_haeger_mcu1\Debug\Tooling_Protection_Sytem_Function.cpp.o
 .debug_aranges
                0x00000398       0x20 C:\Users\Haris\AppData\Local\Temp\VMBuilds\Main_Siemens_Automation_824MSPe\haeger_haeger_samd_haeger_mcu1\Debug\Toolingcontact_Function.cpp.o
 .debug_aranges
                0x000003b8       0x20 C:\Users\Haris\AppData\Local\Temp\VMBuilds\Main_Siemens_Automation_824MSPe\haeger_haeger_samd_haeger_mcu1\Debug\Top_Of_Stroke_Function.cpp.o
 .debug_aranges
                0x000003d8       0x48 C:\Users\Haris\AppData\Local\Temp\VMBuilds\Main_Siemens_Automation_824MSPe\haeger_haeger_samd_haeger_mcu1\Debug\ResponsiveAnalogRead\ResponsiveAnalogRead.cpp.o
 .debug_aranges
                0x00000420       0xd0 C:\Users\Haris\AppData\Local\Temp\VMBuilds\Main_Siemens_Automation_824MSPe\haeger_haeger_samd_haeger_mcu1\Debug\MCP23S17-master\MCP23S17.cpp.o
 .debug_aranges
                0x000004f0       0xa0 C:\Users\Haris\AppData\Local\Temp\VMBuilds\Main_Siemens_Automation_824MSPe\haeger_haeger_samd_haeger_mcu1\Debug\SPI\SPI.cpp.o
 .debug_aranges
                0x00000590       0x20 C:\Users\Haris\AppData\Local\Temp\VMBCore\visualmicro\276ac5ba6e45f5143b737d9f0d9df4e9\variant\variant.cpp.o
 .debug_aranges
                0x000005b0       0x58 C:\Users\Haris\AppData\Local\Temp\VMBuilds\Main_Siemens_Automation_824MSPe\haeger_haeger_samd_haeger_mcu1\Debug/core.a(cortex_handlers.c.o)
 .debug_aranges
                0x00000608       0x38 C:\Users\Haris\AppData\Local\Temp\VMBuilds\Main_Siemens_Automation_824MSPe\haeger_haeger_samd_haeger_mcu1\Debug/core.a(delay.c.o)
 .debug_aranges
                0x00000640       0x30 C:\Users\Haris\AppData\Local\Temp\VMBuilds\Main_Siemens_Automation_824MSPe\haeger_haeger_samd_haeger_mcu1\Debug/core.a(hooks.c.o)
 .debug_aranges
                0x00000670       0x20 C:\Users\Haris\AppData\Local\Temp\VMBuilds\Main_Siemens_Automation_824MSPe\haeger_haeger_samd_haeger_mcu1\Debug/core.a(startup.c.o)
 .debug_aranges
                0x00000690       0x40 C:\Users\Haris\AppData\Local\Temp\VMBuilds\Main_Siemens_Automation_824MSPe\haeger_haeger_samd_haeger_mcu1\Debug/core.a(wiring_analog.c.o)
 .debug_aranges
                0x000006d0       0x30 C:\Users\Haris\AppData\Local\Temp\VMBuilds\Main_Siemens_Automation_824MSPe\haeger_haeger_samd_haeger_mcu1\Debug/core.a(wiring_digital.c.o)
 .debug_aranges
                0x00000700       0x20 C:\Users\Haris\AppData\Local\Temp\VMBuilds\Main_Siemens_Automation_824MSPe\haeger_haeger_samd_haeger_mcu1\Debug/core.a(wiring_private.c.o)
 .debug_aranges
                0x00000720       0x28 C:\Users\Haris\AppData\Local\Temp\VMBuilds\Main_Siemens_Automation_824MSPe\haeger_haeger_samd_haeger_mcu1\Debug/core.a(main.cpp.o)
 .debug_aranges
                0x00000748       0x30 C:\Users\Haris\AppData\Local\Temp\VMBuilds\Main_Siemens_Automation_824MSPe\haeger_haeger_samd_haeger_mcu1\Debug/core.a(Reset.cpp.o)
 .debug_aranges
                0x00000778      0x1c8 C:\Users\Haris\AppData\Local\Temp\VMBuilds\Main_Siemens_Automation_824MSPe\haeger_haeger_samd_haeger_mcu1\Debug/core.a(SERCOM.cpp.o)
 .debug_aranges
                0x00000940       0x48 C:\Users\Haris\AppData\Local\Temp\VMBuilds\Main_Siemens_Automation_824MSPe\haeger_haeger_samd_haeger_mcu1\Debug/core.a(WMath.cpp.o)
 .debug_aranges
                0x00000988       0xd8 C:\Users\Haris\AppData\Local\Temp\VMBuilds\Main_Siemens_Automation_824MSPe\haeger_haeger_samd_haeger_mcu1\Debug/core.a(CDC.cpp.o)
 .debug_aranges
                0x00000a60      0x168 C:\Users\Haris\AppData\Local\Temp\VMBuilds\Main_Siemens_Automation_824MSPe\haeger_haeger_samd_haeger_mcu1\Debug/core.a(USBCore.cpp.o)
 .debug_aranges
                0x00000bc8       0x20 C:\Users\Haris\AppData\Local\Temp\VMBuilds\Main_Siemens_Automation_824MSPe\haeger_haeger_samd_haeger_mcu1\Debug/core.a(wiring.c.o)
 .debug_aranges
                0x00000be8       0x38 C:\Users\Haris\AppData\Local\Temp\VMBuilds\Main_Siemens_Automation_824MSPe\haeger_haeger_samd_haeger_mcu1\Debug/core.a(new.cpp.o)
 .debug_aranges
                0x00000c20       0x50 C:\Users\Haris\AppData\Local\Temp\VMBuilds\Main_Siemens_Automation_824MSPe\haeger_haeger_samd_haeger_mcu1\Debug/core.a(PluggableUSB.cpp.o)
 .debug_aranges
                0x00000c70       0x28 C:\Users\Haris\AppData\Local\Temp\VMBuilds\Main_Siemens_Automation_824MSPe\haeger_haeger_samd_haeger_mcu1\Debug/core.a(SAMD21_USBDevice.cpp.o)

.debug_ranges   0x00000000     0x1690
 .debug_ranges  0x00000000      0x2b0 C:\Users\Haris\AppData\Local\Temp\VMBuilds\Main_Siemens_Automation_824MSPe\haeger_haeger_samd_haeger_mcu1\Debug\Main_Siemens_Automation_824MSPe.cpp.o
 .debug_ranges  0x000002b0       0x10 C:\Users\Haris\AppData\Local\Temp\VMBuilds\Main_Siemens_Automation_824MSPe\haeger_haeger_samd_haeger_mcu1\Debug\Alarm_Function.cpp.o
 .debug_ranges  0x000002c0       0x10 C:\Users\Haris\AppData\Local\Temp\VMBuilds\Main_Siemens_Automation_824MSPe\haeger_haeger_samd_haeger_mcu1\Debug\Bypass_Function.cpp.o
 .debug_ranges  0x000002d0       0x10 C:\Users\Haris\AppData\Local\Temp\VMBuilds\Main_Siemens_Automation_824MSPe\haeger_haeger_samd_haeger_mcu1\Debug\Conductive_Mode_Function.cpp.o
 .debug_ranges  0x000002e0       0x10 C:\Users\Haris\AppData\Local\Temp\VMBuilds\Main_Siemens_Automation_824MSPe\haeger_haeger_samd_haeger_mcu1\Debug\Footpedal_Function.cpp.o
 .debug_ranges  0x000002f0       0x10 C:\Users\Haris\AppData\Local\Temp\VMBuilds\Main_Siemens_Automation_824MSPe\haeger_haeger_samd_haeger_mcu1\Debug\Force_Function.cpp.o
 .debug_ranges  0x00000300       0x18 C:\Users\Haris\AppData\Local\Temp\VMBuilds\Main_Siemens_Automation_824MSPe\haeger_haeger_samd_haeger_mcu1\Debug\Hydraulic_Cylinder_Function.cpp.o
 .debug_ranges  0x00000318       0x10 C:\Users\Haris\AppData\Local\Temp\VMBuilds\Main_Siemens_Automation_824MSPe\haeger_haeger_samd_haeger_mcu1\Debug\Hydraulic_Start_Function.cpp.o
 .debug_ranges  0x00000328       0x10 C:\Users\Haris\AppData\Local\Temp\VMBuilds\Main_Siemens_Automation_824MSPe\haeger_haeger_samd_haeger_mcu1\Debug\Initialization_Function.cpp.o
 .debug_ranges  0x00000338       0x10 C:\Users\Haris\AppData\Local\Temp\VMBuilds\Main_Siemens_Automation_824MSPe\haeger_haeger_samd_haeger_mcu1\Debug\Machine_State_Function.cpp.o
 .debug_ranges  0x00000348       0x10 C:\Users\Haris\AppData\Local\Temp\VMBuilds\Main_Siemens_Automation_824MSPe\haeger_haeger_samd_haeger_mcu1\Debug\MCU_Version_Function.cpp.o
 .debug_ranges  0x00000358       0x10 C:\Users\Haris\AppData\Local\Temp\VMBuilds\Main_Siemens_Automation_824MSPe\haeger_haeger_samd_haeger_mcu1\Debug\Non_Conductive_Mode_Function.cpp.o
 .debug_ranges  0x00000368       0x10 C:\Users\Haris\AppData\Local\Temp\VMBuilds\Main_Siemens_Automation_824MSPe\haeger_haeger_samd_haeger_mcu1\Debug\Robot_Communication_Function.cpp.o
 .debug_ranges  0x00000378       0x10 C:\Users\Haris\AppData\Local\Temp\VMBuilds\Main_Siemens_Automation_824MSPe\haeger_haeger_samd_haeger_mcu1\Debug\Robot_Lower_Tool_Pin_Function.cpp.o
 .debug_ranges  0x00000388       0x10 C:\Users\Haris\AppData\Local\Temp\VMBuilds\Main_Siemens_Automation_824MSPe\haeger_haeger_samd_haeger_mcu1\Debug\Safety_Sensor_State_Function.cpp.o
 .debug_ranges  0x00000398       0x10 C:\Users\Haris\AppData\Local\Temp\VMBuilds\Main_Siemens_Automation_824MSPe\haeger_haeger_samd_haeger_mcu1\Debug\Timer_Function.cpp.o
 .debug_ranges  0x000003a8       0x10 C:\Users\Haris\AppData\Local\Temp\VMBuilds\Main_Siemens_Automation_824MSPe\haeger_haeger_samd_haeger_mcu1\Debug\Tooling_Protection_Sytem_Function.cpp.o
 .debug_ranges  0x000003b8       0x10 C:\Users\Haris\AppData\Local\Temp\VMBuilds\Main_Siemens_Automation_824MSPe\haeger_haeger_samd_haeger_mcu1\Debug\Toolingcontact_Function.cpp.o
 .debug_ranges  0x000003c8       0x10 C:\Users\Haris\AppData\Local\Temp\VMBuilds\Main_Siemens_Automation_824MSPe\haeger_haeger_samd_haeger_mcu1\Debug\Top_Of_Stroke_Function.cpp.o
 .debug_ranges  0x000003d8       0x50 C:\Users\Haris\AppData\Local\Temp\VMBuilds\Main_Siemens_Automation_824MSPe\haeger_haeger_samd_haeger_mcu1\Debug\ResponsiveAnalogRead\ResponsiveAnalogRead.cpp.o
 .debug_ranges  0x00000428      0x260 C:\Users\Haris\AppData\Local\Temp\VMBuilds\Main_Siemens_Automation_824MSPe\haeger_haeger_samd_haeger_mcu1\Debug\MCP23S17-master\MCP23S17.cpp.o
 .debug_ranges  0x00000688       0xa8 C:\Users\Haris\AppData\Local\Temp\VMBuilds\Main_Siemens_Automation_824MSPe\haeger_haeger_samd_haeger_mcu1\Debug\SPI\SPI.cpp.o
 .debug_ranges  0x00000730       0x28 C:\Users\Haris\AppData\Local\Temp\VMBCore\visualmicro\276ac5ba6e45f5143b737d9f0d9df4e9\variant\variant.cpp.o
 .debug_ranges  0x00000758       0x48 C:\Users\Haris\AppData\Local\Temp\VMBuilds\Main_Siemens_Automation_824MSPe\haeger_haeger_samd_haeger_mcu1\Debug/core.a(cortex_handlers.c.o)
 .debug_ranges  0x000007a0       0x28 C:\Users\Haris\AppData\Local\Temp\VMBuilds\Main_Siemens_Automation_824MSPe\haeger_haeger_samd_haeger_mcu1\Debug/core.a(delay.c.o)
 .debug_ranges  0x000007c8       0x20 C:\Users\Haris\AppData\Local\Temp\VMBuilds\Main_Siemens_Automation_824MSPe\haeger_haeger_samd_haeger_mcu1\Debug/core.a(hooks.c.o)
 .debug_ranges  0x000007e8       0x10 C:\Users\Haris\AppData\Local\Temp\VMBuilds\Main_Siemens_Automation_824MSPe\haeger_haeger_samd_haeger_mcu1\Debug/core.a(startup.c.o)
 .debug_ranges  0x000007f8       0x60 C:\Users\Haris\AppData\Local\Temp\VMBuilds\Main_Siemens_Automation_824MSPe\haeger_haeger_samd_haeger_mcu1\Debug/core.a(wiring_analog.c.o)
 .debug_ranges  0x00000858       0x20 C:\Users\Haris\AppData\Local\Temp\VMBuilds\Main_Siemens_Automation_824MSPe\haeger_haeger_samd_haeger_mcu1\Debug/core.a(wiring_digital.c.o)
 .debug_ranges  0x00000878       0x30 C:\Users\Haris\AppData\Local\Temp\VMBuilds\Main_Siemens_Automation_824MSPe\haeger_haeger_samd_haeger_mcu1\Debug/core.a(wiring_private.c.o)
 .debug_ranges  0x000008a8       0x18 C:\Users\Haris\AppData\Local\Temp\VMBuilds\Main_Siemens_Automation_824MSPe\haeger_haeger_samd_haeger_mcu1\Debug/core.a(main.cpp.o)
